{
  "contractName": "aAnimal",
  "abi": [
    {
      "constant": true,
      "inputs": [
        {
          "name": "interfaceId",
          "type": "bytes4"
        }
      ],
      "name": "supportsInterface",
      "outputs": [
        {
          "name": "",
          "type": "bool"
        }
      ],
      "payable": false,
      "stateMutability": "view",
      "type": "function"
    },
    {
      "constant": true,
      "inputs": [],
      "name": "name",
      "outputs": [
        {
          "name": "",
          "type": "string"
        }
      ],
      "payable": false,
      "stateMutability": "view",
      "type": "function"
    },
    {
      "constant": true,
      "inputs": [
        {
          "name": "tokenId",
          "type": "uint256"
        }
      ],
      "name": "getApproved",
      "outputs": [
        {
          "name": "",
          "type": "address"
        }
      ],
      "payable": false,
      "stateMutability": "view",
      "type": "function"
    },
    {
      "constant": false,
      "inputs": [
        {
          "name": "to",
          "type": "address"
        },
        {
          "name": "tokenId",
          "type": "uint256"
        }
      ],
      "name": "approve",
      "outputs": [],
      "payable": false,
      "stateMutability": "nonpayable",
      "type": "function"
    },
    {
      "constant": true,
      "inputs": [],
      "name": "totalSupply",
      "outputs": [
        {
          "name": "",
          "type": "uint256"
        }
      ],
      "payable": false,
      "stateMutability": "view",
      "type": "function"
    },
    {
      "constant": false,
      "inputs": [
        {
          "name": "from",
          "type": "address"
        },
        {
          "name": "to",
          "type": "address"
        },
        {
          "name": "tokenId",
          "type": "uint256"
        }
      ],
      "name": "transferFrom",
      "outputs": [],
      "payable": false,
      "stateMutability": "nonpayable",
      "type": "function"
    },
    {
      "constant": true,
      "inputs": [],
      "name": "DAI_ADDRESS",
      "outputs": [
        {
          "name": "",
          "type": "address"
        }
      ],
      "payable": false,
      "stateMutability": "view",
      "type": "function"
    },
    {
      "constant": true,
      "inputs": [
        {
          "name": "owner",
          "type": "address"
        },
        {
          "name": "index",
          "type": "uint256"
        }
      ],
      "name": "tokenOfOwnerByIndex",
      "outputs": [
        {
          "name": "",
          "type": "uint256"
        }
      ],
      "payable": false,
      "stateMutability": "view",
      "type": "function"
    },
    {
      "constant": true,
      "inputs": [],
      "name": "farm",
      "outputs": [
        {
          "name": "",
          "type": "address"
        }
      ],
      "payable": false,
      "stateMutability": "view",
      "type": "function"
    },
    {
      "constant": false,
      "inputs": [
        {
          "name": "from",
          "type": "address"
        },
        {
          "name": "to",
          "type": "address"
        },
        {
          "name": "tokenId",
          "type": "uint256"
        }
      ],
      "name": "safeTransferFrom",
      "outputs": [],
      "payable": false,
      "stateMutability": "nonpayable",
      "type": "function"
    },
    {
      "constant": true,
      "inputs": [
        {
          "name": "",
          "type": "uint256"
        }
      ],
      "name": "amounts",
      "outputs": [
        {
          "name": "",
          "type": "uint256"
        }
      ],
      "payable": false,
      "stateMutability": "view",
      "type": "function"
    },
    {
      "constant": true,
      "inputs": [
        {
          "name": "",
          "type": "uint256"
        }
      ],
      "name": "names",
      "outputs": [
        {
          "name": "",
          "type": "string"
        }
      ],
      "payable": false,
      "stateMutability": "view",
      "type": "function"
    },
    {
      "constant": true,
      "inputs": [
        {
          "name": "index",
          "type": "uint256"
        }
      ],
      "name": "tokenByIndex",
      "outputs": [
        {
          "name": "",
          "type": "uint256"
        }
      ],
      "payable": false,
      "stateMutability": "view",
      "type": "function"
    },
    {
      "constant": true,
      "inputs": [],
      "name": "ADAI_ADDRESS",
      "outputs": [
        {
          "name": "",
          "type": "address"
        }
      ],
      "payable": false,
      "stateMutability": "view",
      "type": "function"
    },
    {
      "constant": true,
      "inputs": [
        {
          "name": "tokenId",
          "type": "uint256"
        }
      ],
      "name": "ownerOf",
      "outputs": [
        {
          "name": "",
          "type": "address"
        }
      ],
      "payable": false,
      "stateMutability": "view",
      "type": "function"
    },
    {
      "constant": true,
      "inputs": [],
      "name": "baseURI",
      "outputs": [
        {
          "name": "",
          "type": "string"
        }
      ],
      "payable": false,
      "stateMutability": "view",
      "type": "function"
    },
    {
      "constant": true,
      "inputs": [
        {
          "name": "owner",
          "type": "address"
        }
      ],
      "name": "balanceOf",
      "outputs": [
        {
          "name": "",
          "type": "uint256"
        }
      ],
      "payable": false,
      "stateMutability": "view",
      "type": "function"
    },
    {
      "constant": true,
      "inputs": [],
      "name": "AAVE_LENDING_POOL",
      "outputs": [
        {
          "name": "",
          "type": "address"
        }
      ],
      "payable": false,
      "stateMutability": "view",
      "type": "function"
    },
    {
      "constant": true,
      "inputs": [],
      "name": "symbol",
      "outputs": [
        {
          "name": "",
          "type": "string"
        }
      ],
      "payable": false,
      "stateMutability": "view",
      "type": "function"
    },
    {
      "constant": false,
      "inputs": [
        {
          "name": "to",
          "type": "address"
        },
        {
          "name": "approved",
          "type": "bool"
        }
      ],
      "name": "setApprovalForAll",
      "outputs": [],
      "payable": false,
      "stateMutability": "nonpayable",
      "type": "function"
    },
    {
      "constant": false,
      "inputs": [
        {
          "name": "from",
          "type": "address"
        },
        {
          "name": "to",
          "type": "address"
        },
        {
          "name": "tokenId",
          "type": "uint256"
        },
        {
          "name": "_data",
          "type": "bytes"
        }
      ],
      "name": "safeTransferFrom",
      "outputs": [],
      "payable": false,
      "stateMutability": "nonpayable",
      "type": "function"
    },
    {
      "constant": true,
      "inputs": [
        {
          "name": "tokenId",
          "type": "uint256"
        }
      ],
      "name": "tokenURI",
      "outputs": [
        {
          "name": "",
          "type": "string"
        }
      ],
      "payable": false,
      "stateMutability": "view",
      "type": "function"
    },
    {
      "constant": true,
      "inputs": [
        {
          "name": "owner",
          "type": "address"
        },
        {
          "name": "operator",
          "type": "address"
        }
      ],
      "name": "isApprovedForAll",
      "outputs": [
        {
          "name": "",
          "type": "bool"
        }
      ],
      "payable": false,
      "stateMutability": "view",
      "type": "function"
    },
    {
      "constant": true,
      "inputs": [],
      "name": "AAVE_LENDING_POOL_CORE",
      "outputs": [
        {
          "name": "",
          "type": "address"
        }
      ],
      "payable": false,
      "stateMutability": "view",
      "type": "function"
    },
    {
      "inputs": [
        {
          "name": "_farm",
          "type": "address"
        }
      ],
      "payable": false,
      "stateMutability": "nonpayable",
      "type": "constructor"
    },
    {
      "anonymous": false,
      "inputs": [
        {
          "indexed": true,
          "name": "from",
          "type": "address"
        },
        {
          "indexed": true,
          "name": "to",
          "type": "address"
        },
        {
          "indexed": true,
          "name": "tokenId",
          "type": "uint256"
        }
      ],
      "name": "Transfer",
      "type": "event"
    },
    {
      "anonymous": false,
      "inputs": [
        {
          "indexed": true,
          "name": "owner",
          "type": "address"
        },
        {
          "indexed": true,
          "name": "approved",
          "type": "address"
        },
        {
          "indexed": true,
          "name": "tokenId",
          "type": "uint256"
        }
      ],
      "name": "Approval",
      "type": "event"
    },
    {
      "anonymous": false,
      "inputs": [
        {
          "indexed": true,
          "name": "owner",
          "type": "address"
        },
        {
          "indexed": true,
          "name": "operator",
          "type": "address"
        },
        {
          "indexed": false,
          "name": "approved",
          "type": "bool"
        }
      ],
      "name": "ApprovalForAll",
      "type": "event"
    },
    {
      "constant": true,
      "inputs": [
        {
          "name": "tokenId",
          "type": "uint256"
        }
      ],
      "name": "exists",
      "outputs": [
        {
          "name": "",
          "type": "bool"
        }
      ],
      "payable": false,
      "stateMutability": "view",
      "type": "function"
    },
    {
      "constant": true,
      "inputs": [
        {
          "name": "owner",
          "type": "address"
        }
      ],
      "name": "tokensOfOwner",
      "outputs": [
        {
          "name": "",
          "type": "uint256[]"
        }
      ],
      "payable": false,
      "stateMutability": "view",
      "type": "function"
    },
    {
      "constant": false,
      "inputs": [
        {
          "name": "_user",
          "type": "address"
        },
        {
          "name": "_value",
          "type": "uint256"
        },
        {
          "name": "_name",
          "type": "string"
        }
      ],
      "name": "mintDefiNFT",
      "outputs": [
        {
          "name": "",
          "type": "bool"
        }
      ],
      "payable": false,
      "stateMutability": "nonpayable",
      "type": "function"
    },
    {
      "constant": true,
      "inputs": [
        {
          "name": "_id",
          "type": "uint256"
        }
      ],
      "name": "getName",
      "outputs": [
        {
          "name": "",
          "type": "string"
        }
      ],
      "payable": false,
      "stateMutability": "view",
      "type": "function"
    },
    {
      "constant": false,
      "inputs": [
        {
          "name": "tokenId",
          "type": "uint256"
        }
      ],
      "name": "burn",
      "outputs": [],
      "payable": false,
      "stateMutability": "nonpayable",
      "type": "function"
    }
  ],
  "bytecode": "0x60806040523480156200001157600080fd5b5060405160208062003fce833981018060405260208110156200003357600080fd5b81019080805190602001909291905050506040518060400160405280600781526020017f61416e696d616c000000000000000000000000000000000000000000000000008152506040518060400160405280600381526020017f41414e00000000000000000000000000000000000000000000000000000000008152508181620000ca6301ffc9a760e01b6200019060201b60201c565b620000e26380ac58cd60e01b6200019060201b60201c565b620000fa63780e9d6360e01b6200019060201b60201c565b81600990805190602001906200011292919062000299565b5080600a90805190602001906200012b92919062000299565b5062000144635b5e139f60e01b6200019060201b60201c565b5050505080600d60006101000a81548173ffffffffffffffffffffffffffffffffffffffff021916908373ffffffffffffffffffffffffffffffffffffffff1602179055505062000348565b63ffffffff60e01b817bffffffffffffffffffffffffffffffffffffffffffffffffffffffff191614156200022d576040517f08c379a000000000000000000000000000000000000000000000000000000000815260040180806020018281038252601c8152602001807f4552433136353a20696e76616c696420696e746572666163652069640000000081525060200191505060405180910390fd5b6001600080837bffffffffffffffffffffffffffffffffffffffffffffffffffffffff19167bffffffffffffffffffffffffffffffffffffffffffffffffffffffff1916815260200190815260200160002060006101000a81548160ff02191690831515021790555050565b828054600181600116156101000203166002900490600052602060002090601f016020900481019282601f10620002dc57805160ff19168380011785556200030d565b828001600101855582156200030d579182015b828111156200030c578251825591602001919060010190620002ef565b5b5090506200031c919062000320565b5090565b6200034591905b808211156200034157600081600090555060010162000327565b5090565b90565b613c7680620003586000396000f3fe608060405234801561001057600080fd5b50600436106101cf5760003560e01c80634f558e79116101045780638462151c116100a2578063b88d4fde11610071578063b88d4fde14610bb2578063c87b56dd14610cb7578063e985e9c514610d5e578063f78b0cd214610dda576101cf565b80638462151c146109fc5780638b56046b14610a9557806395d89b4114610adf578063a22cb46514610b62576101cf565b80636352211e116100de5780636352211e1461080c5780636b8ff5741461087a5780636c0360eb1461092157806370a08231146109a4576101cf565b80634f558e791461073a5780634f6ccce71461078057806360765410146107c2576101cf565b80632a4c0a1a1161017157806342842e0e1161014b57806342842e0e146105b557806342966c681461062357806345f0a44f146106515780634622ab0314610693576101cf565b80632a4c0a1a146104bf5780632f745c591461050957806336e9332d1461056b576101cf565b8063095ea7b3116101ad578063095ea7b31461032a5780630e3a48961461037857806318160ddd1461043357806323b872dd14610451576101cf565b806301ffc9a7146101d457806306fdde0314610239578063081812fc146102bc575b600080fd5b61021f600480360360208110156101ea57600080fd5b8101908080357bffffffffffffffffffffffffffffffffffffffffffffffffffffffff19169060200190929190505050610e24565b604051808215151515815260200191505060405180910390f35b610241610e8b565b6040518080602001828103825283818151815260200191508051906020019080838360005b83811015610281578082015181840152602081019050610266565b50505050905090810190601f1680156102ae5780820380516001836020036101000a031916815260200191505b509250505060405180910390f35b6102e8600480360360208110156102d257600080fd5b8101908080359060200190929190505050610f2d565b604051808273ffffffffffffffffffffffffffffffffffffffff1673ffffffffffffffffffffffffffffffffffffffff16815260200191505060405180910390f35b6103766004803603604081101561034057600080fd5b81019080803573ffffffffffffffffffffffffffffffffffffffff16906020019092919080359060200190929190505050610fc8565b005b6104196004803603606081101561038e57600080fd5b81019080803573ffffffffffffffffffffffffffffffffffffffff16906020019092919080359060200190929190803590602001906401000000008111156103d557600080fd5b8201836020820111156103e757600080fd5b8035906020019184600183028401116401000000008311171561040957600080fd5b90919293919293905050506111af565b604051808215151515815260200191505060405180910390f35b61043b611701565b6040518082815260200191505060405180910390f35b6104bd6004803603606081101561046757600080fd5b81019080803573ffffffffffffffffffffffffffffffffffffffff169060200190929190803573ffffffffffffffffffffffffffffffffffffffff1690602001909291908035906020019092919050505061170e565b005b6104c7611784565b604051808273ffffffffffffffffffffffffffffffffffffffff1673ffffffffffffffffffffffffffffffffffffffff16815260200191505060405180910390f35b6105556004803603604081101561051f57600080fd5b81019080803573ffffffffffffffffffffffffffffffffffffffff1690602001909291908035906020019092919050505061179c565b6040518082815260200191505060405180910390f35b61057361185b565b604051808273ffffffffffffffffffffffffffffffffffffffff1673ffffffffffffffffffffffffffffffffffffffff16815260200191505060405180910390f35b610621600480360360608110156105cb57600080fd5b81019080803573ffffffffffffffffffffffffffffffffffffffff169060200190929190803573ffffffffffffffffffffffffffffffffffffffff16906020019092919080359060200190929190505050611881565b005b61064f6004803603602081101561063957600080fd5b81019080803590602001909291905050506118a1565b005b61067d6004803603602081101561066757600080fd5b8101908080359060200190929190505050611c27565b6040518082815260200191505060405180910390f35b6106bf600480360360208110156106a957600080fd5b8101908080359060200190929190505050611c3f565b6040518080602001828103825283818151815260200191508051906020019080838360005b838110156106ff5780820151818401526020810190506106e4565b50505050905090810190601f16801561072c5780820380516001836020036101000a031916815260200191505b509250505060405180910390f35b6107666004803603602081101561075057600080fd5b8101908080359060200190929190505050611cef565b604051808215151515815260200191505060405180910390f35b6107ac6004803603602081101561079657600080fd5b8101908080359060200190929190505050611d01565b6040518082815260200191505060405180910390f35b6107ca611d81565b604051808273ffffffffffffffffffffffffffffffffffffffff1673ffffffffffffffffffffffffffffffffffffffff16815260200191505060405180910390f35b6108386004803603602081101561082257600080fd5b8101908080359060200190929190505050611d99565b604051808273ffffffffffffffffffffffffffffffffffffffff1673ffffffffffffffffffffffffffffffffffffffff16815260200191505060405180910390f35b6108a66004803603602081101561089057600080fd5b8101908080359060200190929190505050611e61565b6040518080602001828103825283818151815260200191508051906020019080838360005b838110156108e65780820151818401526020810190506108cb565b50505050905090810190601f1680156109135780820380516001836020036101000a031916815260200191505b509250505060405180910390f35b610929611f16565b6040518080602001828103825283818151815260200191508051906020019080838360005b8381101561096957808201518184015260208101905061094e565b50505050905090810190601f1680156109965780820380516001836020036101000a031916815260200191505b509250505060405180910390f35b6109e6600480360360208110156109ba57600080fd5b81019080803573ffffffffffffffffffffffffffffffffffffffff169060200190929190505050611fb8565b6040518082815260200191505060405180910390f35b610a3e60048036036020811015610a1257600080fd5b81019080803573ffffffffffffffffffffffffffffffffffffffff16906020019092919050505061208d565b6040518080602001828103825283818151815260200191508051906020019060200280838360005b83811015610a81578082015181840152602081019050610a66565b505050509050019250505060405180910390f35b610a9d6120ee565b604051808273ffffffffffffffffffffffffffffffffffffffff1673ffffffffffffffffffffffffffffffffffffffff16815260200191505060405180910390f35b610ae7612106565b6040518080602001828103825283818151815260200191508051906020019080838360005b83811015610b27578082015181840152602081019050610b0c565b50505050905090810190601f168015610b545780820380516001836020036101000a031916815260200191505b509250505060405180910390f35b610bb060048036036040811015610b7857600080fd5b81019080803573ffffffffffffffffffffffffffffffffffffffff1690602001909291908035151590602001909291905050506121a8565b005b610cb560048036036080811015610bc857600080fd5b81019080803573ffffffffffffffffffffffffffffffffffffffff169060200190929190803573ffffffffffffffffffffffffffffffffffffffff1690602001909291908035906020019092919080359060200190640100000000811115610c2f57600080fd5b820183602082011115610c4157600080fd5b80359060200191846001830284011164010000000083111715610c6357600080fd5b91908080601f016020809104026020016040519081016040528093929190818152602001838380828437600081840152601f19601f820116905080830192505050505050509192919290505050612360565b005b610ce360048036036020811015610ccd57600080fd5b81019080803590602001909291905050506123d8565b6040518080602001828103825283818151815260200191508051906020019080838360005b83811015610d23578082015181840152602081019050610d08565b50505050905090810190601f168015610d505780820380516001836020036101000a031916815260200191505b509250505060405180910390f35b610dc060048036036040811015610d7457600080fd5b81019080803573ffffffffffffffffffffffffffffffffffffffff169060200190929190803573ffffffffffffffffffffffffffffffffffffffff1690602001909291905050506125da565b604051808215151515815260200191505060405180910390f35b610de261266e565b604051808273ffffffffffffffffffffffffffffffffffffffff1673ffffffffffffffffffffffffffffffffffffffff16815260200191505060405180910390f35b6000806000837bffffffffffffffffffffffffffffffffffffffffffffffffffffffff19167bffffffffffffffffffffffffffffffffffffffffffffffffffffffff1916815260200190815260200160002060009054906101000a900460ff169050919050565b606060098054600181600116156101000203166002900480601f016020809104026020016040519081016040528092919081815260200182805460018160011615610100020316600290048015610f235780601f10610ef857610100808354040283529160200191610f23565b820191906000526020600020905b815481529060010190602001808311610f0657829003601f168201915b5050505050905090565b6000610f3882612686565b610f8d576040517f08c379a000000000000000000000000000000000000000000000000000000000815260040180806020018281038252602c815260200180613af4602c913960400191505060405180910390fd5b6002600083815260200190815260200160002060009054906101000a900473ffffffffffffffffffffffffffffffffffffffff169050919050565b6000610fd382611d99565b90508073ffffffffffffffffffffffffffffffffffffffff168373ffffffffffffffffffffffffffffffffffffffff16141561105a576040517f08c379a0000000000000000000000000000000000000000000000000000000008152600401808060200182810382526021815260200180613b786021913960400191505060405180910390fd5b8073ffffffffffffffffffffffffffffffffffffffff166110796126f8565b73ffffffffffffffffffffffffffffffffffffffff1614806110a857506110a7816110a26126f8565b6125da565b5b6110fd576040517f08c379a0000000000000000000000000000000000000000000000000000000008152600401808060200182810382526038815260200180613a696038913960400191505060405180910390fd5b826002600084815260200190815260200160002060006101000a81548173ffffffffffffffffffffffffffffffffffffffff021916908373ffffffffffffffffffffffffffffffffffffffff160217905550818373ffffffffffffffffffffffffffffffffffffffff168273ffffffffffffffffffffffffffffffffffffffff167f8c5be1e5ebec7d5bd14f71427d1e84f3dd0314c0f7b2291e5b200ac8c7c3b92560405160405180910390a4505050565b6000600d60009054906101000a900473ffffffffffffffffffffffffffffffffffffffff1673ffffffffffffffffffffffffffffffffffffffff163373ffffffffffffffffffffffffffffffffffffffff161461120b57600080fd5b6000611215611701565b90506112218682612700565b73ff795577d9ac8bd7d90ee22b6c1703490b6512fd73ffffffffffffffffffffffffffffffffffffffff166323b872dd600d60009054906101000a900473ffffffffffffffffffffffffffffffffffffffff1630886040518463ffffffff1660e01b8152600401808473ffffffffffffffffffffffffffffffffffffffff1673ffffffffffffffffffffffffffffffffffffffff1681526020018373ffffffffffffffffffffffffffffffffffffffff1673ffffffffffffffffffffffffffffffffffffffff1681526020018281526020019350505050602060405180830381600087803b15801561131257600080fd5b505af1158015611326573d6000803e3d6000fd5b505050506040513d602081101561133c57600080fd5b810190808051906020019092919050505061135657600080fd5b73ff795577d9ac8bd7d90ee22b6c1703490b6512fd73ffffffffffffffffffffffffffffffffffffffff1663095ea7b37395d1189ed88b380e319df73ff00e479fcc4cfa45876040518363ffffffff1660e01b8152600401808373ffffffffffffffffffffffffffffffffffffffff1673ffffffffffffffffffffffffffffffffffffffff16815260200182815260200192505050602060405180830381600087803b15801561140557600080fd5b505af1158015611419573d6000803e3d6000fd5b505050506040513d602081101561142f57600080fd5b81019080805190602001909291905050505060007358ad4cb396411b691a9aab6f74545b2c5217fe6a73ffffffffffffffffffffffffffffffffffffffff166370a08231306040518263ffffffff1660e01b8152600401808273ffffffffffffffffffffffffffffffffffffffff1673ffffffffffffffffffffffffffffffffffffffff16815260200191505060206040518083038186803b1580156114d457600080fd5b505afa1580156114e8573d6000803e3d6000fd5b505050506040513d60208110156114fe57600080fd5b8101908080519060200190929190505050905073580d4fdc4bf8f9b5ae2fb9225d584fed4ad5375c73ffffffffffffffffffffffffffffffffffffffff1663d2d0e06673ff795577d9ac8bd7d90ee22b6c1703490b6512fd8860006040518463ffffffff1660e01b8152600401808473ffffffffffffffffffffffffffffffffffffffff1673ffffffffffffffffffffffffffffffffffffffff1681526020018381526020018261ffff1681526020019350505050600060405180830381600087803b1580156115cd57600080fd5b505af11580156115e1573d6000803e3d6000fd5b505050506000817358ad4cb396411b691a9aab6f74545b2c5217fe6a73ffffffffffffffffffffffffffffffffffffffff166370a08231306040518263ffffffff1660e01b8152600401808273ffffffffffffffffffffffffffffffffffffffff1673ffffffffffffffffffffffffffffffffffffffff16815260200191505060206040518083038186803b15801561167957600080fd5b505afa15801561168d573d6000803e3d6000fd5b505050506040513d60208110156116a357600080fd5b810190808051906020019092919050505003905080600f6000858152602001908152602001600020819055508585600e600086815260200190815260200160002091906116f19291906138a2565b5060019350505050949350505050565b6000600780549050905090565b61171f6117196126f8565b82612721565b611774576040517f08c379a0000000000000000000000000000000000000000000000000000000008152600401808060200182810382526031815260200180613b996031913960400191505060405180910390fd5b61177f838383612815565b505050565b73ff795577d9ac8bd7d90ee22b6c1703490b6512fd81565b60006117a783611fb8565b82106117fe576040517f08c379a000000000000000000000000000000000000000000000000000000000815260040180806020018281038252602b8152602001806139bc602b913960400191505060405180910390fd5b600560008473ffffffffffffffffffffffffffffffffffffffff1673ffffffffffffffffffffffffffffffffffffffff168152602001908152602001600020828154811061184857fe5b9060005260206000200154905092915050565b600d60009054906101000a900473ffffffffffffffffffffffffffffffffffffffff1681565b61189c83838360405180602001604052806000815250612360565b505050565b6118b26118ac6126f8565b82612721565b611907576040517f08c379a0000000000000000000000000000000000000000000000000000000008152600401808060200182810382526030815260200180613c1b6030913960400191505060405180910390fd5b600073ff795577d9ac8bd7d90ee22b6c1703490b6512fd73ffffffffffffffffffffffffffffffffffffffff166370a08231306040518263ffffffff1660e01b8152600401808273ffffffffffffffffffffffffffffffffffffffff1673ffffffffffffffffffffffffffffffffffffffff16815260200191505060206040518083038186803b15801561199a57600080fd5b505afa1580156119ae573d6000803e3d6000fd5b505050506040513d60208110156119c457600080fd5b810190808051906020019092919050505090507358ad4cb396411b691a9aab6f74545b2c5217fe6a73ffffffffffffffffffffffffffffffffffffffff1663db006a75600f6000858152602001908152602001600020546040518263ffffffff1660e01b815260040180828152602001915050600060405180830381600087803b158015611a5157600080fd5b505af1158015611a65573d6000803e3d6000fd5b5050505060008173ff795577d9ac8bd7d90ee22b6c1703490b6512fd73ffffffffffffffffffffffffffffffffffffffff166370a08231306040518263ffffffff1660e01b8152600401808273ffffffffffffffffffffffffffffffffffffffff1673ffffffffffffffffffffffffffffffffffffffff16815260200191505060206040518083038186803b158015611afd57600080fd5b505afa158015611b11573d6000803e3d6000fd5b505050506040513d6020811015611b2757600080fd5b810190808051906020019092919050505003905073ff795577d9ac8bd7d90ee22b6c1703490b6512fd73ffffffffffffffffffffffffffffffffffffffff1663a9059cbb611b736126f8565b836040518363ffffffff1660e01b8152600401808373ffffffffffffffffffffffffffffffffffffffff1673ffffffffffffffffffffffffffffffffffffffff16815260200182815260200192505050602060405180830381600087803b158015611bdd57600080fd5b505af1158015611bf1573d6000803e3d6000fd5b505050506040513d6020811015611c0757600080fd5b810190808051906020019092919050505050611c2283612839565b505050565b600f6020528060005260406000206000915090505481565b600e6020528060005260406000206000915090508054600181600116156101000203166002900480601f016020809104026020016040519081016040528092919081815260200182805460018160011615610100020316600290048015611ce75780601f10611cbc57610100808354040283529160200191611ce7565b820191906000526020600020905b815481529060010190602001808311611cca57829003601f168201915b505050505081565b6000611cfa82612686565b9050919050565b6000611d0b611701565b8210611d62576040517f08c379a000000000000000000000000000000000000000000000000000000000815260040180806020018281038252602c815260200180613bca602c913960400191505060405180910390fd5b60078281548110611d6f57fe5b90600052602060002001549050919050565b7358ad4cb396411b691a9aab6f74545b2c5217fe6a81565b6000806001600084815260200190815260200160002060009054906101000a900473ffffffffffffffffffffffffffffffffffffffff169050600073ffffffffffffffffffffffffffffffffffffffff168173ffffffffffffffffffffffffffffffffffffffff161415611e58576040517f08c379a0000000000000000000000000000000000000000000000000000000008152600401808060200182810382526029815260200180613acb6029913960400191505060405180910390fd5b80915050919050565b6060600e60008381526020019081526020016000208054600181600116156101000203166002900480601f016020809104026020016040519081016040528092919081815260200182805460018160011615610100020316600290048015611f0a5780601f10611edf57610100808354040283529160200191611f0a565b820191906000526020600020905b815481529060010190602001808311611eed57829003601f168201915b50505050509050919050565b6060600b8054600181600116156101000203166002900480601f016020809104026020016040519081016040528092919081815260200182805460018160011615610100020316600290048015611fae5780601f10611f8357610100808354040283529160200191611fae565b820191906000526020600020905b815481529060010190602001808311611f9157829003601f168201915b5050505050905090565b60008073ffffffffffffffffffffffffffffffffffffffff168273ffffffffffffffffffffffffffffffffffffffff16141561203f576040517f08c379a000000000000000000000000000000000000000000000000000000000815260040180806020018281038252602a815260200180613aa1602a913960400191505060405180910390fd5b612086600360008473ffffffffffffffffffffffffffffffffffffffff1673ffffffffffffffffffffffffffffffffffffffff16815260200190815260200160002061284e565b9050919050565b60606120988261285c565b8054806020026020016040519081016040528092919081815260200182805480156120e257602002820191906000526020600020905b8154815260200190600101908083116120ce575b50505050509050919050565b73580d4fdc4bf8f9b5ae2fb9225d584fed4ad5375c81565b6060600a8054600181600116156101000203166002900480601f01602080910402602001604051908101604052809291908181526020018280546001816001161561010002031660029004801561219e5780601f106121735761010080835404028352916020019161219e565b820191906000526020600020905b81548152906001019060200180831161218157829003601f168201915b5050505050905090565b6121b06126f8565b73ffffffffffffffffffffffffffffffffffffffff168273ffffffffffffffffffffffffffffffffffffffff161415612251576040517f08c379a00000000000000000000000000000000000000000000000000000000081526004018080602001828103825260198152602001807f4552433732313a20617070726f766520746f2063616c6c65720000000000000081525060200191505060405180910390fd5b806004600061225e6126f8565b73ffffffffffffffffffffffffffffffffffffffff1673ffffffffffffffffffffffffffffffffffffffff16815260200190815260200160002060008473ffffffffffffffffffffffffffffffffffffffff1673ffffffffffffffffffffffffffffffffffffffff16815260200190815260200160002060006101000a81548160ff0219169083151502179055508173ffffffffffffffffffffffffffffffffffffffff1661230b6126f8565b73ffffffffffffffffffffffffffffffffffffffff167f17307eab39ab6107e8899845ad3d59bd9653f200f220920489ca2b5937696c3183604051808215151515815260200191505060405180910390a35050565b61237161236b6126f8565b83612721565b6123c6576040517f08c379a0000000000000000000000000000000000000000000000000000000008152600401808060200182810382526031815260200180613b996031913960400191505060405180910390fd5b6123d2848484846128a4565b50505050565b60606123e382612686565b612438576040517f08c379a000000000000000000000000000000000000000000000000000000000815260040180806020018281038252602f815260200180613b49602f913960400191505060405180910390fd5b6060600c60008481526020019081526020016000208054600181600116156101000203166002900480601f0160208091040260200160405190810160405280929190818152602001828054600181600116156101000203166002900480156124e15780601f106124b6576101008083540402835291602001916124e1565b820191906000526020600020905b8154815290600101906020018083116124c457829003601f168201915b5050505050905060008151141561250a57604051806020016040528060008152509150506125d5565b600b81604051602001808380546001816001161561010002031660029004801561256b5780601f1061254957610100808354040283529182019161256b565b820191906000526020600020905b815481529060010190602001808311612557575b505082805190602001908083835b6020831061259c5780518252602082019150602081019050602083039250612579565b6001836020036101000a038019825116818451168082178552505050505050905001925050506040516020818303038152906040529150505b919050565b6000600460008473ffffffffffffffffffffffffffffffffffffffff1673ffffffffffffffffffffffffffffffffffffffff16815260200190815260200160002060008373ffffffffffffffffffffffffffffffffffffffff1673ffffffffffffffffffffffffffffffffffffffff16815260200190815260200160002060009054906101000a900460ff16905092915050565b7395d1189ed88b380e319df73ff00e479fcc4cfa4581565b6000806001600084815260200190815260200160002060009054906101000a900473ffffffffffffffffffffffffffffffffffffffff169050600073ffffffffffffffffffffffffffffffffffffffff168173ffffffffffffffffffffffffffffffffffffffff161415915050919050565b600033905090565b61270a8282612916565b6127148282612b2e565b61271d81612bf5565b5050565b600061272c82612686565b612781576040517f08c379a000000000000000000000000000000000000000000000000000000000815260040180806020018281038252602c815260200180613a3d602c913960400191505060405180910390fd5b600061278c83611d99565b90508073ffffffffffffffffffffffffffffffffffffffff168473ffffffffffffffffffffffffffffffffffffffff1614806127fb57508373ffffffffffffffffffffffffffffffffffffffff166127e384610f2d565b73ffffffffffffffffffffffffffffffffffffffff16145b8061280c575061280b81856125da565b5b91505092915050565b612820838383612c41565b61282a8382612e9c565b6128348282612b2e565b505050565b61284b61284582611d99565b8261303a565b50565b600081600001549050919050565b6000600560008373ffffffffffffffffffffffffffffffffffffffff1673ffffffffffffffffffffffffffffffffffffffff1681526020019081526020016000209050919050565b6128af848484612815565b6128bb84848484613097565b612910576040517f08c379a00000000000000000000000000000000000000000000000000000000081526004018080602001828103825260328152602001806139e76032913960400191505060405180910390fd5b50505050565b600073ffffffffffffffffffffffffffffffffffffffff168273ffffffffffffffffffffffffffffffffffffffff1614156129b9576040517f08c379a00000000000000000000000000000000000000000000000000000000081526004018080602001828103825260208152602001807f4552433732313a206d696e7420746f20746865207a65726f206164647265737381525060200191505060405180910390fd5b6129c281612686565b15612a35576040517f08c379a000000000000000000000000000000000000000000000000000000000815260040180806020018281038252601c8152602001807f4552433732313a20746f6b656e20616c7265616479206d696e7465640000000081525060200191505060405180910390fd5b816001600083815260200190815260200160002060006101000a81548173ffffffffffffffffffffffffffffffffffffffff021916908373ffffffffffffffffffffffffffffffffffffffff160217905550612ace600360008473ffffffffffffffffffffffffffffffffffffffff1673ffffffffffffffffffffffffffffffffffffffff1681526020019081526020016000206133d3565b808273ffffffffffffffffffffffffffffffffffffffff16600073ffffffffffffffffffffffffffffffffffffffff167fddf252ad1be2c89b69c2b068fc378daa952ba7f163c4a11628f55a4df523b3ef60405160405180910390a45050565b600560008373ffffffffffffffffffffffffffffffffffffffff1673ffffffffffffffffffffffffffffffffffffffff168152602001908152602001600020805490506006600083815260200190815260200160002081905550600560008373ffffffffffffffffffffffffffffffffffffffff1673ffffffffffffffffffffffffffffffffffffffff1681526020019081526020016000208190806001815401808255809150509060018203906000526020600020016000909192909190915055505050565b6007805490506008600083815260200190815260200160002081905550600781908060018154018082558091505090600182039060005260206000200160009091929091909150555050565b8273ffffffffffffffffffffffffffffffffffffffff16612c6182611d99565b73ffffffffffffffffffffffffffffffffffffffff1614612ccd576040517f08c379a0000000000000000000000000000000000000000000000000000000008152600401808060200182810382526029815260200180613b206029913960400191505060405180910390fd5b600073ffffffffffffffffffffffffffffffffffffffff168273ffffffffffffffffffffffffffffffffffffffff161415612d53576040517f08c379a0000000000000000000000000000000000000000000000000000000008152600401808060200182810382526024815260200180613a196024913960400191505060405180910390fd5b612d5c816133e9565b612da3600360008573ffffffffffffffffffffffffffffffffffffffff1673ffffffffffffffffffffffffffffffffffffffff1681526020019081526020016000206134a7565b612dea600360008473ffffffffffffffffffffffffffffffffffffffff1673ffffffffffffffffffffffffffffffffffffffff1681526020019081526020016000206133d3565b816001600083815260200190815260200160002060006101000a81548173ffffffffffffffffffffffffffffffffffffffff021916908373ffffffffffffffffffffffffffffffffffffffff160217905550808273ffffffffffffffffffffffffffffffffffffffff168473ffffffffffffffffffffffffffffffffffffffff167fddf252ad1be2c89b69c2b068fc378daa952ba7f163c4a11628f55a4df523b3ef60405160405180910390a4505050565b6000612ef46001600560008673ffffffffffffffffffffffffffffffffffffffff1673ffffffffffffffffffffffffffffffffffffffff168152602001908152602001600020805490506134ca90919063ffffffff16565b9050600060066000848152602001908152602001600020549050818114612fe1576000600560008673ffffffffffffffffffffffffffffffffffffffff1673ffffffffffffffffffffffffffffffffffffffff1681526020019081526020016000208381548110612f6157fe5b9060005260206000200154905080600560008773ffffffffffffffffffffffffffffffffffffffff1673ffffffffffffffffffffffffffffffffffffffff1681526020019081526020016000208381548110612fb957fe5b9060005260206000200181905550816006600083815260200190815260200160002081905550505b600560008573ffffffffffffffffffffffffffffffffffffffff1673ffffffffffffffffffffffffffffffffffffffff1681526020019081526020016000208054809190600190036130339190613922565b5050505050565b6130448282613514565b6000600c60008381526020019081526020016000208054600181600116156101000203166002900490501461309357600c60008281526020019081526020016000206000613092919061394e565b5b5050565b60006130b88473ffffffffffffffffffffffffffffffffffffffff1661354e565b6130c557600190506133cb565b600060608573ffffffffffffffffffffffffffffffffffffffff168673ffffffffffffffffffffffffffffffffffffffff1663150b7a02905060e01b6131096126f8565b898888604051602401808573ffffffffffffffffffffffffffffffffffffffff1673ffffffffffffffffffffffffffffffffffffffff1681526020018473ffffffffffffffffffffffffffffffffffffffff1673ffffffffffffffffffffffffffffffffffffffff16815260200183815260200180602001828103825283818151815260200191508051906020019080838360005b838110156131b957808201518184015260208101905061319e565b50505050905090810190601f1680156131e65780820380516001836020036101000a031916815260200191505b5095505050505050604051602081830303815290604052907bffffffffffffffffffffffffffffffffffffffffffffffffffffffff19166020820180517bffffffffffffffffffffffffffffffffffffffffffffffffffffffff83818316178352505050506040518082805190602001908083835b6020831061327e578051825260208201915060208101905060208303925061325b565b6001836020036101000a0380198251168184511680821785525050505050509050019150506000604051808303816000865af19150503d80600081146132e0576040519150601f19603f3d011682016040523d82523d6000602084013e6132e5565b606091505b509150915081613353576000815111156133025780518082602001fd5b6040517f08c379a00000000000000000000000000000000000000000000000000000000081526004018080602001828103825260328152602001806139e76032913960400191505060405180910390fd5b600081806020019051602081101561336a57600080fd5b8101908080519060200190929190505050905063150b7a0260e01b7bffffffffffffffffffffffffffffffffffffffffffffffffffffffff1916817bffffffffffffffffffffffffffffffffffffffffffffffffffffffff19161493505050505b949350505050565b6001816000016000828254019250508190555050565b600073ffffffffffffffffffffffffffffffffffffffff166002600083815260200190815260200160002060009054906101000a900473ffffffffffffffffffffffffffffffffffffffff1673ffffffffffffffffffffffffffffffffffffffff16146134a45760006002600083815260200190815260200160002060006101000a81548173ffffffffffffffffffffffffffffffffffffffff021916908373ffffffffffffffffffffffffffffffffffffffff1602179055505b50565b6134bf600182600001546134ca90919063ffffffff16565b816000018190555050565b600061350c83836040518060400160405280601e81526020017f536166654d6174683a207375627472616374696f6e206f766572666c6f770000815250613599565b905092915050565b61351e8282613659565b6135288282612e9c565b6000600660008381526020019081526020016000208190555061354a816137e8565b5050565b60008060007fc5d2460186f7233c927e7db2dcc703c0e500b653ca82273b7bfad8045d85a47060001b9050833f915080821415801561359057506000801b8214155b92505050919050565b6000838311158290613646576040517f08c379a00000000000000000000000000000000000000000000000000000000081526004018080602001828103825283818151815260200191508051906020019080838360005b8381101561360b5780820151818401526020810190506135f0565b50505050905090810190601f1680156136385780820380516001836020036101000a031916815260200191505b509250505060405180910390fd5b5060008385039050809150509392505050565b8173ffffffffffffffffffffffffffffffffffffffff1661367982611d99565b73ffffffffffffffffffffffffffffffffffffffff16146136e5576040517f08c379a0000000000000000000000000000000000000000000000000000000008152600401808060200182810382526025815260200180613bf66025913960400191505060405180910390fd5b6136ee816133e9565b613735600360008473ffffffffffffffffffffffffffffffffffffffff1673ffffffffffffffffffffffffffffffffffffffff1681526020019081526020016000206134a7565b60006001600083815260200190815260200160002060006101000a81548173ffffffffffffffffffffffffffffffffffffffff021916908373ffffffffffffffffffffffffffffffffffffffff16021790555080600073ffffffffffffffffffffffffffffffffffffffff168373ffffffffffffffffffffffffffffffffffffffff167fddf252ad1be2c89b69c2b068fc378daa952ba7f163c4a11628f55a4df523b3ef60405160405180910390a45050565b600061380360016007805490506134ca90919063ffffffff16565b905060006008600084815260200190815260200160002054905060006007838154811061382c57fe5b90600052602060002001549050806007838154811061384757fe5b906000526020600020018190555081600860008381526020019081526020016000208190555060078054809190600190036138829190613922565b506000600860008681526020019081526020016000208190555050505050565b828054600181600116156101000203166002900490600052602060002090601f016020900481019282601f106138e357803560ff1916838001178555613911565b82800160010185558215613911579182015b828111156139105782358255916020019190600101906138f5565b5b50905061391e9190613996565b5090565b815481835581811115613949578183600052602060002091820191016139489190613996565b5b505050565b50805460018160011615610100020316600290046000825580601f106139745750613993565b601f0160209004906000526020600020908101906139929190613996565b5b50565b6139b891905b808211156139b457600081600090555060010161399c565b5090565b9056fe455243373231456e756d657261626c653a206f776e657220696e646578206f7574206f6620626f756e64734552433732313a207472616e7366657220746f206e6f6e20455243373231526563656976657220696d706c656d656e7465724552433732313a207472616e7366657220746f20746865207a65726f20616464726573734552433732313a206f70657261746f7220717565727920666f72206e6f6e6578697374656e7420746f6b656e4552433732313a20617070726f76652063616c6c6572206973206e6f74206f776e6572206e6f7220617070726f76656420666f7220616c6c4552433732313a2062616c616e636520717565727920666f7220746865207a65726f20616464726573734552433732313a206f776e657220717565727920666f72206e6f6e6578697374656e7420746f6b656e4552433732313a20617070726f76656420717565727920666f72206e6f6e6578697374656e7420746f6b656e4552433732313a207472616e73666572206f6620746f6b656e2074686174206973206e6f74206f776e4552433732314d657461646174613a2055524920717565727920666f72206e6f6e6578697374656e7420746f6b656e4552433732313a20617070726f76616c20746f2063757272656e74206f776e65724552433732313a207472616e736665722063616c6c6572206973206e6f74206f776e6572206e6f7220617070726f766564455243373231456e756d657261626c653a20676c6f62616c20696e646578206f7574206f6620626f756e64734552433732313a206275726e206f6620746f6b656e2074686174206973206e6f74206f776e4552433732314275726e61626c653a2063616c6c6572206973206e6f74206f776e6572206e6f7220617070726f766564a165627a7a72305820505c6d7484d6f3c1990315775b102493d00934c246fcaf4644befcd78a36ac050029",
  "source": "pragma solidity ^0.5.0;\n\nimport \"../DefiNFTInterface.sol\";\nimport \"./AaveLendingPoolInterface.sol\";\nimport \"./aTokenInterface.sol\";\nimport \"@openzeppelin/contracts/token/ERC721/ERC721Full.sol\";\nimport \"@openzeppelin/contracts/token/ERC20/IERC20.sol\";\n\ncontract aAnimal is ERC721Full, DefiNFTInterface {\n    // mainnet\n    // address public constant DAI_ADDRESS = 0x6B175474E89094C44Da98b954EedeAC495271d0F;\n    // address public constant ADAI_ADDRESS = 0xfC1E690f61EFd961294b3e1Ce3313fBD8aa4f85d;\n    // address public constant AAVE_LENDING_POOL = 0x398eC7346DcD622eDc5ae82352F02bE94C62d119;\n    // address public constant AAVE_LENDING_POOL_CORE = 0x3dfd23A6c5E8BbcFc9581d2E864a68feb6a076d3;\n\n    // kovan\n    address public constant DAI_ADDRESS = 0xFf795577d9AC8bD7D90Ee22b6C1703490b6512FD;\n    address public constant ADAI_ADDRESS = 0x58AD4cB396411B691A9AAb6F74545b2C5217FE6a;\n    address public constant AAVE_LENDING_POOL = 0x580D4Fdc4BF8f9b5ae2fb9225D584fED4AD5375c;\n    address public constant AAVE_LENDING_POOL_CORE = 0x95D1189Ed88B380E319dF73fF00E479fcc4CFa45;\n\n    address public farm;\n\n    mapping(uint => string) public names;\n    mapping(uint => uint) public amounts;\n    \n    constructor (address _farm) public ERC721Full('aAnimal', 'AAN') { \n        farm = _farm;\n    }\n\n    function exists(uint256 tokenId) public view returns (bool) {\n        return _exists(tokenId);\n    }\n\n    function tokensOfOwner(address owner) public view returns (uint256[] memory) {\n        return _tokensOfOwner(owner);\n    }\n\n    function mintDefiNFT(address _user, uint _value, string calldata _name) external returns(bool) {\n        require(msg.sender == farm);\n        \n        uint tokenId = totalSupply();\n        \n        _mint(_user, tokenId);\n\n        require(IERC20(DAI_ADDRESS).transferFrom(farm, address(this), _value));\n        IERC20(DAI_ADDRESS).approve(AAVE_LENDING_POOL_CORE, _value);\n\n        uint tokensBefore = IERC20(ADAI_ADDRESS).balanceOf(address(this));\n\n        AaveLendingPoolInterface(AAVE_LENDING_POOL).deposit(DAI_ADDRESS, _value, 0);\n\n        uint diff = IERC20(ADAI_ADDRESS).balanceOf(address(this)) - tokensBefore;\n\n        amounts[tokenId] = diff;\n        names[tokenId] = _name;\n\n        return true;\n    }\n\n    function getName(uint _id) external view returns(string memory) {\n        return names[_id];\n    }\n\n    function burn(uint256 tokenId) public {\n        require(_isApprovedOrOwner(_msgSender(), tokenId), \"ERC721Burnable: caller is not owner nor approved\");\n\n        uint tokensBefore = IERC20(DAI_ADDRESS).balanceOf(address(this));\n        aTokenInterface(ADAI_ADDRESS).redeem(amounts[tokenId]);\n        uint diff = IERC20(DAI_ADDRESS).balanceOf(address(this)) - tokensBefore;\n\n        IERC20(DAI_ADDRESS).transfer(_msgSender(), diff);\n\n        _burn(tokenId);\n    }\n}\n",
  "sourcePath": "/Users/nikolaklipa/Decenter/defi-farm/contracts/contracts/examples/aAnimal.sol",
  "compiler": {
    "name": "solc",
    "version": "0.5.7+commit.6da8b019.Emscripten.clang"
  },
  "schemaVersion": "3.0.23",
  "updatedAt": "2020-02-29T13:10:44.748Z",
  "networkType": "ethereum",
  "devdoc": {
    "methods": {
      "approve(address,uint256)": {
        "details": "Approves another address to transfer the given token ID The zero address indicates there is no approved address. There can only be one approved address per token at a given time. Can only be called by the token owner or an approved operator.",
        "params": {
          "to": "address to be approved for the given token ID",
          "tokenId": "uint256 ID of the token to be approved"
        }
      },
      "balanceOf(address)": {
        "details": "Gets the balance of the specified address.",
        "params": {
          "owner": "address to query the balance of"
        },
        "return": "uint256 representing the amount owned by the passed address"
      },
      "baseURI()": {
        "details": "Returns the base URI set via {_setBaseURI}. This will be automatically added as a preffix in {tokenURI} to each token's URI, when they are non-empty.    * _Available since v2.5.0._"
      },
      "getApproved(uint256)": {
        "details": "Gets the approved address for a token ID, or zero if no address set Reverts if the token ID does not exist.",
        "params": {
          "tokenId": "uint256 ID of the token to query the approval of"
        },
        "return": "address currently approved for the given token ID"
      },
      "isApprovedForAll(address,address)": {
        "details": "Tells whether an operator is approved by a given owner.",
        "params": {
          "operator": "operator address which you want to query the approval of",
          "owner": "owner address which you want to query the approval of"
        },
        "return": "bool whether the given operator is approved by the given owner"
      },
      "name()": {
        "details": "Gets the token name.",
        "return": "string representing the token name"
      },
      "ownerOf(uint256)": {
        "details": "Gets the owner of the specified token ID.",
        "params": {
          "tokenId": "uint256 ID of the token to query the owner of"
        },
        "return": "address currently marked as the owner of the given token ID"
      },
      "safeTransferFrom(address,address,uint256)": {
        "details": "Safely transfers the ownership of a given token ID to another address If the target address is a contract, it must implement {IERC721Receiver-onERC721Received}, which is called upon a safe transfer, and return the magic value `bytes4(keccak256(\"onERC721Received(address,address,uint256,bytes)\"))`; otherwise, the transfer is reverted. Requires the msg.sender to be the owner, approved, or operator",
        "params": {
          "from": "current owner of the token",
          "to": "address to receive the ownership of the given token ID",
          "tokenId": "uint256 ID of the token to be transferred"
        }
      },
      "safeTransferFrom(address,address,uint256,bytes)": {
        "details": "Safely transfers the ownership of a given token ID to another address If the target address is a contract, it must implement {IERC721Receiver-onERC721Received}, which is called upon a safe transfer, and return the magic value `bytes4(keccak256(\"onERC721Received(address,address,uint256,bytes)\"))`; otherwise, the transfer is reverted. Requires the _msgSender() to be the owner, approved, or operator",
        "params": {
          "_data": "bytes data to send along with a safe transfer check",
          "from": "current owner of the token",
          "to": "address to receive the ownership of the given token ID",
          "tokenId": "uint256 ID of the token to be transferred"
        }
      },
      "setApprovalForAll(address,bool)": {
        "details": "Sets or unsets the approval of a given operator An operator is allowed to transfer all tokens of the sender on their behalf.",
        "params": {
          "approved": "representing the status of the approval to be set",
          "to": "operator address to set the approval"
        }
      },
      "supportsInterface(bytes4)": {
        "details": "See {IERC165-supportsInterface}.     * Time complexity O(1), guaranteed to always use less than 30 000 gas."
      },
      "symbol()": {
        "details": "Gets the token symbol.",
        "return": "string representing the token symbol"
      },
      "tokenByIndex(uint256)": {
        "details": "Gets the token ID at a given index of all the tokens in this contract Reverts if the index is greater or equal to the total number of tokens.",
        "params": {
          "index": "uint256 representing the index to be accessed of the tokens list"
        },
        "return": "uint256 token ID at the given index of the tokens list"
      },
      "tokenOfOwnerByIndex(address,uint256)": {
        "details": "Gets the token ID at a given index of the tokens list of the requested owner.",
        "params": {
          "index": "uint256 representing the index to be accessed of the requested tokens list",
          "owner": "address owning the tokens list to be accessed"
        },
        "return": "uint256 token ID at the given index of the tokens list owned by the requested address"
      },
      "tokenURI(uint256)": {
        "details": "Returns the URI for a given token ID. May return an empty string.     * If the token's URI is non-empty and a base URI was set (via {_setBaseURI}), it will be added to the token ID's URI as a prefix.     * Reverts if the token ID does not exist."
      },
      "totalSupply()": {
        "details": "Gets the total amount of tokens stored by the contract.",
        "return": "uint256 representing the total amount of tokens"
      },
      "transferFrom(address,address,uint256)": {
        "details": "Transfers the ownership of a given token ID to another address. Usage of this method is discouraged, use {safeTransferFrom} whenever possible. Requires the msg.sender to be the owner, approved, or operator.",
        "params": {
          "from": "current owner of the token",
          "to": "address to receive the ownership of the given token ID",
          "tokenId": "uint256 ID of the token to be transferred"
        }
      }
    }
  },
  "userdoc": {
    "methods": {}
  }
}