{
  "contractName": "AaveLendingPoolInterface",
  "abi": [
    {
      "constant": false,
      "inputs": [
        {
          "name": "_reserve",
          "type": "address"
        },
        {
          "name": "_amount",
          "type": "uint256"
        },
        {
          "name": "_referralCode",
          "type": "uint16"
        }
      ],
      "name": "deposit",
      "outputs": [],
      "payable": true,
      "stateMutability": "payable",
      "type": "function"
    },
    {
      "constant": false,
      "inputs": [
        {
          "name": "_reserve",
          "type": "address"
        },
        {
          "name": "_useAsCollateral",
          "type": "bool"
        }
      ],
      "name": "setUserUseReserveAsCollateral",
      "outputs": [],
      "payable": false,
      "stateMutability": "nonpayable",
      "type": "function"
    },
    {
      "constant": false,
      "inputs": [
        {
          "name": "_reserve",
          "type": "address"
        },
        {
          "name": "_amount",
          "type": "uint256"
        },
        {
          "name": "_interestRateMode",
          "type": "uint256"
        },
        {
          "name": "_referralCode",
          "type": "uint16"
        }
      ],
      "name": "borrow",
      "outputs": [],
      "payable": false,
      "stateMutability": "nonpayable",
      "type": "function"
    },
    {
      "constant": false,
      "inputs": [
        {
          "name": "_reserve",
          "type": "address"
        },
        {
          "name": "_amount",
          "type": "uint256"
        },
        {
          "name": "_onBehalfOf",
          "type": "address"
        }
      ],
      "name": "repay",
      "outputs": [],
      "payable": false,
      "stateMutability": "nonpayable",
      "type": "function"
    }
  ],
  "bytecode": "0x608060405234801561001057600080fd5b5061022b806100206000396000f3fe60806040526004361061003f5760003560e01c80635a3b74b9146100445780635ceae9c4146100a1578063c858f5f91461011c578063d2d0e0661461018f575b600080fd5b34801561005057600080fd5b5061009f6004803603604081101561006757600080fd5b81019080803573ffffffffffffffffffffffffffffffffffffffff1690602001909291908035151590602001909291905050506101eb565b005b3480156100ad57600080fd5b5061011a600480360360608110156100c457600080fd5b81019080803573ffffffffffffffffffffffffffffffffffffffff16906020019092919080359060200190929190803573ffffffffffffffffffffffffffffffffffffffff1690602001909291905050506101ef565b005b34801561012857600080fd5b5061018d6004803603608081101561013f57600080fd5b81019080803573ffffffffffffffffffffffffffffffffffffffff1690602001909291908035906020019092919080359060200190929190803561ffff1690602001909291905050506101f4565b005b6101e9600480360360608110156101a557600080fd5b81019080803573ffffffffffffffffffffffffffffffffffffffff16906020019092919080359060200190929190803561ffff1690602001909291905050506101fa565b005b5050565b505050565b50505050565b50505056fea165627a7a72305820119d26adcf772ec1e985e72acd59f1bfa3f9e6ad680551ead01b101cc8aedb4b0029",
  "source": "pragma solidity ^0.5.0;\n\ncontract AaveLendingPoolInterface {\n\t\n\tfunction deposit(address _reserve, uint256 _amount, uint16 _referralCode) external payable {}\n\tfunction setUserUseReserveAsCollateral(address _reserve, bool _useAsCollateral) external {}\n\tfunction borrow(address _reserve, uint256 _amount, uint256 _interestRateMode, uint16 _referralCode) external {}\n\tfunction repay( address _reserve, uint256 _amount, address payable _onBehalfOf) external {}\n}",
  "sourcePath": "/Users/nikolaklipa/Decenter/defi-farm/contracts/contracts/examples/AaveLendingPoolInterface.sol",
  "compiler": {
    "name": "solc",
    "version": "0.5.7+commit.6da8b019.Emscripten.clang"
  },
  "schemaVersion": "3.0.23",
  "updatedAt": "2020-02-29T19:29:01.612Z",
  "devdoc": {
    "methods": {}
  },
  "userdoc": {
    "methods": {}
  }
}