{
  "contractName": "AaveLendingPoolInterface",
  "abi": [
    {
      "constant": false,
      "inputs": [
        {
          "name": "_reserve",
          "type": "address"
        },
        {
          "name": "_amount",
          "type": "uint256"
        },
        {
          "name": "_referralCode",
          "type": "uint16"
        }
      ],
      "name": "deposit",
      "outputs": [],
      "payable": false,
      "stateMutability": "nonpayable",
      "type": "function"
    }
  ],
  "bytecode": "0x608060405234801561001057600080fd5b5060b78061001f6000396000f3fe6080604052348015600f57600080fd5b506004361060285760003560e01c8063d2d0e06614602d575b600080fd5b608460048036036060811015604157600080fd5b81019080803573ffffffffffffffffffffffffffffffffffffffff16906020019092919080359060200190929190803561ffff1690602001909291905050506086565b005b50505056fea165627a7a72305820bec28dfb0155225fd3f9dba6fa3c815ef4323bf31c74871b2c5a47d60b9760320029",
  "source": "pragma solidity ^0.5.0;\n\ncontract AaveLendingPoolInterface {\n\t\n\tfunction deposit(address _reserve, uint256 _amount, uint16 _referralCode) external {}\n}",
  "sourcePath": "/Users/nikolaklipa/Decenter/defi-farm/contracts/contracts/examples/AaveLendingPoolInterface.sol",
  "compiler": {
    "name": "solc",
    "version": "0.5.7+commit.6da8b019.Emscripten.clang"
  },
  "schemaVersion": "3.0.23",
  "updatedAt": "2020-02-29T11:32:04.322Z",
  "devdoc": {
    "methods": {}
  },
  "userdoc": {
    "methods": {}
  }
}