{
  "contractName": "bAnimal",
  "abi": [
    {
      "constant": true,
      "inputs": [
        {
          "name": "interfaceId",
          "type": "bytes4"
        }
      ],
      "name": "supportsInterface",
      "outputs": [
        {
          "name": "",
          "type": "bool"
        }
      ],
      "payable": false,
      "stateMutability": "view",
      "type": "function"
    },
    {
      "constant": true,
      "inputs": [],
      "name": "WETH_ADDRESS",
      "outputs": [
        {
          "name": "",
          "type": "address"
        }
      ],
      "payable": false,
      "stateMutability": "view",
      "type": "function"
    },
    {
      "constant": true,
      "inputs": [],
      "name": "kyberWrapper",
      "outputs": [
        {
          "name": "",
          "type": "address"
        }
      ],
      "payable": false,
      "stateMutability": "view",
      "type": "function"
    },
    {
      "constant": true,
      "inputs": [],
      "name": "name",
      "outputs": [
        {
          "name": "",
          "type": "string"
        }
      ],
      "payable": false,
      "stateMutability": "view",
      "type": "function"
    },
    {
      "constant": true,
      "inputs": [
        {
          "name": "tokenId",
          "type": "uint256"
        }
      ],
      "name": "getApproved",
      "outputs": [
        {
          "name": "",
          "type": "address"
        }
      ],
      "payable": false,
      "stateMutability": "view",
      "type": "function"
    },
    {
      "constant": false,
      "inputs": [
        {
          "name": "to",
          "type": "address"
        },
        {
          "name": "tokenId",
          "type": "uint256"
        }
      ],
      "name": "approve",
      "outputs": [],
      "payable": false,
      "stateMutability": "nonpayable",
      "type": "function"
    },
    {
      "constant": true,
      "inputs": [],
      "name": "totalSupply",
      "outputs": [
        {
          "name": "",
          "type": "uint256"
        }
      ],
      "payable": false,
      "stateMutability": "view",
      "type": "function"
    },
    {
      "constant": true,
      "inputs": [
        {
          "name": "",
          "type": "uint256"
        }
      ],
      "name": "debt",
      "outputs": [
        {
          "name": "",
          "type": "uint256"
        }
      ],
      "payable": false,
      "stateMutability": "view",
      "type": "function"
    },
    {
      "constant": false,
      "inputs": [
        {
          "name": "from",
          "type": "address"
        },
        {
          "name": "to",
          "type": "address"
        },
        {
          "name": "tokenId",
          "type": "uint256"
        }
      ],
      "name": "transferFrom",
      "outputs": [],
      "payable": false,
      "stateMutability": "nonpayable",
      "type": "function"
    },
    {
      "constant": true,
      "inputs": [],
      "name": "DAI_ADDRESS",
      "outputs": [
        {
          "name": "",
          "type": "address"
        }
      ],
      "payable": false,
      "stateMutability": "view",
      "type": "function"
    },
    {
      "constant": true,
      "inputs": [
        {
          "name": "owner",
          "type": "address"
        },
        {
          "name": "index",
          "type": "uint256"
        }
      ],
      "name": "tokenOfOwnerByIndex",
      "outputs": [
        {
          "name": "",
          "type": "uint256"
        }
      ],
      "payable": false,
      "stateMutability": "view",
      "type": "function"
    },
    {
      "constant": true,
      "inputs": [],
      "name": "farm",
      "outputs": [
        {
          "name": "",
          "type": "address"
        }
      ],
      "payable": false,
      "stateMutability": "view",
      "type": "function"
    },
    {
      "constant": false,
      "inputs": [
        {
          "name": "from",
          "type": "address"
        },
        {
          "name": "to",
          "type": "address"
        },
        {
          "name": "tokenId",
          "type": "uint256"
        }
      ],
      "name": "safeTransferFrom",
      "outputs": [],
      "payable": false,
      "stateMutability": "nonpayable",
      "type": "function"
    },
    {
      "constant": true,
      "inputs": [
        {
          "name": "",
          "type": "uint256"
        }
      ],
      "name": "names",
      "outputs": [
        {
          "name": "",
          "type": "string"
        }
      ],
      "payable": false,
      "stateMutability": "view",
      "type": "function"
    },
    {
      "constant": true,
      "inputs": [
        {
          "name": "index",
          "type": "uint256"
        }
      ],
      "name": "tokenByIndex",
      "outputs": [
        {
          "name": "",
          "type": "uint256"
        }
      ],
      "payable": false,
      "stateMutability": "view",
      "type": "function"
    },
    {
      "constant": true,
      "inputs": [
        {
          "name": "tokenId",
          "type": "uint256"
        }
      ],
      "name": "ownerOf",
      "outputs": [
        {
          "name": "",
          "type": "address"
        }
      ],
      "payable": false,
      "stateMutability": "view",
      "type": "function"
    },
    {
      "constant": true,
      "inputs": [],
      "name": "baseURI",
      "outputs": [
        {
          "name": "",
          "type": "string"
        }
      ],
      "payable": false,
      "stateMutability": "view",
      "type": "function"
    },
    {
      "constant": true,
      "inputs": [
        {
          "name": "owner",
          "type": "address"
        }
      ],
      "name": "balanceOf",
      "outputs": [
        {
          "name": "",
          "type": "uint256"
        }
      ],
      "payable": false,
      "stateMutability": "view",
      "type": "function"
    },
    {
      "constant": true,
      "inputs": [],
      "name": "AAVE_LENDING_POOL",
      "outputs": [
        {
          "name": "",
          "type": "address"
        }
      ],
      "payable": false,
      "stateMutability": "view",
      "type": "function"
    },
    {
      "constant": true,
      "inputs": [],
      "name": "symbol",
      "outputs": [
        {
          "name": "",
          "type": "string"
        }
      ],
      "payable": false,
      "stateMutability": "view",
      "type": "function"
    },
    {
      "constant": true,
      "inputs": [],
      "name": "LENDING_POOL_ADDRESS_PROVIDER",
      "outputs": [
        {
          "name": "",
          "type": "address"
        }
      ],
      "payable": false,
      "stateMutability": "view",
      "type": "function"
    },
    {
      "constant": false,
      "inputs": [
        {
          "name": "to",
          "type": "address"
        },
        {
          "name": "approved",
          "type": "bool"
        }
      ],
      "name": "setApprovalForAll",
      "outputs": [],
      "payable": false,
      "stateMutability": "nonpayable",
      "type": "function"
    },
    {
      "constant": true,
      "inputs": [],
      "name": "AETH_ADDRESS",
      "outputs": [
        {
          "name": "",
          "type": "address"
        }
      ],
      "payable": false,
      "stateMutability": "view",
      "type": "function"
    },
    {
      "constant": true,
      "inputs": [],
      "name": "ETH_ADDRESS",
      "outputs": [
        {
          "name": "",
          "type": "address"
        }
      ],
      "payable": false,
      "stateMutability": "view",
      "type": "function"
    },
    {
      "constant": false,
      "inputs": [
        {
          "name": "from",
          "type": "address"
        },
        {
          "name": "to",
          "type": "address"
        },
        {
          "name": "tokenId",
          "type": "uint256"
        },
        {
          "name": "_data",
          "type": "bytes"
        }
      ],
      "name": "safeTransferFrom",
      "outputs": [],
      "payable": false,
      "stateMutability": "nonpayable",
      "type": "function"
    },
    {
      "constant": true,
      "inputs": [
        {
          "name": "tokenId",
          "type": "uint256"
        }
      ],
      "name": "tokenURI",
      "outputs": [
        {
          "name": "",
          "type": "string"
        }
      ],
      "payable": false,
      "stateMutability": "view",
      "type": "function"
    },
    {
      "constant": true,
      "inputs": [
        {
          "name": "owner",
          "type": "address"
        },
        {
          "name": "operator",
          "type": "address"
        }
      ],
      "name": "isApprovedForAll",
      "outputs": [
        {
          "name": "",
          "type": "bool"
        }
      ],
      "payable": false,
      "stateMutability": "view",
      "type": "function"
    },
    {
      "constant": true,
      "inputs": [],
      "name": "AAVE_LENDING_POOL_CORE",
      "outputs": [
        {
          "name": "",
          "type": "address"
        }
      ],
      "payable": false,
      "stateMutability": "view",
      "type": "function"
    },
    {
      "constant": true,
      "inputs": [
        {
          "name": "",
          "type": "uint256"
        }
      ],
      "name": "keeper",
      "outputs": [
        {
          "name": "",
          "type": "address"
        }
      ],
      "payable": false,
      "stateMutability": "view",
      "type": "function"
    },
    {
      "inputs": [
        {
          "name": "_farm",
          "type": "address"
        },
        {
          "name": "_kyberWrapper",
          "type": "address"
        }
      ],
      "payable": false,
      "stateMutability": "nonpayable",
      "type": "constructor"
    },
    {
      "payable": true,
      "stateMutability": "payable",
      "type": "fallback"
    },
    {
      "anonymous": false,
      "inputs": [
        {
          "indexed": true,
          "name": "from",
          "type": "address"
        },
        {
          "indexed": true,
          "name": "to",
          "type": "address"
        },
        {
          "indexed": true,
          "name": "tokenId",
          "type": "uint256"
        }
      ],
      "name": "Transfer",
      "type": "event"
    },
    {
      "anonymous": false,
      "inputs": [
        {
          "indexed": true,
          "name": "owner",
          "type": "address"
        },
        {
          "indexed": true,
          "name": "approved",
          "type": "address"
        },
        {
          "indexed": true,
          "name": "tokenId",
          "type": "uint256"
        }
      ],
      "name": "Approval",
      "type": "event"
    },
    {
      "anonymous": false,
      "inputs": [
        {
          "indexed": true,
          "name": "owner",
          "type": "address"
        },
        {
          "indexed": true,
          "name": "operator",
          "type": "address"
        },
        {
          "indexed": false,
          "name": "approved",
          "type": "bool"
        }
      ],
      "name": "ApprovalForAll",
      "type": "event"
    },
    {
      "constant": true,
      "inputs": [
        {
          "name": "tokenId",
          "type": "uint256"
        }
      ],
      "name": "exists",
      "outputs": [
        {
          "name": "",
          "type": "bool"
        }
      ],
      "payable": false,
      "stateMutability": "view",
      "type": "function"
    },
    {
      "constant": true,
      "inputs": [
        {
          "name": "owner",
          "type": "address"
        }
      ],
      "name": "tokensOfOwner",
      "outputs": [
        {
          "name": "",
          "type": "uint256[]"
        }
      ],
      "payable": false,
      "stateMutability": "view",
      "type": "function"
    },
    {
      "constant": false,
      "inputs": [
        {
          "name": "_user",
          "type": "address"
        },
        {
          "name": "_value",
          "type": "uint256"
        },
        {
          "name": "_name",
          "type": "string"
        }
      ],
      "name": "mintDefiNFT",
      "outputs": [
        {
          "name": "",
          "type": "bool"
        }
      ],
      "payable": true,
      "stateMutability": "payable",
      "type": "function"
    },
    {
      "constant": true,
      "inputs": [
        {
          "name": "_id",
          "type": "uint256"
        }
      ],
      "name": "getName",
      "outputs": [
        {
          "name": "",
          "type": "string"
        }
      ],
      "payable": false,
      "stateMutability": "view",
      "type": "function"
    },
    {
      "constant": false,
      "inputs": [
        {
          "name": "_tokenId",
          "type": "uint256"
        }
      ],
      "name": "burn",
      "outputs": [],
      "payable": false,
      "stateMutability": "nonpayable",
      "type": "function"
    },
    {
      "constant": true,
      "inputs": [
        {
          "name": "_tokenId",
          "type": "uint256"
        }
      ],
      "name": "getBalance",
      "outputs": [
        {
          "name": "",
          "type": "uint256"
        }
      ],
      "payable": false,
      "stateMutability": "view",
      "type": "function"
    },
    {
      "constant": true,
      "inputs": [
        {
          "name": "_tokenId",
          "type": "uint256"
        }
      ],
      "name": "getTokenData",
      "outputs": [
        {
          "name": "",
          "type": "string"
        },
        {
          "name": "",
          "type": "uint256"
        },
        {
          "name": "",
          "type": "uint256"
        }
      ],
      "payable": false,
      "stateMutability": "view",
      "type": "function"
    }
  ],
  "bytecode": "0x608060405273506b0b2cf20faa8f38a4e2b524ee43e1f4458cc5600d60006101000a81548173ffffffffffffffffffffffffffffffffffffffff021916908373ffffffffffffffffffffffffffffffffffffffff1602179055503480156200006657600080fd5b50604051604080620059d8833981018060405260408110156200008857600080fd5b8101908080519060200190929190805190602001909291905050506040518060400160405280600781526020017f61416e696d616c000000000000000000000000000000000000000000000000008152506040518060400160405280600381526020017f41414e00000000000000000000000000000000000000000000000000000000008152508181620001296301ffc9a760e01b6200023160201b60201c565b620001416380ac58cd60e01b6200023160201b60201c565b6200015963780e9d6360e01b6200023160201b60201c565b8160099080519060200190620001719291906200033a565b5080600a90805190602001906200018a9291906200033a565b50620001a3635b5e139f60e01b6200023160201b60201c565b5050505081600e60006101000a81548173ffffffffffffffffffffffffffffffffffffffff021916908373ffffffffffffffffffffffffffffffffffffffff16021790555080600f60006101000a81548173ffffffffffffffffffffffffffffffffffffffff021916908373ffffffffffffffffffffffffffffffffffffffff1602179055505050620003e9565b63ffffffff60e01b817bffffffffffffffffffffffffffffffffffffffffffffffffffffffff19161415620002ce576040517f08c379a000000000000000000000000000000000000000000000000000000000815260040180806020018281038252601c8152602001807f4552433136353a20696e76616c696420696e746572666163652069640000000081525060200191505060405180910390fd5b6001600080837bffffffffffffffffffffffffffffffffffffffffffffffffffffffff19167bffffffffffffffffffffffffffffffffffffffffffffffffffffffff1916815260200190815260200160002060006101000a81548160ff02191690831515021790555050565b828054600181600116156101000203166002900490600052602060002090601f016020900481019282601f106200037d57805160ff1916838001178555620003ae565b82800160010185558215620003ae579182015b82811115620003ad57825182559160200191906001019062000390565b5b509050620003bd9190620003c1565b5090565b620003e691905b80821115620003e2576000816000905550600101620003c8565b5090565b90565b6155df80620003f96000396000f3fe60806040526004361061020f5760003560e01c80634f6ccce711610118578063a22cb465116100a0578063b88d4fde1161006f578063b88d4fde14610f94578063c87b56dd146110a6578063e985e9c51461115a578063f78b0cd2146111e3578063f7db6ffe1461123a5761020f565b8063a22cb46514610dc7578063a26f4f7114610e24578063a734f06e14610e7b578063b09afec114610ed25761020f565b806370a08231116100e757806370a0823114610b7e5780638462151c14610be35780638b56046b14610c8957806395d89b4114610ce057806398ab3d4914610d705761020f565b80634f6ccce7146109705780636352211e146109bf5780636b8ff57414610a3a5780636c0360eb14610aee5761020f565b80631e0104391161019b57806336e9332d1161016a57806336e9332d1461075c57806342842e0e146107b357806342966c681461082e5780634622ab03146108695780634f558e791461091d5761020f565b80631e010439146105cc57806323b872dd1461061b5780632a4c0a1a146106965780632f745c59146106ed5761020f565b8063081812fc116101e2578063081812fc146103c1578063095ea7b31461043c5780630e3a48961461049757806318160ddd146105525780631e0029c81461057d5761020f565b806301ffc9a714610211578063040141e51461028357806306efc2c3146102da57806306fdde0314610331575b005b34801561021d57600080fd5b506102696004803603602081101561023457600080fd5b8101908080357bffffffffffffffffffffffffffffffffffffffffffffffffffffffff191690602001909291905050506112b5565b604051808215151515815260200191505060405180910390f35b34801561028f57600080fd5b5061029861131c565b604051808273ffffffffffffffffffffffffffffffffffffffff1673ffffffffffffffffffffffffffffffffffffffff16815260200191505060405180910390f35b3480156102e657600080fd5b506102ef611334565b604051808273ffffffffffffffffffffffffffffffffffffffff1673ffffffffffffffffffffffffffffffffffffffff16815260200191505060405180910390f35b34801561033d57600080fd5b5061034661135a565b6040518080602001828103825283818151815260200191508051906020019080838360005b8381101561038657808201518184015260208101905061036b565b50505050905090810190601f1680156103b35780820380516001836020036101000a031916815260200191505b509250505060405180910390f35b3480156103cd57600080fd5b506103fa600480360360208110156103e457600080fd5b81019080803590602001909291905050506113fc565b604051808273ffffffffffffffffffffffffffffffffffffffff1673ffffffffffffffffffffffffffffffffffffffff16815260200191505060405180910390f35b34801561044857600080fd5b506104956004803603604081101561045f57600080fd5b81019080803573ffffffffffffffffffffffffffffffffffffffff16906020019092919080359060200190929190505050611497565b005b610538600480360360608110156104ad57600080fd5b81019080803573ffffffffffffffffffffffffffffffffffffffff16906020019092919080359060200190929190803590602001906401000000008111156104f457600080fd5b82018360208201111561050657600080fd5b8035906020019184600183028401116401000000008311171561052857600080fd5b909192939192939050505061167e565b604051808215151515815260200191505060405180910390f35b34801561055e57600080fd5b5061056761217b565b6040518082815260200191505060405180910390f35b34801561058957600080fd5b506105b6600480360360208110156105a057600080fd5b8101908080359060200190929190505050612188565b6040518082815260200191505060405180910390f35b3480156105d857600080fd5b50610605600480360360208110156105ef57600080fd5b81019080803590602001909291905050506121a0565b6040518082815260200191505060405180910390f35b34801561062757600080fd5b506106946004803603606081101561063e57600080fd5b81019080803573ffffffffffffffffffffffffffffffffffffffff169060200190929190803573ffffffffffffffffffffffffffffffffffffffff169060200190929190803590602001909291905050506122a8565b005b3480156106a257600080fd5b506106ab61231e565b604051808273ffffffffffffffffffffffffffffffffffffffff1673ffffffffffffffffffffffffffffffffffffffff16815260200191505060405180910390f35b3480156106f957600080fd5b506107466004803603604081101561071057600080fd5b81019080803573ffffffffffffffffffffffffffffffffffffffff16906020019092919080359060200190929190505050612336565b6040518082815260200191505060405180910390f35b34801561076857600080fd5b506107716123f5565b604051808273ffffffffffffffffffffffffffffffffffffffff1673ffffffffffffffffffffffffffffffffffffffff16815260200191505060405180910390f35b3480156107bf57600080fd5b5061082c600480360360608110156107d657600080fd5b81019080803573ffffffffffffffffffffffffffffffffffffffff169060200190929190803573ffffffffffffffffffffffffffffffffffffffff1690602001909291908035906020019092919050505061241b565b005b34801561083a57600080fd5b506108676004803603602081101561085157600080fd5b810190808035906020019092919050505061243b565b005b34801561087557600080fd5b506108a26004803603602081101561088c57600080fd5b8101908080359060200190929190505050612a7e565b6040518080602001828103825283818151815260200191508051906020019080838360005b838110156108e25780820151818401526020810190506108c7565b50505050905090810190601f16801561090f5780820380516001836020036101000a031916815260200191505b509250505060405180910390f35b34801561092957600080fd5b506109566004803603602081101561094057600080fd5b8101908080359060200190929190505050612b2e565b604051808215151515815260200191505060405180910390f35b34801561097c57600080fd5b506109a96004803603602081101561099357600080fd5b8101908080359060200190929190505050612b40565b6040518082815260200191505060405180910390f35b3480156109cb57600080fd5b506109f8600480360360208110156109e257600080fd5b8101908080359060200190929190505050612bc0565b604051808273ffffffffffffffffffffffffffffffffffffffff1673ffffffffffffffffffffffffffffffffffffffff16815260200191505060405180910390f35b348015610a4657600080fd5b50610a7360048036036020811015610a5d57600080fd5b8101908080359060200190929190505050612c88565b6040518080602001828103825283818151815260200191508051906020019080838360005b83811015610ab3578082015181840152602081019050610a98565b50505050905090810190601f168015610ae05780820380516001836020036101000a031916815260200191505b509250505060405180910390f35b348015610afa57600080fd5b50610b03612d3d565b6040518080602001828103825283818151815260200191508051906020019080838360005b83811015610b43578082015181840152602081019050610b28565b50505050905090810190601f168015610b705780820380516001836020036101000a031916815260200191505b509250505060405180910390f35b348015610b8a57600080fd5b50610bcd60048036036020811015610ba157600080fd5b81019080803573ffffffffffffffffffffffffffffffffffffffff169060200190929190505050612ddf565b6040518082815260200191505060405180910390f35b348015610bef57600080fd5b50610c3260048036036020811015610c0657600080fd5b81019080803573ffffffffffffffffffffffffffffffffffffffff169060200190929190505050612eb4565b6040518080602001828103825283818151815260200191508051906020019060200280838360005b83811015610c75578082015181840152602081019050610c5a565b505050509050019250505060405180910390f35b348015610c9557600080fd5b50610c9e612f15565b604051808273ffffffffffffffffffffffffffffffffffffffff1673ffffffffffffffffffffffffffffffffffffffff16815260200191505060405180910390f35b348015610cec57600080fd5b50610cf5612f2d565b6040518080602001828103825283818151815260200191508051906020019080838360005b83811015610d35578082015181840152602081019050610d1a565b50505050905090810190601f168015610d625780820380516001836020036101000a031916815260200191505b509250505060405180910390f35b348015610d7c57600080fd5b50610d85612fcf565b604051808273ffffffffffffffffffffffffffffffffffffffff1673ffffffffffffffffffffffffffffffffffffffff16815260200191505060405180910390f35b348015610dd357600080fd5b50610e2260048036036040811015610dea57600080fd5b81019080803573ffffffffffffffffffffffffffffffffffffffff169060200190929190803515159060200190929190505050612ff5565b005b348015610e3057600080fd5b50610e396131ad565b604051808273ffffffffffffffffffffffffffffffffffffffff1673ffffffffffffffffffffffffffffffffffffffff16815260200191505060405180910390f35b348015610e8757600080fd5b50610e906131c5565b604051808273ffffffffffffffffffffffffffffffffffffffff1673ffffffffffffffffffffffffffffffffffffffff16815260200191505060405180910390f35b348015610ede57600080fd5b50610f0b60048036036020811015610ef557600080fd5b81019080803590602001909291905050506131dd565b6040518080602001848152602001838152602001828103825285818151815260200191508051906020019080838360005b83811015610f57578082015181840152602081019050610f3c565b50505050905090810190601f168015610f845780820380516001836020036101000a031916815260200191505b5094505050505060405180910390f35b348015610fa057600080fd5b506110a460048036036080811015610fb757600080fd5b81019080803573ffffffffffffffffffffffffffffffffffffffff169060200190929190803573ffffffffffffffffffffffffffffffffffffffff169060200190929190803590602001909291908035906020019064010000000081111561101e57600080fd5b82018360208201111561103057600080fd5b8035906020019184600183028401116401000000008311171561105257600080fd5b91908080601f016020809104026020016040519081016040528093929190818152602001838380828437600081840152601f19601f8201169050808301925050505050505091929192905050506132bb565b005b3480156110b257600080fd5b506110df600480360360208110156110c957600080fd5b8101908080359060200190929190505050613333565b6040518080602001828103825283818151815260200191508051906020019080838360005b8381101561111f578082015181840152602081019050611104565b50505050905090810190601f16801561114c5780820380516001836020036101000a031916815260200191505b509250505060405180910390f35b34801561116657600080fd5b506111c96004803603604081101561117d57600080fd5b81019080803573ffffffffffffffffffffffffffffffffffffffff169060200190929190803573ffffffffffffffffffffffffffffffffffffffff169060200190929190505050613535565b604051808215151515815260200191505060405180910390f35b3480156111ef57600080fd5b506111f86135c9565b604051808273ffffffffffffffffffffffffffffffffffffffff1673ffffffffffffffffffffffffffffffffffffffff16815260200191505060405180910390f35b34801561124657600080fd5b506112736004803603602081101561125d57600080fd5b81019080803590602001909291905050506135e1565b604051808273ffffffffffffffffffffffffffffffffffffffff1673ffffffffffffffffffffffffffffffffffffffff16815260200191505060405180910390f35b6000806000837bffffffffffffffffffffffffffffffffffffffffffffffffffffffff19167bffffffffffffffffffffffffffffffffffffffffffffffffffffffff1916815260200190815260200160002060009054906101000a900460ff169050919050565b73d0a1e359811322d97991e03f863a0c30c2cf029c81565b600f60009054906101000a900473ffffffffffffffffffffffffffffffffffffffff1681565b606060098054600181600116156101000203166002900480601f0160208091040260200160405190810160405280929190818152602001828054600181600116156101000203166002900480156113f25780601f106113c7576101008083540402835291602001916113f2565b820191906000526020600020905b8154815290600101906020018083116113d557829003601f168201915b5050505050905090565b600061140782613614565b61145c576040517f08c379a000000000000000000000000000000000000000000000000000000000815260040180806020018281038252602c81526020018061545d602c913960400191505060405180910390fd5b6002600083815260200190815260200160002060009054906101000a900473ffffffffffffffffffffffffffffffffffffffff169050919050565b60006114a282612bc0565b90508073ffffffffffffffffffffffffffffffffffffffff168373ffffffffffffffffffffffffffffffffffffffff161415611529576040517f08c379a00000000000000000000000000000000000000000000000000000000081526004018080602001828103825260218152602001806154e16021913960400191505060405180910390fd5b8073ffffffffffffffffffffffffffffffffffffffff16611548613686565b73ffffffffffffffffffffffffffffffffffffffff161480611577575061157681611571613686565b613535565b5b6115cc576040517f08c379a00000000000000000000000000000000000000000000000000000000081526004018080602001828103825260388152602001806153d26038913960400191505060405180910390fd5b826002600084815260200190815260200160002060006101000a81548173ffffffffffffffffffffffffffffffffffffffff021916908373ffffffffffffffffffffffffffffffffffffffff160217905550818373ffffffffffffffffffffffffffffffffffffffff168273ffffffffffffffffffffffffffffffffffffffff167f8c5be1e5ebec7d5bd14f71427d1e84f3dd0314c0f7b2291e5b200ac8c7c3b92560405160405180910390a4505050565b6000600e60009054906101000a900473ffffffffffffffffffffffffffffffffffffffff1673ffffffffffffffffffffffffffffffffffffffff163373ffffffffffffffffffffffffffffffffffffffff16146116da57600080fd5b833410156116e757600080fd5b60006116f161217b565b90506116fd868261368e565b600073d483b49f2d55d2c53d32be6eff735cb001880f7973ffffffffffffffffffffffffffffffffffffffff166370a08231306040518263ffffffff1660e01b8152600401808273ffffffffffffffffffffffffffffffffffffffff1673ffffffffffffffffffffffffffffffffffffffff16815260200191505060206040518083038186803b15801561179057600080fd5b505afa1580156117a4573d6000803e3d6000fd5b505050506040513d60208110156117ba57600080fd5b810190808051906020019092919050505090506000734f96fe3b7a6cf9725f59d353f723c1bdb64ca6aa905073580d4fdc4bf8f9b5ae2fb9225d584fed4ad5375c73ffffffffffffffffffffffffffffffffffffffff1663d2d0e0663073ffffffffffffffffffffffffffffffffffffffff163173eeeeeeeeeeeeeeeeeeeeeeeeeeeeeeeeeeeeeeee3073ffffffffffffffffffffffffffffffffffffffff163160006040518563ffffffff1660e01b8152600401808473ffffffffffffffffffffffffffffffffffffffff1673ffffffffffffffffffffffffffffffffffffffff1681526020018381526020018261ffff16815260200193505050506000604051808303818588803b1580156118d057600080fd5b505af11580156118e4573d6000803e3d6000fd5b505050505060006040516118f790614830565b604051809103906000f080158015611913573d6000803e3d6000fd5b50905073d483b49f2d55d2c53d32be6eff735cb001880f7973ffffffffffffffffffffffffffffffffffffffff1663a9059cbb8273d483b49f2d55d2c53d32be6eff735cb001880f7973ffffffffffffffffffffffffffffffffffffffff166370a08231306040518263ffffffff1660e01b8152600401808273ffffffffffffffffffffffffffffffffffffffff1673ffffffffffffffffffffffffffffffffffffffff16815260200191505060206040518083038186803b1580156119d857600080fd5b505afa1580156119ec573d6000803e3d6000fd5b505050506040513d6020811015611a0257600080fd5b81019080805190602001909291905050506040518363ffffffff1660e01b8152600401808373ffffffffffffffffffffffffffffffffffffffff1673ffffffffffffffffffffffffffffffffffffffff16815260200182815260200192505050602060405180830381600087803b158015611a7c57600080fd5b505af1158015611a90573d6000803e3d6000fd5b505050506040513d6020811015611aa657600080fd5b81019080805190602001909291905050505060006064605a600f60009054906101000a900473ffffffffffffffffffffffffffffffffffffffff1673ffffffffffffffffffffffffffffffffffffffff166397a278898673eeeeeeeeeeeeeeeeeeeeeeeeeeeeeeeeeeeeeeee60028f81611b1c57fe5b046040518463ffffffff1660e01b8152600401808473ffffffffffffffffffffffffffffffffffffffff1673ffffffffffffffffffffffffffffffffffffffff1681526020018373ffffffffffffffffffffffffffffffffffffffff1673ffffffffffffffffffffffffffffffffffffffff168152602001828152602001935050505060206040518083038186803b158015611bb757600080fd5b505afa158015611bcb573d6000803e3d6000fd5b505050506040513d6020811015611be157600080fd5b81019080805190602001909291905050500281611bfa57fe5b0490508173ffffffffffffffffffffffffffffffffffffffff1663c5ebeaec826040518263ffffffff1660e01b815260040180828152602001915050600060405180830381600087803b158015611c5057600080fd5b505af1158015611c64573d6000803e3d6000fd5b505050508273ffffffffffffffffffffffffffffffffffffffff1663a9059cbb600f60009054906101000a900473ffffffffffffffffffffffffffffffffffffffff16836040518363ffffffff1660e01b8152600401808373ffffffffffffffffffffffffffffffffffffffff1673ffffffffffffffffffffffffffffffffffffffff16815260200182815260200192505050602060405180830381600087803b158015611d1157600080fd5b505af1158015611d25573d6000803e3d6000fd5b505050506040513d6020811015611d3b57600080fd5b810190808051906020019092919050505050600f60009054906101000a900473ffffffffffffffffffffffffffffffffffffffff1673ffffffffffffffffffffffffffffffffffffffff166326680ef884836040518363ffffffff1660e01b8152600401808373ffffffffffffffffffffffffffffffffffffffff1673ffffffffffffffffffffffffffffffffffffffff16815260200182815260200192505050602060405180830381600087803b158015611df657600080fd5b505af1158015611e0a573d6000803e3d6000fd5b505050506040513d6020811015611e2057600080fd5b81019080805190602001909291905050505073580d4fdc4bf8f9b5ae2fb9225d584fed4ad5375c73ffffffffffffffffffffffffffffffffffffffff1663d2d0e0663073ffffffffffffffffffffffffffffffffffffffff163173eeeeeeeeeeeeeeeeeeeeeeeeeeeeeeeeeeeeeeee3073ffffffffffffffffffffffffffffffffffffffff163160006040518563ffffffff1660e01b8152600401808473ffffffffffffffffffffffffffffffffffffffff1673ffffffffffffffffffffffffffffffffffffffff1681526020018381526020018261ffff16815260200193505050506000604051808303818588803b158015611f1c57600080fd5b505af1158015611f30573d6000803e3d6000fd5b505050505073d483b49f2d55d2c53d32be6eff735cb001880f7973ffffffffffffffffffffffffffffffffffffffff1663a9059cbb8373d483b49f2d55d2c53d32be6eff735cb001880f7973ffffffffffffffffffffffffffffffffffffffff166370a08231306040518263ffffffff1660e01b8152600401808273ffffffffffffffffffffffffffffffffffffffff1673ffffffffffffffffffffffffffffffffffffffff16815260200191505060206040518083038186803b158015611ff757600080fd5b505afa15801561200b573d6000803e3d6000fd5b505050506040513d602081101561202157600080fd5b81019080805190602001909291905050506040518363ffffffff1660e01b8152600401808373ffffffffffffffffffffffffffffffffffffffff1673ffffffffffffffffffffffffffffffffffffffff16815260200182815260200192505050602060405180830381600087803b15801561209b57600080fd5b505af11580156120af573d6000803e3d6000fd5b505050506040513d60208110156120c557600080fd5b8101908080519060200190929190505050506000829050806011600088815260200190815260200160002060006101000a81548173ffffffffffffffffffffffffffffffffffffffff021916908373ffffffffffffffffffffffffffffffffffffffff160217905550888860106000898152602001908152602001600020919061215092919061483d565b5081601260008881526020019081526020016000208190555060019650505050505050949350505050565b6000600780549050905090565b60126020528060005260406000206000915090505481565b600073d483b49f2d55d2c53d32be6eff735cb001880f7973ffffffffffffffffffffffffffffffffffffffff166370a082316011600085815260200190815260200160002060009054906101000a900473ffffffffffffffffffffffffffffffffffffffff166040518263ffffffff1660e01b8152600401808273ffffffffffffffffffffffffffffffffffffffff1673ffffffffffffffffffffffffffffffffffffffff16815260200191505060206040518083038186803b15801561226657600080fd5b505afa15801561227a573d6000803e3d6000fd5b505050506040513d602081101561229057600080fd5b81019080805190602001909291905050509050919050565b6122b96122b3613686565b826136af565b61230e576040517f08c379a00000000000000000000000000000000000000000000000000000000081526004018080602001828103825260318152602001806155026031913960400191505060405180910390fd5b6123198383836137a3565b505050565b73ff795577d9ac8bd7d90ee22b6c1703490b6512fd81565b600061234183612ddf565b8210612398576040517f08c379a000000000000000000000000000000000000000000000000000000000815260040180806020018281038252602b815260200180615325602b913960400191505060405180910390fd5b600560008473ffffffffffffffffffffffffffffffffffffffff1673ffffffffffffffffffffffffffffffffffffffff16815260200190815260200160002082815481106123e257fe5b9060005260206000200154905092915050565b600e60009054906101000a900473ffffffffffffffffffffffffffffffffffffffff1681565b612436838383604051806020016040528060008152506132bb565b505050565b61244c612446613686565b826136af565b6124a1576040517f08c379a00000000000000000000000000000000000000000000000000000000081526004018080602001828103825260308152602001806155846030913960400191505060405180910390fd5b60006012600083815260200190815260200160002054905073ff795577d9ac8bd7d90ee22b6c1703490b6512fd73ffffffffffffffffffffffffffffffffffffffff166323b872dd3330846040518463ffffffff1660e01b8152600401808473ffffffffffffffffffffffffffffffffffffffff1673ffffffffffffffffffffffffffffffffffffffff1681526020018373ffffffffffffffffffffffffffffffffffffffff1673ffffffffffffffffffffffffffffffffffffffff1681526020018281526020019350505050602060405180830381600087803b15801561258857600080fd5b505af115801561259c573d6000803e3d6000fd5b505050506040513d60208110156125b257600080fd5b81019080805190602001909291905050506125cc57600080fd5b73ff795577d9ac8bd7d90ee22b6c1703490b6512fd73ffffffffffffffffffffffffffffffffffffffff1663095ea7b37395d1189ed88b380e319df73ff00e479fcc4cfa45836040518363ffffffff1660e01b8152600401808373ffffffffffffffffffffffffffffffffffffffff1673ffffffffffffffffffffffffffffffffffffffff16815260200182815260200192505050602060405180830381600087803b15801561267b57600080fd5b505af115801561268f573d6000803e3d6000fd5b505050506040513d60208110156126a557600080fd5b81019080805190602001909291905050505073580d4fdc4bf8f9b5ae2fb9225d584fed4ad5375c73ffffffffffffffffffffffffffffffffffffffff16635ceae9c473ff795577d9ac8bd7d90ee22b6c1703490b6512fd836011600087815260200190815260200160002060009054906101000a900473ffffffffffffffffffffffffffffffffffffffff166040518463ffffffff1660e01b8152600401808473ffffffffffffffffffffffffffffffffffffffff1673ffffffffffffffffffffffffffffffffffffffff1681526020018381526020018273ffffffffffffffffffffffffffffffffffffffff1673ffffffffffffffffffffffffffffffffffffffff1681526020019350505050600060405180830381600087803b1580156127cd57600080fd5b505af11580156127e1573d6000803e3d6000fd5b505050506011600083815260200190815260200160002060009054906101000a900473ffffffffffffffffffffffffffffffffffffffff1673ffffffffffffffffffffffffffffffffffffffff166349df728c73d483b49f2d55d2c53d32be6eff735cb001880f796040518263ffffffff1660e01b8152600401808273ffffffffffffffffffffffffffffffffffffffff1673ffffffffffffffffffffffffffffffffffffffff168152602001915050600060405180830381600087803b1580156128ab57600080fd5b505af11580156128bf573d6000803e3d6000fd5b50505050600073d483b49f2d55d2c53d32be6eff735cb001880f7973ffffffffffffffffffffffffffffffffffffffff166370a08231306040518263ffffffff1660e01b8152600401808273ffffffffffffffffffffffffffffffffffffffff1673ffffffffffffffffffffffffffffffffffffffff16815260200191505060206040518083038186803b15801561295657600080fd5b505afa15801561296a573d6000803e3d6000fd5b505050506040513d602081101561298057600080fd5b8101908080519060200190929190505050905073d483b49f2d55d2c53d32be6eff735cb001880f7973ffffffffffffffffffffffffffffffffffffffff1663db006a75826040518263ffffffff1660e01b815260040180828152602001915050600060405180830381600087803b1580156129fa57600080fd5b505af1158015612a0e573d6000803e3d6000fd5b505050503373ffffffffffffffffffffffffffffffffffffffff166108fc3073ffffffffffffffffffffffffffffffffffffffff16319081150290604051600060405180830381858888f19350505050158015612a6f573d6000803e3d6000fd5b50612a79836137c7565b505050565b60106020528060005260406000206000915090508054600181600116156101000203166002900480601f016020809104026020016040519081016040528092919081815260200182805460018160011615610100020316600290048015612b265780601f10612afb57610100808354040283529160200191612b26565b820191906000526020600020905b815481529060010190602001808311612b0957829003601f168201915b505050505081565b6000612b3982613614565b9050919050565b6000612b4a61217b565b8210612ba1576040517f08c379a000000000000000000000000000000000000000000000000000000000815260040180806020018281038252602c815260200180615533602c913960400191505060405180910390fd5b60078281548110612bae57fe5b90600052602060002001549050919050565b6000806001600084815260200190815260200160002060009054906101000a900473ffffffffffffffffffffffffffffffffffffffff169050600073ffffffffffffffffffffffffffffffffffffffff168173ffffffffffffffffffffffffffffffffffffffff161415612c7f576040517f08c379a00000000000000000000000000000000000000000000000000000000081526004018080602001828103825260298152602001806154346029913960400191505060405180910390fd5b80915050919050565b6060601060008381526020019081526020016000208054600181600116156101000203166002900480601f016020809104026020016040519081016040528092919081815260200182805460018160011615610100020316600290048015612d315780601f10612d0657610100808354040283529160200191612d31565b820191906000526020600020905b815481529060010190602001808311612d1457829003601f168201915b50505050509050919050565b6060600b8054600181600116156101000203166002900480601f016020809104026020016040519081016040528092919081815260200182805460018160011615610100020316600290048015612dd55780601f10612daa57610100808354040283529160200191612dd5565b820191906000526020600020905b815481529060010190602001808311612db857829003601f168201915b5050505050905090565b60008073ffffffffffffffffffffffffffffffffffffffff168273ffffffffffffffffffffffffffffffffffffffff161415612e66576040517f08c379a000000000000000000000000000000000000000000000000000000000815260040180806020018281038252602a81526020018061540a602a913960400191505060405180910390fd5b612ead600360008473ffffffffffffffffffffffffffffffffffffffff1673ffffffffffffffffffffffffffffffffffffffff1681526020019081526020016000206137dc565b9050919050565b6060612ebf826137ea565b805480602002602001604051908101604052809291908181526020018280548015612f0957602002820191906000526020600020905b815481526020019060010190808311612ef5575b50505050509050919050565b73580d4fdc4bf8f9b5ae2fb9225d584fed4ad5375c81565b6060600a8054600181600116156101000203166002900480601f016020809104026020016040519081016040528092919081815260200182805460018160011615610100020316600290048015612fc55780601f10612f9a57610100808354040283529160200191612fc5565b820191906000526020600020905b815481529060010190602001808311612fa857829003601f168201915b5050505050905090565b600d60009054906101000a900473ffffffffffffffffffffffffffffffffffffffff1681565b612ffd613686565b73ffffffffffffffffffffffffffffffffffffffff168273ffffffffffffffffffffffffffffffffffffffff16141561309e576040517f08c379a00000000000000000000000000000000000000000000000000000000081526004018080602001828103825260198152602001807f4552433732313a20617070726f766520746f2063616c6c65720000000000000081525060200191505060405180910390fd5b80600460006130ab613686565b73ffffffffffffffffffffffffffffffffffffffff1673ffffffffffffffffffffffffffffffffffffffff16815260200190815260200160002060008473ffffffffffffffffffffffffffffffffffffffff1673ffffffffffffffffffffffffffffffffffffffff16815260200190815260200160002060006101000a81548160ff0219169083151502179055508173ffffffffffffffffffffffffffffffffffffffff16613158613686565b73ffffffffffffffffffffffffffffffffffffffff167f17307eab39ab6107e8899845ad3d59bd9653f200f220920489ca2b5937696c3183604051808215151515815260200191505060405180910390a35050565b73d483b49f2d55d2c53d32be6eff735cb001880f7981565b73eeeeeeeeeeeeeeeeeeeeeeeeeeeeeeeeeeeeeeee81565b6060600080601060008581526020019081526020016000206131fe856121a0565b6012600087815260200190815260200160002054828054600181600116156101000203166002900480601f0160208091040260200160405190810160405280929190818152602001828054600181600116156101000203166002900480156132a75780601f1061327c576101008083540402835291602001916132a7565b820191906000526020600020905b81548152906001019060200180831161328a57829003601f168201915b505050505092509250925092509193909250565b6132cc6132c6613686565b836136af565b613321576040517f08c379a00000000000000000000000000000000000000000000000000000000081526004018080602001828103825260318152602001806155026031913960400191505060405180910390fd5b61332d84848484613832565b50505050565b606061333e82613614565b613393576040517f08c379a000000000000000000000000000000000000000000000000000000000815260040180806020018281038252602f8152602001806154b2602f913960400191505060405180910390fd5b6060600c60008481526020019081526020016000208054600181600116156101000203166002900480601f01602080910402602001604051908101604052809291908181526020018280546001816001161561010002031660029004801561343c5780601f106134115761010080835404028352916020019161343c565b820191906000526020600020905b81548152906001019060200180831161341f57829003601f168201915b505050505090506000815114156134655760405180602001604052806000815250915050613530565b600b8160405160200180838054600181600116156101000203166002900480156134c65780601f106134a45761010080835404028352918201916134c6565b820191906000526020600020905b8154815290600101906020018083116134b2575b505082805190602001908083835b602083106134f757805182526020820191506020810190506020830392506134d4565b6001836020036101000a038019825116818451168082178552505050505050905001925050506040516020818303038152906040529150505b919050565b6000600460008473ffffffffffffffffffffffffffffffffffffffff1673ffffffffffffffffffffffffffffffffffffffff16815260200190815260200160002060008373ffffffffffffffffffffffffffffffffffffffff1673ffffffffffffffffffffffffffffffffffffffff16815260200190815260200160002060009054906101000a900460ff16905092915050565b7395d1189ed88b380e319df73ff00e479fcc4cfa4581565b60116020528060005260406000206000915054906101000a900473ffffffffffffffffffffffffffffffffffffffff1681565b6000806001600084815260200190815260200160002060009054906101000a900473ffffffffffffffffffffffffffffffffffffffff169050600073ffffffffffffffffffffffffffffffffffffffff168173ffffffffffffffffffffffffffffffffffffffff161415915050919050565b600033905090565b61369882826138a4565b6136a28282613abc565b6136ab81613b83565b5050565b60006136ba82613614565b61370f576040517f08c379a000000000000000000000000000000000000000000000000000000000815260040180806020018281038252602c8152602001806153a6602c913960400191505060405180910390fd5b600061371a83612bc0565b90508073ffffffffffffffffffffffffffffffffffffffff168473ffffffffffffffffffffffffffffffffffffffff16148061378957508373ffffffffffffffffffffffffffffffffffffffff16613771846113fc565b73ffffffffffffffffffffffffffffffffffffffff16145b8061379a57506137998185613535565b5b91505092915050565b6137ae838383613bcf565b6137b88382613e2a565b6137c28282613abc565b505050565b6137d96137d382612bc0565b82613fc8565b50565b600081600001549050919050565b6000600560008373ffffffffffffffffffffffffffffffffffffffff1673ffffffffffffffffffffffffffffffffffffffff1681526020019081526020016000209050919050565b61383d8484846137a3565b61384984848484614025565b61389e576040517f08c379a00000000000000000000000000000000000000000000000000000000081526004018080602001828103825260328152602001806153506032913960400191505060405180910390fd5b50505050565b600073ffffffffffffffffffffffffffffffffffffffff168273ffffffffffffffffffffffffffffffffffffffff161415613947576040517f08c379a00000000000000000000000000000000000000000000000000000000081526004018080602001828103825260208152602001807f4552433732313a206d696e7420746f20746865207a65726f206164647265737381525060200191505060405180910390fd5b61395081613614565b156139c3576040517f08c379a000000000000000000000000000000000000000000000000000000000815260040180806020018281038252601c8152602001807f4552433732313a20746f6b656e20616c7265616479206d696e7465640000000081525060200191505060405180910390fd5b816001600083815260200190815260200160002060006101000a81548173ffffffffffffffffffffffffffffffffffffffff021916908373ffffffffffffffffffffffffffffffffffffffff160217905550613a5c600360008473ffffffffffffffffffffffffffffffffffffffff1673ffffffffffffffffffffffffffffffffffffffff168152602001908152602001600020614361565b808273ffffffffffffffffffffffffffffffffffffffff16600073ffffffffffffffffffffffffffffffffffffffff167fddf252ad1be2c89b69c2b068fc378daa952ba7f163c4a11628f55a4df523b3ef60405160405180910390a45050565b600560008373ffffffffffffffffffffffffffffffffffffffff1673ffffffffffffffffffffffffffffffffffffffff168152602001908152602001600020805490506006600083815260200190815260200160002081905550600560008373ffffffffffffffffffffffffffffffffffffffff1673ffffffffffffffffffffffffffffffffffffffff1681526020019081526020016000208190806001815401808255809150509060018203906000526020600020016000909192909190915055505050565b6007805490506008600083815260200190815260200160002081905550600781908060018154018082558091505090600182039060005260206000200160009091929091909150555050565b8273ffffffffffffffffffffffffffffffffffffffff16613bef82612bc0565b73ffffffffffffffffffffffffffffffffffffffff1614613c5b576040517f08c379a00000000000000000000000000000000000000000000000000000000081526004018080602001828103825260298152602001806154896029913960400191505060405180910390fd5b600073ffffffffffffffffffffffffffffffffffffffff168273ffffffffffffffffffffffffffffffffffffffff161415613ce1576040517f08c379a00000000000000000000000000000000000000000000000000000000081526004018080602001828103825260248152602001806153826024913960400191505060405180910390fd5b613cea81614377565b613d31600360008573ffffffffffffffffffffffffffffffffffffffff1673ffffffffffffffffffffffffffffffffffffffff168152602001908152602001600020614435565b613d78600360008473ffffffffffffffffffffffffffffffffffffffff1673ffffffffffffffffffffffffffffffffffffffff168152602001908152602001600020614361565b816001600083815260200190815260200160002060006101000a81548173ffffffffffffffffffffffffffffffffffffffff021916908373ffffffffffffffffffffffffffffffffffffffff160217905550808273ffffffffffffffffffffffffffffffffffffffff168473ffffffffffffffffffffffffffffffffffffffff167fddf252ad1be2c89b69c2b068fc378daa952ba7f163c4a11628f55a4df523b3ef60405160405180910390a4505050565b6000613e826001600560008673ffffffffffffffffffffffffffffffffffffffff1673ffffffffffffffffffffffffffffffffffffffff1681526020019081526020016000208054905061445890919063ffffffff16565b9050600060066000848152602001908152602001600020549050818114613f6f576000600560008673ffffffffffffffffffffffffffffffffffffffff1673ffffffffffffffffffffffffffffffffffffffff1681526020019081526020016000208381548110613eef57fe5b9060005260206000200154905080600560008773ffffffffffffffffffffffffffffffffffffffff1673ffffffffffffffffffffffffffffffffffffffff1681526020019081526020016000208381548110613f4757fe5b9060005260206000200181905550816006600083815260200190815260200160002081905550505b600560008573ffffffffffffffffffffffffffffffffffffffff1673ffffffffffffffffffffffffffffffffffffffff168152602001908152602001600020805480919060019003613fc191906148bd565b5050505050565b613fd282826144a2565b6000600c60008381526020019081526020016000208054600181600116156101000203166002900490501461402157600c6000828152602001908152602001600020600061402091906148e9565b5b5050565b60006140468473ffffffffffffffffffffffffffffffffffffffff166144dc565b6140535760019050614359565b600060608573ffffffffffffffffffffffffffffffffffffffff168673ffffffffffffffffffffffffffffffffffffffff1663150b7a02905060e01b614097613686565b898888604051602401808573ffffffffffffffffffffffffffffffffffffffff1673ffffffffffffffffffffffffffffffffffffffff1681526020018473ffffffffffffffffffffffffffffffffffffffff1673ffffffffffffffffffffffffffffffffffffffff16815260200183815260200180602001828103825283818151815260200191508051906020019080838360005b8381101561414757808201518184015260208101905061412c565b50505050905090810190601f1680156141745780820380516001836020036101000a031916815260200191505b5095505050505050604051602081830303815290604052907bffffffffffffffffffffffffffffffffffffffffffffffffffffffff19166020820180517bffffffffffffffffffffffffffffffffffffffffffffffffffffffff83818316178352505050506040518082805190602001908083835b6020831061420c57805182526020820191506020810190506020830392506141e9565b6001836020036101000a0380198251168184511680821785525050505050509050019150506000604051808303816000865af19150503d806000811461426e576040519150601f19603f3d011682016040523d82523d6000602084013e614273565b606091505b5091509150816142e1576000815111156142905780518082602001fd5b6040517f08c379a00000000000000000000000000000000000000000000000000000000081526004018080602001828103825260328152602001806153506032913960400191505060405180910390fd5b60008180602001905160208110156142f857600080fd5b8101908080519060200190929190505050905063150b7a0260e01b7bffffffffffffffffffffffffffffffffffffffffffffffffffffffff1916817bffffffffffffffffffffffffffffffffffffffffffffffffffffffff19161493505050505b949350505050565b6001816000016000828254019250508190555050565b600073ffffffffffffffffffffffffffffffffffffffff166002600083815260200190815260200160002060009054906101000a900473ffffffffffffffffffffffffffffffffffffffff1673ffffffffffffffffffffffffffffffffffffffff16146144325760006002600083815260200190815260200160002060006101000a81548173ffffffffffffffffffffffffffffffffffffffff021916908373ffffffffffffffffffffffffffffffffffffffff1602179055505b50565b61444d6001826000015461445890919063ffffffff16565b816000018190555050565b600061449a83836040518060400160405280601e81526020017f536166654d6174683a207375627472616374696f6e206f766572666c6f770000815250614527565b905092915050565b6144ac82826145e7565b6144b68282613e2a565b600060066000838152602001908152602001600020819055506144d881614776565b5050565b60008060007fc5d2460186f7233c927e7db2dcc703c0e500b653ca82273b7bfad8045d85a47060001b9050833f915080821415801561451e57506000801b8214155b92505050919050565b60008383111582906145d4576040517f08c379a00000000000000000000000000000000000000000000000000000000081526004018080602001828103825283818151815260200191508051906020019080838360005b8381101561459957808201518184015260208101905061457e565b50505050905090810190601f1680156145c65780820380516001836020036101000a031916815260200191505b509250505060405180910390fd5b5060008385039050809150509392505050565b8173ffffffffffffffffffffffffffffffffffffffff1661460782612bc0565b73ffffffffffffffffffffffffffffffffffffffff1614614673576040517f08c379a000000000000000000000000000000000000000000000000000000000815260040180806020018281038252602581526020018061555f6025913960400191505060405180910390fd5b61467c81614377565b6146c3600360008473ffffffffffffffffffffffffffffffffffffffff1673ffffffffffffffffffffffffffffffffffffffff168152602001908152602001600020614435565b60006001600083815260200190815260200160002060006101000a81548173ffffffffffffffffffffffffffffffffffffffff021916908373ffffffffffffffffffffffffffffffffffffffff16021790555080600073ffffffffffffffffffffffffffffffffffffffff168373ffffffffffffffffffffffffffffffffffffffff167fddf252ad1be2c89b69c2b068fc378daa952ba7f163c4a11628f55a4df523b3ef60405160405180910390a45050565b6000614791600160078054905061445890919063ffffffff16565b90506000600860008481526020019081526020016000205490506000600783815481106147ba57fe5b9060005260206000200154905080600783815481106147d557fe5b9060005260206000200181905550816008600083815260200190815260200160002081905550600780548091906001900361481091906148bd565b506000600860008681526020019081526020016000208190555050505050565b6109ce8061495783390190565b828054600181600116156101000203166002900490600052602060002090601f016020900481019282601f1061487e57803560ff19168380011785556148ac565b828001600101855582156148ac579182015b828111156148ab578235825591602001919060010190614890565b5b5090506148b99190614931565b5090565b8154818355818111156148e4578183600052602060002091820191016148e39190614931565b5b505050565b50805460018160011615610100020316600290046000825580601f1061490f575061492e565b601f01602090049060005260206000209081019061492d9190614931565b5b50565b61495391905b8082111561494f576000816000905550600101614937565b5090565b9056fe608060405234801561001057600080fd5b50336000806101000a81548173ffffffffffffffffffffffffffffffffffffffff021916908373ffffffffffffffffffffffffffffffffffffffff16021790555061096e806100606000396000f3fe608060405234801561001057600080fd5b50600436106100935760003560e01c80638da5cb5b116100665780638da5cb5b146101ba578063a26f4f7114610204578063a734f06e1461024e578063c5ebeaec14610298578063f78b0cd2146102c657610093565b8063040141e5146100985780632a4c0a1a146100e257806349df728c1461012c5780638b56046b14610170575b600080fd5b6100a0610310565b604051808273ffffffffffffffffffffffffffffffffffffffff1673ffffffffffffffffffffffffffffffffffffffff16815260200191505060405180910390f35b6100ea610328565b604051808273ffffffffffffffffffffffffffffffffffffffff1673ffffffffffffffffffffffffffffffffffffffff16815260200191505060405180910390f35b61016e6004803603602081101561014257600080fd5b81019080803573ffffffffffffffffffffffffffffffffffffffff169060200190929190505050610340565b005b610178610516565b604051808273ffffffffffffffffffffffffffffffffffffffff1673ffffffffffffffffffffffffffffffffffffffff16815260200191505060405180910390f35b6101c261052e565b604051808273ffffffffffffffffffffffffffffffffffffffff1673ffffffffffffffffffffffffffffffffffffffff16815260200191505060405180910390f35b61020c610553565b604051808273ffffffffffffffffffffffffffffffffffffffff1673ffffffffffffffffffffffffffffffffffffffff16815260200191505060405180910390f35b61025661056b565b604051808273ffffffffffffffffffffffffffffffffffffffff1673ffffffffffffffffffffffffffffffffffffffff16815260200191505060405180910390f35b6102c4600480360360208110156102ae57600080fd5b8101908080359060200190929190505050610583565b005b6102ce61092a565b604051808273ffffffffffffffffffffffffffffffffffffffff1673ffffffffffffffffffffffffffffffffffffffff16815260200191505060405180910390f35b73d0a1e359811322d97991e03f863a0c30c2cf029c81565b73ff795577d9ac8bd7d90ee22b6c1703490b6512fd81565b6000809054906101000a900473ffffffffffffffffffffffffffffffffffffffff1673ffffffffffffffffffffffffffffffffffffffff163373ffffffffffffffffffffffffffffffffffffffff161461039957600080fd5b8073ffffffffffffffffffffffffffffffffffffffff1663a9059cbb338373ffffffffffffffffffffffffffffffffffffffff166370a08231306040518263ffffffff1660e01b8152600401808273ffffffffffffffffffffffffffffffffffffffff1673ffffffffffffffffffffffffffffffffffffffff16815260200191505060206040518083038186803b15801561043357600080fd5b505afa158015610447573d6000803e3d6000fd5b505050506040513d602081101561045d57600080fd5b81019080805190602001909291905050506040518363ffffffff1660e01b8152600401808373ffffffffffffffffffffffffffffffffffffffff1673ffffffffffffffffffffffffffffffffffffffff16815260200182815260200192505050602060405180830381600087803b1580156104d757600080fd5b505af11580156104eb573d6000803e3d6000fd5b505050506040513d602081101561050157600080fd5b81019080805190602001909291905050505050565b73580d4fdc4bf8f9b5ae2fb9225d584fed4ad5375c81565b6000809054906101000a900473ffffffffffffffffffffffffffffffffffffffff1681565b73d483b49f2d55d2c53d32be6eff735cb001880f7981565b73eeeeeeeeeeeeeeeeeeeeeeeeeeeeeeeeeeeeeeee81565b6000809054906101000a900473ffffffffffffffffffffffffffffffffffffffff1673ffffffffffffffffffffffffffffffffffffffff163373ffffffffffffffffffffffffffffffffffffffff16146105dc57600080fd5b73580d4fdc4bf8f9b5ae2fb9225d584fed4ad5375c73ffffffffffffffffffffffffffffffffffffffff16635a3b74b973eeeeeeeeeeeeeeeeeeeeeeeeeeeeeeeeeeeeeeee60016040518363ffffffff1660e01b8152600401808373ffffffffffffffffffffffffffffffffffffffff1673ffffffffffffffffffffffffffffffffffffffff1681526020018215151515815260200192505050600060405180830381600087803b15801561069057600080fd5b505af11580156106a4573d6000803e3d6000fd5b5050505073580d4fdc4bf8f9b5ae2fb9225d584fed4ad5375c73ffffffffffffffffffffffffffffffffffffffff1663c858f5f973ff795577d9ac8bd7d90ee22b6c1703490b6512fd83600160006040518563ffffffff1660e01b8152600401808573ffffffffffffffffffffffffffffffffffffffff1673ffffffffffffffffffffffffffffffffffffffff1681526020018481526020018381526020018261ffff168152602001945050505050600060405180830381600087803b15801561076d57600080fd5b505af1158015610781573d6000803e3d6000fd5b5050505073ff795577d9ac8bd7d90ee22b6c1703490b6512fd73ffffffffffffffffffffffffffffffffffffffff1663a9059cbb3373ff795577d9ac8bd7d90ee22b6c1703490b6512fd73ffffffffffffffffffffffffffffffffffffffff166370a08231306040518263ffffffff1660e01b8152600401808273ffffffffffffffffffffffffffffffffffffffff1673ffffffffffffffffffffffffffffffffffffffff16815260200191505060206040518083038186803b15801561084757600080fd5b505afa15801561085b573d6000803e3d6000fd5b505050506040513d602081101561087157600080fd5b81019080805190602001909291905050506040518363ffffffff1660e01b8152600401808373ffffffffffffffffffffffffffffffffffffffff1673ffffffffffffffffffffffffffffffffffffffff16815260200182815260200192505050602060405180830381600087803b1580156108eb57600080fd5b505af11580156108ff573d6000803e3d6000fd5b505050506040513d602081101561091557600080fd5b81019080805190602001909291905050505050565b7395d1189ed88b380e319df73ff00e479fcc4cfa458156fea165627a7a72305820e7f836ed4ec1d167b517a0cd5d3ba7acd53559544b3b212b9f22a737a02edb8c0029455243373231456e756d657261626c653a206f776e657220696e646578206f7574206f6620626f756e64734552433732313a207472616e7366657220746f206e6f6e20455243373231526563656976657220696d706c656d656e7465724552433732313a207472616e7366657220746f20746865207a65726f20616464726573734552433732313a206f70657261746f7220717565727920666f72206e6f6e6578697374656e7420746f6b656e4552433732313a20617070726f76652063616c6c6572206973206e6f74206f776e6572206e6f7220617070726f76656420666f7220616c6c4552433732313a2062616c616e636520717565727920666f7220746865207a65726f20616464726573734552433732313a206f776e657220717565727920666f72206e6f6e6578697374656e7420746f6b656e4552433732313a20617070726f76656420717565727920666f72206e6f6e6578697374656e7420746f6b656e4552433732313a207472616e73666572206f6620746f6b656e2074686174206973206e6f74206f776e4552433732314d657461646174613a2055524920717565727920666f72206e6f6e6578697374656e7420746f6b656e4552433732313a20617070726f76616c20746f2063757272656e74206f776e65724552433732313a207472616e736665722063616c6c6572206973206e6f74206f776e6572206e6f7220617070726f766564455243373231456e756d657261626c653a20676c6f62616c20696e646578206f7574206f6620626f756e64734552433732313a206275726e206f6620746f6b656e2074686174206973206e6f74206f776e4552433732314275726e61626c653a2063616c6c6572206973206e6f74206f776e6572206e6f7220617070726f766564a165627a7a72305820476e8a6129b40603e5bd3fde06249c2a665d4e79725b378c6c1347cde8f9e2e10029",
  "source": "pragma solidity ^0.5.0;\n\nimport \"../DefiNFTInterface.sol\";\nimport \"./AaveLendingPoolInterface.sol\";\nimport \"./aTokenInterface.sol\";\nimport \"@openzeppelin/contracts/token/ERC721/ERC721Full.sol\";\nimport \"@openzeppelin/contracts/token/ERC20/IERC20.sol\";\nimport \"./FundsKeeper.sol\";\nimport \"./OasisWrapper.sol\";\nimport \"./FlashLoanReceiverBase.sol\";\nimport \"./KyberWrapper.sol\";\n\ncontract ILendingPool {\n    function flashLoan( address payable _receiver, address _reserve, uint _amount, bytes calldata _params) external;\n}\n\ncontract bAnimal is ERC721Full, DefiNFTInterface {\n    // mainnet\n    // address public constant DAI_ADDRESS = 0x6B175474E89094C44Da98b954EedeAC495271d0F;\n    // address public constant AAVE_LENDING_POOL = 0x398eC7346DcD622eDc5ae82352F02bE94C62d119;\n    // address public constant AAVE_LENDING_POOL_CORE = 0x3dfd23A6c5E8BbcFc9581d2E864a68feb6a076d3;\n\n    // kovan\n    address public constant DAI_ADDRESS = 0xFf795577d9AC8bD7D90Ee22b6C1703490b6512FD;\n    address public constant ETH_ADDRESS = 0xEeeeeEeeeEeEeeEeEeEeeEEEeeeeEeeeeeeeEEeE;\n    address public constant AETH_ADDRESS =  0xD483B49F2d55D2c53D32bE6efF735cB001880F79;\n    address public constant AAVE_LENDING_POOL = 0x580D4Fdc4BF8f9b5ae2fb9225D584fED4AD5375c;\n    address public constant AAVE_LENDING_POOL_CORE = 0x95D1189Ed88B380E319dF73fF00E479fcc4CFa45;\n    address public constant WETH_ADDRESS = 0xd0A1E359811322d97991E03f863a0C30C2cF029C;\n    ILendingPoolAddressesProvider public LENDING_POOL_ADDRESS_PROVIDER = ILendingPoolAddressesProvider(0x506B0B2CF20FAA8f38a4E2B524EE43e1f4458Cc5);\n\n\n    address public farm;\n    address payable public kyberWrapper;\n\n    mapping(uint => string) public names;\n    mapping(uint => address payable) public keeper;\n    mapping(uint => uint) public debt;\n\n    constructor (address _farm, address payable _kyberWrapper) public ERC721Full('aAnimal', 'AAN') { \n        farm = _farm;\n        kyberWrapper = _kyberWrapper;\n    }\n\n    function exists(uint256 tokenId) public view returns (bool) {\n        return _exists(tokenId);\n    }\n\n    function tokensOfOwner(address owner) public view returns (uint256[] memory) {\n        return _tokensOfOwner(owner);\n    }\n\n    function mintDefiNFT(address _user, uint _value, string calldata _name) external payable returns(bool) {\n        require(msg.sender == farm);\n        require(msg.value >= _value);\n        \n        uint tokenId = totalSupply();\n        \n        _mint(_user, tokenId);\n\n        uint tokensBefore = IERC20(AETH_ADDRESS).balanceOf(address(this));\n\n        address MAKER_DAI = 0x4F96Fe3b7A6Cf9725f59d353F723c1bDb64CA6Aa;\n\n        AaveLendingPoolInterface(AAVE_LENDING_POOL).deposit.value(address(this).balance)(ETH_ADDRESS, address(this).balance, 0);\n\n        FundsKeeper fundsKeeper = new FundsKeeper();\n        IERC20(AETH_ADDRESS).transfer(address(fundsKeeper), IERC20(AETH_ADDRESS).balanceOf(address(this)));\n\n        uint daiAmountToExchange = KyberWrapper(kyberWrapper).getSellAmount(MAKER_DAI, ETH_ADDRESS, _value / 2) * 90 / 100;\n\n        fundsKeeper.borrow(daiAmountToExchange);\n\n        IERC20(MAKER_DAI).transfer(kyberWrapper, daiAmountToExchange);\n        KyberWrapper(kyberWrapper).swapTokenToEther(MAKER_DAI, daiAmountToExchange);\n\n        AaveLendingPoolInterface(AAVE_LENDING_POOL).deposit.value(address(this).balance)(ETH_ADDRESS, address(this).balance, 0);\n        IERC20(AETH_ADDRESS).transfer(address(fundsKeeper), IERC20(AETH_ADDRESS).balanceOf(address(this)));\n\n        address payable receiver = address(uint160(address(fundsKeeper)));\n        keeper[tokenId] = receiver;\n        names[tokenId] = _name;\n        debt[tokenId] = daiAmountToExchange;\n\n        return true;\n    }\n\n    function getName(uint _id) external view returns(string memory) {\n        return names[_id];\n    }\n\n    function burn(uint256 _tokenId) public {\n        require(_isApprovedOrOwner(_msgSender(), _tokenId), \"ERC721Burnable: caller is not owner nor approved\");\n\n        uint debtNeeded = debt[_tokenId];\n\n        require(IERC20(DAI_ADDRESS).transferFrom(msg.sender, address(this), debtNeeded));\n        IERC20(DAI_ADDRESS).approve(AAVE_LENDING_POOL_CORE, debtNeeded);\n\n        // Repay users debt\n        AaveLendingPoolInterface(AAVE_LENDING_POOL).repay(DAI_ADDRESS, debtNeeded, keeper[_tokenId]);\n\n        FundsKeeper(keeper[_tokenId]).withdrawTokens(AETH_ADDRESS);\n\n        uint balance = IERC20(AETH_ADDRESS).balanceOf(address(this));\n        aTokenInterface(AETH_ADDRESS).redeem(balance);\n\n        msg.sender.transfer(address(this).balance);\n\n        _burn(_tokenId);\n    }\n\n    function getBalance(uint _tokenId) public view returns(uint) {\n        return IERC20(AETH_ADDRESS).balanceOf(keeper[_tokenId]);\n    }\n\n    function getTokenData(uint _tokenId) public view returns(string memory, uint, uint) {\n        return (names[_tokenId], getBalance(_tokenId), debt[_tokenId]); \n    }\n\n    function () external payable {\n    }\n    \n}\n",
  "sourcePath": "/Users/nikolaklipa/Decenter/defi-farm/contracts/contracts/examples/bAnimal.sol",
  "compiler": {
    "name": "solc",
    "version": "0.5.7+commit.6da8b019.Emscripten.clang"
  },
  "schemaVersion": "3.0.23",
  "updatedAt": "2020-02-29T21:43:48.958Z",
  "networkType": "ethereum",
  "devdoc": {
    "methods": {
      "approve(address,uint256)": {
        "details": "Approves another address to transfer the given token ID The zero address indicates there is no approved address. There can only be one approved address per token at a given time. Can only be called by the token owner or an approved operator.",
        "params": {
          "to": "address to be approved for the given token ID",
          "tokenId": "uint256 ID of the token to be approved"
        }
      },
      "balanceOf(address)": {
        "details": "Gets the balance of the specified address.",
        "params": {
          "owner": "address to query the balance of"
        },
        "return": "uint256 representing the amount owned by the passed address"
      },
      "baseURI()": {
        "details": "Returns the base URI set via {_setBaseURI}. This will be automatically added as a preffix in {tokenURI} to each token's URI, when they are non-empty.    * _Available since v2.5.0._"
      },
      "getApproved(uint256)": {
        "details": "Gets the approved address for a token ID, or zero if no address set Reverts if the token ID does not exist.",
        "params": {
          "tokenId": "uint256 ID of the token to query the approval of"
        },
        "return": "address currently approved for the given token ID"
      },
      "isApprovedForAll(address,address)": {
        "details": "Tells whether an operator is approved by a given owner.",
        "params": {
          "operator": "operator address which you want to query the approval of",
          "owner": "owner address which you want to query the approval of"
        },
        "return": "bool whether the given operator is approved by the given owner"
      },
      "name()": {
        "details": "Gets the token name.",
        "return": "string representing the token name"
      },
      "ownerOf(uint256)": {
        "details": "Gets the owner of the specified token ID.",
        "params": {
          "tokenId": "uint256 ID of the token to query the owner of"
        },
        "return": "address currently marked as the owner of the given token ID"
      },
      "safeTransferFrom(address,address,uint256)": {
        "details": "Safely transfers the ownership of a given token ID to another address If the target address is a contract, it must implement {IERC721Receiver-onERC721Received}, which is called upon a safe transfer, and return the magic value `bytes4(keccak256(\"onERC721Received(address,address,uint256,bytes)\"))`; otherwise, the transfer is reverted. Requires the msg.sender to be the owner, approved, or operator",
        "params": {
          "from": "current owner of the token",
          "to": "address to receive the ownership of the given token ID",
          "tokenId": "uint256 ID of the token to be transferred"
        }
      },
      "safeTransferFrom(address,address,uint256,bytes)": {
        "details": "Safely transfers the ownership of a given token ID to another address If the target address is a contract, it must implement {IERC721Receiver-onERC721Received}, which is called upon a safe transfer, and return the magic value `bytes4(keccak256(\"onERC721Received(address,address,uint256,bytes)\"))`; otherwise, the transfer is reverted. Requires the _msgSender() to be the owner, approved, or operator",
        "params": {
          "_data": "bytes data to send along with a safe transfer check",
          "from": "current owner of the token",
          "to": "address to receive the ownership of the given token ID",
          "tokenId": "uint256 ID of the token to be transferred"
        }
      },
      "setApprovalForAll(address,bool)": {
        "details": "Sets or unsets the approval of a given operator An operator is allowed to transfer all tokens of the sender on their behalf.",
        "params": {
          "approved": "representing the status of the approval to be set",
          "to": "operator address to set the approval"
        }
      },
      "supportsInterface(bytes4)": {
        "details": "See {IERC165-supportsInterface}.     * Time complexity O(1), guaranteed to always use less than 30 000 gas."
      },
      "symbol()": {
        "details": "Gets the token symbol.",
        "return": "string representing the token symbol"
      },
      "tokenByIndex(uint256)": {
        "details": "Gets the token ID at a given index of all the tokens in this contract Reverts if the index is greater or equal to the total number of tokens.",
        "params": {
          "index": "uint256 representing the index to be accessed of the tokens list"
        },
        "return": "uint256 token ID at the given index of the tokens list"
      },
      "tokenOfOwnerByIndex(address,uint256)": {
        "details": "Gets the token ID at a given index of the tokens list of the requested owner.",
        "params": {
          "index": "uint256 representing the index to be accessed of the requested tokens list",
          "owner": "address owning the tokens list to be accessed"
        },
        "return": "uint256 token ID at the given index of the tokens list owned by the requested address"
      },
      "tokenURI(uint256)": {
        "details": "Returns the URI for a given token ID. May return an empty string.     * If the token's URI is non-empty and a base URI was set (via {_setBaseURI}), it will be added to the token ID's URI as a prefix.     * Reverts if the token ID does not exist."
      },
      "totalSupply()": {
        "details": "Gets the total amount of tokens stored by the contract.",
        "return": "uint256 representing the total amount of tokens"
      },
      "transferFrom(address,address,uint256)": {
        "details": "Transfers the ownership of a given token ID to another address. Usage of this method is discouraged, use {safeTransferFrom} whenever possible. Requires the msg.sender to be the owner, approved, or operator.",
        "params": {
          "from": "current owner of the token",
          "to": "address to receive the ownership of the given token ID",
          "tokenId": "uint256 ID of the token to be transferred"
        }
      }
    }
  },
  "userdoc": {
    "methods": {}
  }
}