{
  "contractName": "bAnimal",
  "abi": [
    {
      "constant": true,
      "inputs": [
        {
          "name": "interfaceId",
          "type": "bytes4"
        }
      ],
      "name": "supportsInterface",
      "outputs": [
        {
          "name": "",
          "type": "bool"
        }
      ],
      "payable": false,
      "stateMutability": "view",
      "type": "function"
    },
    {
      "constant": true,
      "inputs": [],
      "name": "WETH_ADDRESS",
      "outputs": [
        {
          "name": "",
          "type": "address"
        }
      ],
      "payable": false,
      "stateMutability": "view",
      "type": "function"
    },
    {
      "constant": true,
      "inputs": [],
      "name": "name",
      "outputs": [
        {
          "name": "",
          "type": "string"
        }
      ],
      "payable": false,
      "stateMutability": "view",
      "type": "function"
    },
    {
      "constant": true,
      "inputs": [
        {
          "name": "tokenId",
          "type": "uint256"
        }
      ],
      "name": "getApproved",
      "outputs": [
        {
          "name": "",
          "type": "address"
        }
      ],
      "payable": false,
      "stateMutability": "view",
      "type": "function"
    },
    {
      "constant": false,
      "inputs": [
        {
          "name": "to",
          "type": "address"
        },
        {
          "name": "tokenId",
          "type": "uint256"
        }
      ],
      "name": "approve",
      "outputs": [],
      "payable": false,
      "stateMutability": "nonpayable",
      "type": "function"
    },
    {
      "constant": true,
      "inputs": [],
      "name": "totalSupply",
      "outputs": [
        {
          "name": "",
          "type": "uint256"
        }
      ],
      "payable": false,
      "stateMutability": "view",
      "type": "function"
    },
    {
      "constant": true,
      "inputs": [
        {
          "name": "",
          "type": "uint256"
        }
      ],
      "name": "debt",
      "outputs": [
        {
          "name": "",
          "type": "uint256"
        }
      ],
      "payable": false,
      "stateMutability": "view",
      "type": "function"
    },
    {
      "constant": false,
      "inputs": [
        {
          "name": "from",
          "type": "address"
        },
        {
          "name": "to",
          "type": "address"
        },
        {
          "name": "tokenId",
          "type": "uint256"
        }
      ],
      "name": "transferFrom",
      "outputs": [],
      "payable": false,
      "stateMutability": "nonpayable",
      "type": "function"
    },
    {
      "constant": true,
      "inputs": [],
      "name": "DAI_ADDRESS",
      "outputs": [
        {
          "name": "",
          "type": "address"
        }
      ],
      "payable": false,
      "stateMutability": "view",
      "type": "function"
    },
    {
      "constant": true,
      "inputs": [
        {
          "name": "owner",
          "type": "address"
        },
        {
          "name": "index",
          "type": "uint256"
        }
      ],
      "name": "tokenOfOwnerByIndex",
      "outputs": [
        {
          "name": "",
          "type": "uint256"
        }
      ],
      "payable": false,
      "stateMutability": "view",
      "type": "function"
    },
    {
      "constant": true,
      "inputs": [],
      "name": "farm",
      "outputs": [
        {
          "name": "",
          "type": "address"
        }
      ],
      "payable": false,
      "stateMutability": "view",
      "type": "function"
    },
    {
      "constant": false,
      "inputs": [
        {
          "name": "from",
          "type": "address"
        },
        {
          "name": "to",
          "type": "address"
        },
        {
          "name": "tokenId",
          "type": "uint256"
        }
      ],
      "name": "safeTransferFrom",
      "outputs": [],
      "payable": false,
      "stateMutability": "nonpayable",
      "type": "function"
    },
    {
      "constant": true,
      "inputs": [
        {
          "name": "",
          "type": "uint256"
        }
      ],
      "name": "names",
      "outputs": [
        {
          "name": "",
          "type": "string"
        }
      ],
      "payable": false,
      "stateMutability": "view",
      "type": "function"
    },
    {
      "constant": true,
      "inputs": [
        {
          "name": "index",
          "type": "uint256"
        }
      ],
      "name": "tokenByIndex",
      "outputs": [
        {
          "name": "",
          "type": "uint256"
        }
      ],
      "payable": false,
      "stateMutability": "view",
      "type": "function"
    },
    {
      "constant": true,
      "inputs": [
        {
          "name": "tokenId",
          "type": "uint256"
        }
      ],
      "name": "ownerOf",
      "outputs": [
        {
          "name": "",
          "type": "address"
        }
      ],
      "payable": false,
      "stateMutability": "view",
      "type": "function"
    },
    {
      "constant": true,
      "inputs": [],
      "name": "baseURI",
      "outputs": [
        {
          "name": "",
          "type": "string"
        }
      ],
      "payable": false,
      "stateMutability": "view",
      "type": "function"
    },
    {
      "constant": true,
      "inputs": [
        {
          "name": "owner",
          "type": "address"
        }
      ],
      "name": "balanceOf",
      "outputs": [
        {
          "name": "",
          "type": "uint256"
        }
      ],
      "payable": false,
      "stateMutability": "view",
      "type": "function"
    },
    {
      "constant": true,
      "inputs": [],
      "name": "AAVE_LENDING_POOL",
      "outputs": [
        {
          "name": "",
          "type": "address"
        }
      ],
      "payable": false,
      "stateMutability": "view",
      "type": "function"
    },
    {
      "constant": true,
      "inputs": [],
      "name": "oasisWrapper",
      "outputs": [
        {
          "name": "",
          "type": "address"
        }
      ],
      "payable": false,
      "stateMutability": "view",
      "type": "function"
    },
    {
      "constant": true,
      "inputs": [],
      "name": "symbol",
      "outputs": [
        {
          "name": "",
          "type": "string"
        }
      ],
      "payable": false,
      "stateMutability": "view",
      "type": "function"
    },
    {
      "constant": true,
      "inputs": [],
      "name": "LENDING_POOL_ADDRESS_PROVIDER",
      "outputs": [
        {
          "name": "",
          "type": "address"
        }
      ],
      "payable": false,
      "stateMutability": "view",
      "type": "function"
    },
    {
      "constant": false,
      "inputs": [
        {
          "name": "to",
          "type": "address"
        },
        {
          "name": "approved",
          "type": "bool"
        }
      ],
      "name": "setApprovalForAll",
      "outputs": [],
      "payable": false,
      "stateMutability": "nonpayable",
      "type": "function"
    },
    {
      "constant": true,
      "inputs": [],
      "name": "AETH_ADDRESS",
      "outputs": [
        {
          "name": "",
          "type": "address"
        }
      ],
      "payable": false,
      "stateMutability": "view",
      "type": "function"
    },
    {
      "constant": true,
      "inputs": [],
      "name": "ETH_ADDRESS",
      "outputs": [
        {
          "name": "",
          "type": "address"
        }
      ],
      "payable": false,
      "stateMutability": "view",
      "type": "function"
    },
    {
      "constant": false,
      "inputs": [
        {
          "name": "from",
          "type": "address"
        },
        {
          "name": "to",
          "type": "address"
        },
        {
          "name": "tokenId",
          "type": "uint256"
        },
        {
          "name": "_data",
          "type": "bytes"
        }
      ],
      "name": "safeTransferFrom",
      "outputs": [],
      "payable": false,
      "stateMutability": "nonpayable",
      "type": "function"
    },
    {
      "constant": true,
      "inputs": [],
      "name": "addressesProvider",
      "outputs": [
        {
          "name": "",
          "type": "address"
        }
      ],
      "payable": false,
      "stateMutability": "view",
      "type": "function"
    },
    {
      "constant": true,
      "inputs": [
        {
          "name": "tokenId",
          "type": "uint256"
        }
      ],
      "name": "tokenURI",
      "outputs": [
        {
          "name": "",
          "type": "string"
        }
      ],
      "payable": false,
      "stateMutability": "view",
      "type": "function"
    },
    {
      "constant": true,
      "inputs": [
        {
          "name": "owner",
          "type": "address"
        },
        {
          "name": "operator",
          "type": "address"
        }
      ],
      "name": "isApprovedForAll",
      "outputs": [
        {
          "name": "",
          "type": "bool"
        }
      ],
      "payable": false,
      "stateMutability": "view",
      "type": "function"
    },
    {
      "constant": true,
      "inputs": [],
      "name": "AAVE_LENDING_POOL_CORE",
      "outputs": [
        {
          "name": "",
          "type": "address"
        }
      ],
      "payable": false,
      "stateMutability": "view",
      "type": "function"
    },
    {
      "constant": true,
      "inputs": [
        {
          "name": "",
          "type": "uint256"
        }
      ],
      "name": "keeper",
      "outputs": [
        {
          "name": "",
          "type": "address"
        }
      ],
      "payable": false,
      "stateMutability": "view",
      "type": "function"
    },
    {
      "inputs": [
        {
          "name": "_farm",
          "type": "address"
        },
        {
          "name": "_oasisWrapper",
          "type": "address"
        }
      ],
      "payable": false,
      "stateMutability": "nonpayable",
      "type": "constructor"
    },
    {
      "payable": true,
      "stateMutability": "payable",
      "type": "fallback"
    },
    {
      "anonymous": false,
      "inputs": [
        {
          "indexed": true,
          "name": "from",
          "type": "address"
        },
        {
          "indexed": true,
          "name": "to",
          "type": "address"
        },
        {
          "indexed": true,
          "name": "tokenId",
          "type": "uint256"
        }
      ],
      "name": "Transfer",
      "type": "event"
    },
    {
      "anonymous": false,
      "inputs": [
        {
          "indexed": true,
          "name": "owner",
          "type": "address"
        },
        {
          "indexed": true,
          "name": "approved",
          "type": "address"
        },
        {
          "indexed": true,
          "name": "tokenId",
          "type": "uint256"
        }
      ],
      "name": "Approval",
      "type": "event"
    },
    {
      "anonymous": false,
      "inputs": [
        {
          "indexed": true,
          "name": "owner",
          "type": "address"
        },
        {
          "indexed": true,
          "name": "operator",
          "type": "address"
        },
        {
          "indexed": false,
          "name": "approved",
          "type": "bool"
        }
      ],
      "name": "ApprovalForAll",
      "type": "event"
    },
    {
      "constant": true,
      "inputs": [
        {
          "name": "tokenId",
          "type": "uint256"
        }
      ],
      "name": "exists",
      "outputs": [
        {
          "name": "",
          "type": "bool"
        }
      ],
      "payable": false,
      "stateMutability": "view",
      "type": "function"
    },
    {
      "constant": true,
      "inputs": [
        {
          "name": "owner",
          "type": "address"
        }
      ],
      "name": "tokensOfOwner",
      "outputs": [
        {
          "name": "",
          "type": "uint256[]"
        }
      ],
      "payable": false,
      "stateMutability": "view",
      "type": "function"
    },
    {
      "constant": false,
      "inputs": [
        {
          "name": "_user",
          "type": "address"
        },
        {
          "name": "_value",
          "type": "uint256"
        },
        {
          "name": "_name",
          "type": "string"
        }
      ],
      "name": "mintDefiNFT",
      "outputs": [
        {
          "name": "",
          "type": "bool"
        }
      ],
      "payable": true,
      "stateMutability": "payable",
      "type": "function"
    },
    {
      "constant": false,
      "inputs": [
        {
          "name": "_reserve",
          "type": "address"
        },
        {
          "name": "_amount",
          "type": "uint256"
        },
        {
          "name": "_fee",
          "type": "uint256"
        },
        {
          "name": "_params",
          "type": "bytes"
        }
      ],
      "name": "executeOperation",
      "outputs": [],
      "payable": false,
      "stateMutability": "nonpayable",
      "type": "function"
    },
    {
      "constant": true,
      "inputs": [
        {
          "name": "_id",
          "type": "uint256"
        }
      ],
      "name": "getName",
      "outputs": [
        {
          "name": "",
          "type": "string"
        }
      ],
      "payable": false,
      "stateMutability": "view",
      "type": "function"
    },
    {
      "constant": false,
      "inputs": [
        {
          "name": "_tokenId",
          "type": "uint256"
        }
      ],
      "name": "burn",
      "outputs": [],
      "payable": false,
      "stateMutability": "nonpayable",
      "type": "function"
    },
    {
      "constant": true,
      "inputs": [
        {
          "name": "_tokenId",
          "type": "uint256"
        }
      ],
      "name": "getBalance",
      "outputs": [
        {
          "name": "",
          "type": "uint256"
        }
      ],
      "payable": false,
      "stateMutability": "view",
      "type": "function"
    },
    {
      "constant": true,
      "inputs": [
        {
          "name": "_tokenId",
          "type": "uint256"
        }
      ],
      "name": "getTokenData",
      "outputs": [
        {
          "name": "",
          "type": "string"
        },
        {
          "name": "",
          "type": "uint256"
        },
        {
          "name": "",
          "type": "uint256"
        }
      ],
      "payable": false,
      "stateMutability": "view",
      "type": "function"
    }
  ],
  "bytecode": "0x608060405273506b0b2cf20faa8f38a4e2b524ee43e1f4458cc5600e60006101000a81548173ffffffffffffffffffffffffffffffffffffffff021916908373ffffffffffffffffffffffffffffffffffffffff1602179055503480156200006657600080fd5b50604051604080620062e0833981018060405260408110156200008857600080fd5b810190808051906020019092919080519060200190929190505050600e60009054906101000a900473ffffffffffffffffffffffffffffffffffffffff166040518060400160405280600781526020017f61416e696d616c000000000000000000000000000000000000000000000000008152506040518060400160405280600381526020017f41414e000000000000000000000000000000000000000000000000000000000081525081816200014c6301ffc9a760e01b6200029660201b60201c565b620001646380ac58cd60e01b6200029660201b60201c565b6200017c63780e9d6360e01b6200029660201b60201c565b8160099080519060200190620001949291906200039f565b5080600a9080519060200190620001ad9291906200039f565b50620001c6635b5e139f60e01b6200029660201b60201c565b5050505080600d60006101000a81548173ffffffffffffffffffffffffffffffffffffffff021916908373ffffffffffffffffffffffffffffffffffffffff1602179055505081600f60006101000a81548173ffffffffffffffffffffffffffffffffffffffff021916908373ffffffffffffffffffffffffffffffffffffffff16021790555080601060006101000a81548173ffffffffffffffffffffffffffffffffffffffff021916908373ffffffffffffffffffffffffffffffffffffffff16021790555050506200044e565b63ffffffff60e01b817bffffffffffffffffffffffffffffffffffffffffffffffffffffffff1916141562000333576040517f08c379a000000000000000000000000000000000000000000000000000000000815260040180806020018281038252601c8152602001807f4552433136353a20696e76616c696420696e746572666163652069640000000081525060200191505060405180910390fd5b6001600080837bffffffffffffffffffffffffffffffffffffffffffffffffffffffff19167bffffffffffffffffffffffffffffffffffffffffffffffffffffffff1916815260200190815260200160002060006101000a81548160ff02191690831515021790555050565b828054600181600116156101000203166002900490600052602060002090601f016020900481019282601f10620003e257805160ff191683800117855562000413565b8280016001018555821562000413579182015b8281111562000412578251825591602001919060010190620003f5565b5b50905062000422919062000426565b5090565b6200044b91905b80821115620004475760008160009055506001016200042d565b5090565b90565b615e82806200045e6000396000f3fe6080604052600436106102255760003560e01c80636b8ff57411610123578063a26f4f71116100ab578063c87b56dd1161006f578063c87b56dd14611113578063e985e9c5146111c7578063ee87255814611250578063f78b0cd21461130a578063f7db6ffe1461136157610225565b8063a26f4f7114610e3a578063a734f06e14610e91578063b09afec114610ee8578063b88d4fde14610faa578063c72c4d10146110bc57610225565b80638b56046b116100f25780638b56046b14610c485780639338bb6514610c9f57806395d89b4114610cf657806398ab3d4914610d86578063a22cb46514610ddd57610225565b80636b8ff574146109f95780636c0360eb14610aad57806370a0823114610b3d5780638462151c14610ba257610225565b806323b872dd116101b157806342966c681161017557806342966c68146107ed5780634622ab03146108285780634f558e79146108dc5780634f6ccce71461092f5780636352211e1461097e57610225565b806323b872dd146105da5780632a4c0a1a146106555780632f745c59146106ac57806336e9332d1461071b57806342842e0e1461077257610225565b8063095ea7b3116101f8578063095ea7b3146103fb5780630e3a48961461045657806318160ddd146105115780631e0029c81461053c5780631e0104391461058b57610225565b806301ffc9a714610227578063040141e51461029957806306fdde03146102f0578063081812fc14610380575b005b34801561023357600080fd5b5061027f6004803603602081101561024a57600080fd5b8101908080357bffffffffffffffffffffffffffffffffffffffffffffffffffffffff191690602001909291905050506113dc565b604051808215151515815260200191505060405180910390f35b3480156102a557600080fd5b506102ae611443565b604051808273ffffffffffffffffffffffffffffffffffffffff1673ffffffffffffffffffffffffffffffffffffffff16815260200191505060405180910390f35b3480156102fc57600080fd5b5061030561145b565b6040518080602001828103825283818151815260200191508051906020019080838360005b8381101561034557808201518184015260208101905061032a565b50505050905090810190601f1680156103725780820380516001836020036101000a031916815260200191505b509250505060405180910390f35b34801561038c57600080fd5b506103b9600480360360208110156103a357600080fd5b81019080803590602001909291905050506114fd565b604051808273ffffffffffffffffffffffffffffffffffffffff1673ffffffffffffffffffffffffffffffffffffffff16815260200191505060405180910390f35b34801561040757600080fd5b506104546004803603604081101561041e57600080fd5b81019080803573ffffffffffffffffffffffffffffffffffffffff16906020019092919080359060200190929190505050611598565b005b6104f76004803603606081101561046c57600080fd5b81019080803573ffffffffffffffffffffffffffffffffffffffff16906020019092919080359060200190929190803590602001906401000000008111156104b357600080fd5b8201836020820111156104c557600080fd5b803590602001918460018302840111640100000000831117156104e757600080fd5b909192939192939050505061177f565b604051808215151515815260200191505060405180910390f35b34801561051d57600080fd5b50610526611cbc565b6040518082815260200191505060405180910390f35b34801561054857600080fd5b506105756004803603602081101561055f57600080fd5b8101908080359060200190929190505050611cc9565b6040518082815260200191505060405180910390f35b34801561059757600080fd5b506105c4600480360360208110156105ae57600080fd5b8101908080359060200190929190505050611ce1565b6040518082815260200191505060405180910390f35b3480156105e657600080fd5b50610653600480360360608110156105fd57600080fd5b81019080803573ffffffffffffffffffffffffffffffffffffffff169060200190929190803573ffffffffffffffffffffffffffffffffffffffff16906020019092919080359060200190929190505050611de9565b005b34801561066157600080fd5b5061066a611e5f565b604051808273ffffffffffffffffffffffffffffffffffffffff1673ffffffffffffffffffffffffffffffffffffffff16815260200191505060405180910390f35b3480156106b857600080fd5b50610705600480360360408110156106cf57600080fd5b81019080803573ffffffffffffffffffffffffffffffffffffffff16906020019092919080359060200190929190505050611e77565b6040518082815260200191505060405180910390f35b34801561072757600080fd5b50610730611f36565b604051808273ffffffffffffffffffffffffffffffffffffffff1673ffffffffffffffffffffffffffffffffffffffff16815260200191505060405180910390f35b34801561077e57600080fd5b506107eb6004803603606081101561079557600080fd5b81019080803573ffffffffffffffffffffffffffffffffffffffff169060200190929190803573ffffffffffffffffffffffffffffffffffffffff16906020019092919080359060200190929190505050611f5c565b005b3480156107f957600080fd5b506108266004803603602081101561081057600080fd5b8101908080359060200190929190505050611f7c565b005b34801561083457600080fd5b506108616004803603602081101561084b57600080fd5b81019080803590602001909291905050506125bf565b6040518080602001828103825283818151815260200191508051906020019080838360005b838110156108a1578082015181840152602081019050610886565b50505050905090810190601f1680156108ce5780820380516001836020036101000a031916815260200191505b509250505060405180910390f35b3480156108e857600080fd5b50610915600480360360208110156108ff57600080fd5b810190808035906020019092919050505061266f565b604051808215151515815260200191505060405180910390f35b34801561093b57600080fd5b506109686004803603602081101561095257600080fd5b8101908080359060200190929190505050612681565b6040518082815260200191505060405180910390f35b34801561098a57600080fd5b506109b7600480360360208110156109a157600080fd5b8101908080359060200190929190505050612701565b604051808273ffffffffffffffffffffffffffffffffffffffff1673ffffffffffffffffffffffffffffffffffffffff16815260200191505060405180910390f35b348015610a0557600080fd5b50610a3260048036036020811015610a1c57600080fd5b81019080803590602001909291905050506127c9565b6040518080602001828103825283818151815260200191508051906020019080838360005b83811015610a72578082015181840152602081019050610a57565b50505050905090810190601f168015610a9f5780820380516001836020036101000a031916815260200191505b509250505060405180910390f35b348015610ab957600080fd5b50610ac261287e565b6040518080602001828103825283818151815260200191508051906020019080838360005b83811015610b02578082015181840152602081019050610ae7565b50505050905090810190601f168015610b2f5780820380516001836020036101000a031916815260200191505b509250505060405180910390f35b348015610b4957600080fd5b50610b8c60048036036020811015610b6057600080fd5b81019080803573ffffffffffffffffffffffffffffffffffffffff169060200190929190505050612920565b6040518082815260200191505060405180910390f35b348015610bae57600080fd5b50610bf160048036036020811015610bc557600080fd5b81019080803573ffffffffffffffffffffffffffffffffffffffff1690602001909291905050506129f5565b6040518080602001828103825283818151815260200191508051906020019060200280838360005b83811015610c34578082015181840152602081019050610c19565b505050509050019250505060405180910390f35b348015610c5457600080fd5b50610c5d612a56565b604051808273ffffffffffffffffffffffffffffffffffffffff1673ffffffffffffffffffffffffffffffffffffffff16815260200191505060405180910390f35b348015610cab57600080fd5b50610cb4612a6e565b604051808273ffffffffffffffffffffffffffffffffffffffff1673ffffffffffffffffffffffffffffffffffffffff16815260200191505060405180910390f35b348015610d0257600080fd5b50610d0b612a94565b6040518080602001828103825283818151815260200191508051906020019080838360005b83811015610d4b578082015181840152602081019050610d30565b50505050905090810190601f168015610d785780820380516001836020036101000a031916815260200191505b509250505060405180910390f35b348015610d9257600080fd5b50610d9b612b36565b604051808273ffffffffffffffffffffffffffffffffffffffff1673ffffffffffffffffffffffffffffffffffffffff16815260200191505060405180910390f35b348015610de957600080fd5b50610e3860048036036040811015610e0057600080fd5b81019080803573ffffffffffffffffffffffffffffffffffffffff169060200190929190803515159060200190929190505050612b5c565b005b348015610e4657600080fd5b50610e4f612d14565b604051808273ffffffffffffffffffffffffffffffffffffffff1673ffffffffffffffffffffffffffffffffffffffff16815260200191505060405180910390f35b348015610e9d57600080fd5b50610ea6612d2c565b604051808273ffffffffffffffffffffffffffffffffffffffff1673ffffffffffffffffffffffffffffffffffffffff16815260200191505060405180910390f35b348015610ef457600080fd5b50610f2160048036036020811015610f0b57600080fd5b8101908080359060200190929190505050612d44565b6040518080602001848152602001838152602001828103825285818151815260200191508051906020019080838360005b83811015610f6d578082015181840152602081019050610f52565b50505050905090810190601f168015610f9a5780820380516001836020036101000a031916815260200191505b5094505050505060405180910390f35b348015610fb657600080fd5b506110ba60048036036080811015610fcd57600080fd5b81019080803573ffffffffffffffffffffffffffffffffffffffff169060200190929190803573ffffffffffffffffffffffffffffffffffffffff169060200190929190803590602001909291908035906020019064010000000081111561103457600080fd5b82018360208201111561104657600080fd5b8035906020019184600183028401116401000000008311171561106857600080fd5b91908080601f016020809104026020016040519081016040528093929190818152602001838380828437600081840152601f19601f820116905080830192505050505050509192919290505050612e22565b005b3480156110c857600080fd5b506110d1612e9a565b604051808273ffffffffffffffffffffffffffffffffffffffff1673ffffffffffffffffffffffffffffffffffffffff16815260200191505060405180910390f35b34801561111f57600080fd5b5061114c6004803603602081101561113657600080fd5b8101908080359060200190929190505050612ec0565b6040518080602001828103825283818151815260200191508051906020019080838360005b8381101561118c578082015181840152602081019050611171565b50505050905090810190601f1680156111b95780820380516001836020036101000a031916815260200191505b509250505060405180910390f35b3480156111d357600080fd5b50611236600480360360408110156111ea57600080fd5b81019080803573ffffffffffffffffffffffffffffffffffffffff169060200190929190803573ffffffffffffffffffffffffffffffffffffffff1690602001909291905050506130c2565b604051808215151515815260200191505060405180910390f35b34801561125c57600080fd5b506113086004803603608081101561127357600080fd5b81019080803573ffffffffffffffffffffffffffffffffffffffff1690602001909291908035906020019092919080359060200190929190803590602001906401000000008111156112c457600080fd5b8201836020820111156112d657600080fd5b803590602001918460018302840111640100000000831117156112f857600080fd5b9091929391929390505050613156565b005b34801561131657600080fd5b5061131f6138a3565b604051808273ffffffffffffffffffffffffffffffffffffffff1673ffffffffffffffffffffffffffffffffffffffff16815260200191505060405180910390f35b34801561136d57600080fd5b5061139a6004803603602081101561138457600080fd5b81019080803590602001909291905050506138bb565b604051808273ffffffffffffffffffffffffffffffffffffffff1673ffffffffffffffffffffffffffffffffffffffff16815260200191505060405180910390f35b6000806000837bffffffffffffffffffffffffffffffffffffffffffffffffffffffff19167bffffffffffffffffffffffffffffffffffffffffffffffffffffffff1916815260200190815260200160002060009054906101000a900460ff169050919050565b73d0a1e359811322d97991e03f863a0c30c2cf029c81565b606060098054600181600116156101000203166002900480601f0160208091040260200160405190810160405280929190818152602001828054600181600116156101000203166002900480156114f35780601f106114c8576101008083540402835291602001916114f3565b820191906000526020600020905b8154815290600101906020018083116114d657829003601f168201915b5050505050905090565b6000611508826138ee565b61155d576040517f08c379a000000000000000000000000000000000000000000000000000000000815260040180806020018281038252602c815260200180615cd6602c913960400191505060405180910390fd5b6002600083815260200190815260200160002060009054906101000a900473ffffffffffffffffffffffffffffffffffffffff169050919050565b60006115a382612701565b90508073ffffffffffffffffffffffffffffffffffffffff168373ffffffffffffffffffffffffffffffffffffffff16141561162a576040517f08c379a0000000000000000000000000000000000000000000000000000000008152600401808060200182810382526021815260200180615d5a6021913960400191505060405180910390fd5b8073ffffffffffffffffffffffffffffffffffffffff16611649613960565b73ffffffffffffffffffffffffffffffffffffffff161480611678575061167781611672613960565b6130c2565b5b6116cd576040517f08c379a0000000000000000000000000000000000000000000000000000000008152600401808060200182810382526038815260200180615c4b6038913960400191505060405180910390fd5b826002600084815260200190815260200160002060006101000a81548173ffffffffffffffffffffffffffffffffffffffff021916908373ffffffffffffffffffffffffffffffffffffffff160217905550818373ffffffffffffffffffffffffffffffffffffffff168273ffffffffffffffffffffffffffffffffffffffff167f8c5be1e5ebec7d5bd14f71427d1e84f3dd0314c0f7b2291e5b200ac8c7c3b92560405160405180910390a4505050565b6000600f60009054906101000a900473ffffffffffffffffffffffffffffffffffffffff1673ffffffffffffffffffffffffffffffffffffffff163373ffffffffffffffffffffffffffffffffffffffff16146117db57600080fd5b833410156117e857600080fd5b60006117f2611cbc565b90506117fe8682613968565b600073d483b49f2d55d2c53d32be6eff735cb001880f7973ffffffffffffffffffffffffffffffffffffffff166370a08231306040518263ffffffff1660e01b8152600401808273ffffffffffffffffffffffffffffffffffffffff1673ffffffffffffffffffffffffffffffffffffffff16815260200191505060206040518083038186803b15801561189157600080fd5b505afa1580156118a5573d6000803e3d6000fd5b505050506040513d60208110156118bb57600080fd5b810190808051906020019092919050505090506000601060009054906101000a900473ffffffffffffffffffffffffffffffffffffffff1673ffffffffffffffffffffffffffffffffffffffff166397a2788973ff795577d9ac8bd7d90ee22b6c1703490b6512fd73d0a1e359811322d97991e03f863a0c30c2cf029c8a6040518463ffffffff1660e01b8152600401808473ffffffffffffffffffffffffffffffffffffffff1673ffffffffffffffffffffffffffffffffffffffff1681526020018373ffffffffffffffffffffffffffffffffffffffff1673ffffffffffffffffffffffffffffffffffffffff168152602001828152602001935050505060206040518083038186803b1580156119d357600080fd5b505afa1580156119e7573d6000803e3d6000fd5b505050506040513d60208110156119fd57600080fd5b8101908080519060200190929190505050905073580d4fdc4bf8f9b5ae2fb9225d584fed4ad5375c73ffffffffffffffffffffffffffffffffffffffff16635a3b74b973eeeeeeeeeeeeeeeeeeeeeeeeeeeeeeeeeeeeeeee60016040518363ffffffff1660e01b8152600401808373ffffffffffffffffffffffffffffffffffffffff1673ffffffffffffffffffffffffffffffffffffffff1681526020018215151515815260200192505050600060405180830381600087803b158015611ac457600080fd5b505af1158015611ad8573d6000803e3d6000fd5b505050506060838888888660405160200180868152602001858152602001806020018381526020018281038252858582818152602001925080828437600081840152601f19601f8201169050808301925050509650505050505050604051602081830303815290604052905073580d4fdc4bf8f9b5ae2fb9225d584fed4ad5375c73ffffffffffffffffffffffffffffffffffffffff16635cffe9de3073eeeeeeeeeeeeeeeeeeeeeeeeeeeeeeeeeeeeeeee8b856040518563ffffffff1660e01b8152600401808573ffffffffffffffffffffffffffffffffffffffff1673ffffffffffffffffffffffffffffffffffffffff1681526020018473ffffffffffffffffffffffffffffffffffffffff1673ffffffffffffffffffffffffffffffffffffffff16815260200183815260200180602001828103825283818151815260200191508051906020019080838360005b83811015611c45578082015181840152602081019050611c2a565b50505050905090810190601f168015611c725780820380516001836020036101000a031916815260200191505b5095505050505050600060405180830381600087803b158015611c9457600080fd5b505af1158015611ca8573d6000803e3d6000fd5b505050506001945050505050949350505050565b6000600780549050905090565b60136020528060005260406000206000915090505481565b600073d483b49f2d55d2c53d32be6eff735cb001880f7973ffffffffffffffffffffffffffffffffffffffff166370a082316012600085815260200190815260200160002060009054906101000a900473ffffffffffffffffffffffffffffffffffffffff166040518263ffffffff1660e01b8152600401808273ffffffffffffffffffffffffffffffffffffffff1673ffffffffffffffffffffffffffffffffffffffff16815260200191505060206040518083038186803b158015611da757600080fd5b505afa158015611dbb573d6000803e3d6000fd5b505050506040513d6020811015611dd157600080fd5b81019080805190602001909291905050509050919050565b611dfa611df4613960565b82613989565b611e4f576040517f08c379a0000000000000000000000000000000000000000000000000000000008152600401808060200182810382526031815260200180615d7b6031913960400191505060405180910390fd5b611e5a838383613a7d565b505050565b73ff795577d9ac8bd7d90ee22b6c1703490b6512fd81565b6000611e8283612920565b8210611ed9576040517f08c379a000000000000000000000000000000000000000000000000000000000815260040180806020018281038252602b815260200180615b9e602b913960400191505060405180910390fd5b600560008473ffffffffffffffffffffffffffffffffffffffff1673ffffffffffffffffffffffffffffffffffffffff1681526020019081526020016000208281548110611f2357fe5b9060005260206000200154905092915050565b600f60009054906101000a900473ffffffffffffffffffffffffffffffffffffffff1681565b611f7783838360405180602001604052806000815250612e22565b505050565b611f8d611f87613960565b82613989565b611fe2576040517f08c379a0000000000000000000000000000000000000000000000000000000008152600401808060200182810382526030815260200180615e276030913960400191505060405180910390fd5b60006013600083815260200190815260200160002054905073ff795577d9ac8bd7d90ee22b6c1703490b6512fd73ffffffffffffffffffffffffffffffffffffffff166323b872dd3330846040518463ffffffff1660e01b8152600401808473ffffffffffffffffffffffffffffffffffffffff1673ffffffffffffffffffffffffffffffffffffffff1681526020018373ffffffffffffffffffffffffffffffffffffffff1673ffffffffffffffffffffffffffffffffffffffff1681526020018281526020019350505050602060405180830381600087803b1580156120c957600080fd5b505af11580156120dd573d6000803e3d6000fd5b505050506040513d60208110156120f357600080fd5b810190808051906020019092919050505061210d57600080fd5b73ff795577d9ac8bd7d90ee22b6c1703490b6512fd73ffffffffffffffffffffffffffffffffffffffff1663095ea7b37395d1189ed88b380e319df73ff00e479fcc4cfa45836040518363ffffffff1660e01b8152600401808373ffffffffffffffffffffffffffffffffffffffff1673ffffffffffffffffffffffffffffffffffffffff16815260200182815260200192505050602060405180830381600087803b1580156121bc57600080fd5b505af11580156121d0573d6000803e3d6000fd5b505050506040513d60208110156121e657600080fd5b81019080805190602001909291905050505073580d4fdc4bf8f9b5ae2fb9225d584fed4ad5375c73ffffffffffffffffffffffffffffffffffffffff16635ceae9c473eeeeeeeeeeeeeeeeeeeeeeeeeeeeeeeeeeeeeeee836012600087815260200190815260200160002060009054906101000a900473ffffffffffffffffffffffffffffffffffffffff166040518463ffffffff1660e01b8152600401808473ffffffffffffffffffffffffffffffffffffffff1673ffffffffffffffffffffffffffffffffffffffff1681526020018381526020018273ffffffffffffffffffffffffffffffffffffffff1673ffffffffffffffffffffffffffffffffffffffff1681526020019350505050600060405180830381600087803b15801561230e57600080fd5b505af1158015612322573d6000803e3d6000fd5b505050506012600083815260200190815260200160002060009054906101000a900473ffffffffffffffffffffffffffffffffffffffff1673ffffffffffffffffffffffffffffffffffffffff166349df728c73d483b49f2d55d2c53d32be6eff735cb001880f796040518263ffffffff1660e01b8152600401808273ffffffffffffffffffffffffffffffffffffffff1673ffffffffffffffffffffffffffffffffffffffff168152602001915050600060405180830381600087803b1580156123ec57600080fd5b505af1158015612400573d6000803e3d6000fd5b50505050600073d483b49f2d55d2c53d32be6eff735cb001880f7973ffffffffffffffffffffffffffffffffffffffff166370a08231306040518263ffffffff1660e01b8152600401808273ffffffffffffffffffffffffffffffffffffffff1673ffffffffffffffffffffffffffffffffffffffff16815260200191505060206040518083038186803b15801561249757600080fd5b505afa1580156124ab573d6000803e3d6000fd5b505050506040513d60208110156124c157600080fd5b8101908080519060200190929190505050905073d483b49f2d55d2c53d32be6eff735cb001880f7973ffffffffffffffffffffffffffffffffffffffff1663db006a75826040518263ffffffff1660e01b815260040180828152602001915050600060405180830381600087803b15801561253b57600080fd5b505af115801561254f573d6000803e3d6000fd5b505050503373ffffffffffffffffffffffffffffffffffffffff166108fc3073ffffffffffffffffffffffffffffffffffffffff16319081150290604051600060405180830381858888f193505050501580156125b0573d6000803e3d6000fd5b506125ba83613aa1565b505050565b60116020528060005260406000206000915090508054600181600116156101000203166002900480601f0160208091040260200160405190810160405280929190818152602001828054600181600116156101000203166002900480156126675780601f1061263c57610100808354040283529160200191612667565b820191906000526020600020905b81548152906001019060200180831161264a57829003601f168201915b505050505081565b600061267a826138ee565b9050919050565b600061268b611cbc565b82106126e2576040517f08c379a000000000000000000000000000000000000000000000000000000000815260040180806020018281038252602c815260200180615dac602c913960400191505060405180910390fd5b600782815481106126ef57fe5b90600052602060002001549050919050565b6000806001600084815260200190815260200160002060009054906101000a900473ffffffffffffffffffffffffffffffffffffffff169050600073ffffffffffffffffffffffffffffffffffffffff168173ffffffffffffffffffffffffffffffffffffffff1614156127c0576040517f08c379a0000000000000000000000000000000000000000000000000000000008152600401808060200182810382526029815260200180615cad6029913960400191505060405180910390fd5b80915050919050565b6060601160008381526020019081526020016000208054600181600116156101000203166002900480601f0160208091040260200160405190810160405280929190818152602001828054600181600116156101000203166002900480156128725780601f1061284757610100808354040283529160200191612872565b820191906000526020600020905b81548152906001019060200180831161285557829003601f168201915b50505050509050919050565b6060600b8054600181600116156101000203166002900480601f0160208091040260200160405190810160405280929190818152602001828054600181600116156101000203166002900480156129165780601f106128eb57610100808354040283529160200191612916565b820191906000526020600020905b8154815290600101906020018083116128f957829003601f168201915b5050505050905090565b60008073ffffffffffffffffffffffffffffffffffffffff168273ffffffffffffffffffffffffffffffffffffffff1614156129a7576040517f08c379a000000000000000000000000000000000000000000000000000000000815260040180806020018281038252602a815260200180615c83602a913960400191505060405180910390fd5b6129ee600360008473ffffffffffffffffffffffffffffffffffffffff1673ffffffffffffffffffffffffffffffffffffffff168152602001908152602001600020613ab6565b9050919050565b6060612a0082613ac4565b805480602002602001604051908101604052809291908181526020018280548015612a4a57602002820191906000526020600020905b815481526020019060010190808311612a36575b50505050509050919050565b73580d4fdc4bf8f9b5ae2fb9225d584fed4ad5375c81565b601060009054906101000a900473ffffffffffffffffffffffffffffffffffffffff1681565b6060600a8054600181600116156101000203166002900480601f016020809104026020016040519081016040528092919081815260200182805460018160011615610100020316600290048015612b2c5780601f10612b0157610100808354040283529160200191612b2c565b820191906000526020600020905b815481529060010190602001808311612b0f57829003601f168201915b5050505050905090565b600e60009054906101000a900473ffffffffffffffffffffffffffffffffffffffff1681565b612b64613960565b73ffffffffffffffffffffffffffffffffffffffff168273ffffffffffffffffffffffffffffffffffffffff161415612c05576040517f08c379a00000000000000000000000000000000000000000000000000000000081526004018080602001828103825260198152602001807f4552433732313a20617070726f766520746f2063616c6c65720000000000000081525060200191505060405180910390fd5b8060046000612c12613960565b73ffffffffffffffffffffffffffffffffffffffff1673ffffffffffffffffffffffffffffffffffffffff16815260200190815260200160002060008473ffffffffffffffffffffffffffffffffffffffff1673ffffffffffffffffffffffffffffffffffffffff16815260200190815260200160002060006101000a81548160ff0219169083151502179055508173ffffffffffffffffffffffffffffffffffffffff16612cbf613960565b73ffffffffffffffffffffffffffffffffffffffff167f17307eab39ab6107e8899845ad3d59bd9653f200f220920489ca2b5937696c3183604051808215151515815260200191505060405180910390a35050565b73d483b49f2d55d2c53d32be6eff735cb001880f7981565b73eeeeeeeeeeeeeeeeeeeeeeeeeeeeeeeeeeeeeeee81565b606060008060116000858152602001908152602001600020612d6585611ce1565b6013600087815260200190815260200160002054828054600181600116156101000203166002900480601f016020809104026020016040519081016040528092919081815260200182805460018160011615610100020316600290048015612e0e5780601f10612de357610100808354040283529160200191612e0e565b820191906000526020600020905b815481529060010190602001808311612df157829003601f168201915b505050505092509250925092509193909250565b612e33612e2d613960565b83613989565b612e88576040517f08c379a0000000000000000000000000000000000000000000000000000000008152600401808060200182810382526031815260200180615d7b6031913960400191505060405180910390fd5b612e9484848484613b0c565b50505050565b600d60009054906101000a900473ffffffffffffffffffffffffffffffffffffffff1681565b6060612ecb826138ee565b612f20576040517f08c379a000000000000000000000000000000000000000000000000000000000815260040180806020018281038252602f815260200180615d2b602f913960400191505060405180910390fd5b6060600c60008481526020019081526020016000208054600181600116156101000203166002900480601f016020809104026020016040519081016040528092919081815260200182805460018160011615610100020316600290048015612fc95780601f10612f9e57610100808354040283529160200191612fc9565b820191906000526020600020905b815481529060010190602001808311612fac57829003601f168201915b50505050509050600081511415612ff257604051806020016040528060008152509150506130bd565b600b8160405160200180838054600181600116156101000203166002900480156130535780601f10613031576101008083540402835291820191613053565b820191906000526020600020905b81548152906001019060200180831161303f575b505082805190602001908083835b602083106130845780518252602082019150602081019050602083039250613061565b6001836020036101000a038019825116818451168082178552505050505050905001925050506040516020818303038152906040529150505b919050565b6000600460008473ffffffffffffffffffffffffffffffffffffffff1673ffffffffffffffffffffffffffffffffffffffff16815260200190815260200160002060008373ffffffffffffffffffffffffffffffffffffffff1673ffffffffffffffffffffffffffffffffffffffff16815260200190815260200160002060009054906101000a900460ff16905092915050565b6131603086613b7e565b8411156131d5576040517f08c379a00000000000000000000000000000000000000000000000000000000081526004018080602001828103825260208152602001807f496e76616c69642062616c616e636520666f722074686520636f6e747261637481525060200191505060405180910390fd5b60008060606000858560808110156131ec57600080fd5b8101908080359060200190929190803590602001909291908035906020019064010000000081111561321d57600080fd5b82018360208201111561322f57600080fd5b8035906020019184600183028401116401000000008311171561325157600080fd5b91908080601f016020809104026020016040519081016040528093929190818152602001838380828437600081840152601f19601f82011690508083019250505050505050919291929080359060200190929190505050935093509350935073ff795577d9ac8bd7d90ee22b6c1703490b6512fd73ffffffffffffffffffffffffffffffffffffffff1663a9059cbb601060009054906101000a900473ffffffffffffffffffffffffffffffffffffffff168a6040518363ffffffff1660e01b8152600401808373ffffffffffffffffffffffffffffffffffffffff1673ffffffffffffffffffffffffffffffffffffffff16815260200182815260200192505050602060405180830381600087803b15801561336d57600080fd5b505af1158015613381573d6000803e3d6000fd5b505050506040513d602081101561339757600080fd5b810190808051906020019092919050505050601060009054906101000a900473ffffffffffffffffffffffffffffffffffffffff1673ffffffffffffffffffffffffffffffffffffffff166326680ef873ff795577d9ac8bd7d90ee22b6c1703490b6512fd8a6040518363ffffffff1660e01b8152600401808373ffffffffffffffffffffffffffffffffffffffff1673ffffffffffffffffffffffffffffffffffffffff16815260200182815260200192505050602060405180830381600087803b15801561346657600080fd5b505af115801561347a573d6000803e3d6000fd5b505050506040513d602081101561349057600080fd5b81019080805190602001909291905050505073580d4fdc4bf8f9b5ae2fb9225d584fed4ad5375c73ffffffffffffffffffffffffffffffffffffffff1663d2d0e0666002850273eeeeeeeeeeeeeeeeeeeeeeeeeeeeeeeeeeeeeeee6002870260006040518563ffffffff1660e01b8152600401808473ffffffffffffffffffffffffffffffffffffffff1673ffffffffffffffffffffffffffffffffffffffff1681526020018381526020018261ffff16815260200193505050506000604051808303818588803b15801561356457600080fd5b505af1158015613578573d6000803e3d6000fd5b505050505060008173d483b49f2d55d2c53d32be6eff735cb001880f7973ffffffffffffffffffffffffffffffffffffffff166370a08231306040518263ffffffff1660e01b8152600401808273ffffffffffffffffffffffffffffffffffffffff1673ffffffffffffffffffffffffffffffffffffffff16815260200191505060206040518083038186803b15801561361157600080fd5b505afa158015613625573d6000803e3d6000fd5b505050506040513d602081101561363b57600080fd5b8101908080519060200190929190505050039050600060405161365d90615175565b604051809103906000f080158015613679573d6000803e3d6000fd5b50905073d483b49f2d55d2c53d32be6eff735cb001880f7973ffffffffffffffffffffffffffffffffffffffff1663a9059cbb82846040518363ffffffff1660e01b8152600401808373ffffffffffffffffffffffffffffffffffffffff1673ffffffffffffffffffffffffffffffffffffffff16815260200182815260200192505050602060405180830381600087803b15801561371757600080fd5b505af115801561372b573d6000803e3d6000fd5b505050506040513d602081101561374157600080fd5b8101908080519060200190929190505050508073ffffffffffffffffffffffffffffffffffffffff1663c5ebeaec6137828b8d613c9b90919063ffffffff16565b6040518263ffffffff1660e01b815260040180828152602001915050600060405180830381600087803b1580156137b857600080fd5b505af11580156137cc573d6000803e3d6000fd5b505050506000819050806012600089815260200190815260200160002060006101000a81548173ffffffffffffffffffffffffffffffffffffffff021916908373ffffffffffffffffffffffffffffffffffffffff1602179055508460116000898152602001908152602001600020908051906020019061384e929190615182565b506138628a8c613c9b90919063ffffffff16565b60136000898152602001908152602001600020819055506138958c6138908c8e613c9b90919063ffffffff16565b613d23565b505050505050505050505050565b7395d1189ed88b380e319df73ff00e479fcc4cfa4581565b60126020528060005260406000206000915054906101000a900473ffffffffffffffffffffffffffffffffffffffff1681565b6000806001600084815260200190815260200160002060009054906101000a900473ffffffffffffffffffffffffffffffffffffffff169050600073ffffffffffffffffffffffffffffffffffffffff168173ffffffffffffffffffffffffffffffffffffffff161415915050919050565b600033905090565b6139728282613dda565b61397c8282613ff2565b613985816140b9565b5050565b6000613994826138ee565b6139e9576040517f08c379a000000000000000000000000000000000000000000000000000000000815260040180806020018281038252602c815260200180615c1f602c913960400191505060405180910390fd5b60006139f483612701565b90508073ffffffffffffffffffffffffffffffffffffffff168473ffffffffffffffffffffffffffffffffffffffff161480613a6357508373ffffffffffffffffffffffffffffffffffffffff16613a4b846114fd565b73ffffffffffffffffffffffffffffffffffffffff16145b80613a745750613a7381856130c2565b5b91505092915050565b613a88838383614105565b613a928382614360565b613a9c8282613ff2565b505050565b613ab3613aad82612701565b826144fe565b50565b600081600001549050919050565b6000600560008373ffffffffffffffffffffffffffffffffffffffff1673ffffffffffffffffffffffffffffffffffffffff1681526020019081526020016000209050919050565b613b17848484613a7d565b613b238484848461455b565b613b78576040517f08c379a0000000000000000000000000000000000000000000000000000000008152600401808060200182810382526032815260200180615bc96032913960400191505060405180910390fd5b50505050565b6000613b88614897565b73ffffffffffffffffffffffffffffffffffffffff168273ffffffffffffffffffffffffffffffffffffffff161415613bda578273ffffffffffffffffffffffffffffffffffffffff16319050613c95565b8173ffffffffffffffffffffffffffffffffffffffff166370a08231846040518263ffffffff1660e01b8152600401808273ffffffffffffffffffffffffffffffffffffffff1673ffffffffffffffffffffffffffffffffffffffff16815260200191505060206040518083038186803b158015613c5757600080fd5b505afa158015613c6b573d6000803e3d6000fd5b505050506040513d6020811015613c8157600080fd5b810190808051906020019092919050505090505b92915050565b600080828401905083811015613d19576040517f08c379a000000000000000000000000000000000000000000000000000000000815260040180806020018281038252601b8152602001807f536166654d6174683a206164646974696f6e206f766572666c6f77000000000081525060200191505060405180910390fd5b8091505092915050565b6000600d60009054906101000a900473ffffffffffffffffffffffffffffffffffffffff1673ffffffffffffffffffffffffffffffffffffffff1663ed6ff7606040518163ffffffff1660e01b815260040160206040518083038186803b158015613d8d57600080fd5b505afa158015613da1573d6000803e3d6000fd5b505050506040513d6020811015613db757600080fd5b81019080805190602001909291905050509050613dd58184846148b3565b505050565b600073ffffffffffffffffffffffffffffffffffffffff168273ffffffffffffffffffffffffffffffffffffffff161415613e7d576040517f08c379a00000000000000000000000000000000000000000000000000000000081526004018080602001828103825260208152602001807f4552433732313a206d696e7420746f20746865207a65726f206164647265737381525060200191505060405180910390fd5b613e86816138ee565b15613ef9576040517f08c379a000000000000000000000000000000000000000000000000000000000815260040180806020018281038252601c8152602001807f4552433732313a20746f6b656e20616c7265616479206d696e7465640000000081525060200191505060405180910390fd5b816001600083815260200190815260200160002060006101000a81548173ffffffffffffffffffffffffffffffffffffffff021916908373ffffffffffffffffffffffffffffffffffffffff160217905550613f92600360008473ffffffffffffffffffffffffffffffffffffffff1673ffffffffffffffffffffffffffffffffffffffff16815260200190815260200160002061498a565b808273ffffffffffffffffffffffffffffffffffffffff16600073ffffffffffffffffffffffffffffffffffffffff167fddf252ad1be2c89b69c2b068fc378daa952ba7f163c4a11628f55a4df523b3ef60405160405180910390a45050565b600560008373ffffffffffffffffffffffffffffffffffffffff1673ffffffffffffffffffffffffffffffffffffffff168152602001908152602001600020805490506006600083815260200190815260200160002081905550600560008373ffffffffffffffffffffffffffffffffffffffff1673ffffffffffffffffffffffffffffffffffffffff1681526020019081526020016000208190806001815401808255809150509060018203906000526020600020016000909192909190915055505050565b6007805490506008600083815260200190815260200160002081905550600781908060018154018082558091505090600182039060005260206000200160009091929091909150555050565b8273ffffffffffffffffffffffffffffffffffffffff1661412582612701565b73ffffffffffffffffffffffffffffffffffffffff1614614191576040517f08c379a0000000000000000000000000000000000000000000000000000000008152600401808060200182810382526029815260200180615d026029913960400191505060405180910390fd5b600073ffffffffffffffffffffffffffffffffffffffff168273ffffffffffffffffffffffffffffffffffffffff161415614217576040517f08c379a0000000000000000000000000000000000000000000000000000000008152600401808060200182810382526024815260200180615bfb6024913960400191505060405180910390fd5b614220816149a0565b614267600360008573ffffffffffffffffffffffffffffffffffffffff1673ffffffffffffffffffffffffffffffffffffffff168152602001908152602001600020614a5e565b6142ae600360008473ffffffffffffffffffffffffffffffffffffffff1673ffffffffffffffffffffffffffffffffffffffff16815260200190815260200160002061498a565b816001600083815260200190815260200160002060006101000a81548173ffffffffffffffffffffffffffffffffffffffff021916908373ffffffffffffffffffffffffffffffffffffffff160217905550808273ffffffffffffffffffffffffffffffffffffffff168473ffffffffffffffffffffffffffffffffffffffff167fddf252ad1be2c89b69c2b068fc378daa952ba7f163c4a11628f55a4df523b3ef60405160405180910390a4505050565b60006143b86001600560008673ffffffffffffffffffffffffffffffffffffffff1673ffffffffffffffffffffffffffffffffffffffff16815260200190815260200160002080549050614a8190919063ffffffff16565b90506000600660008481526020019081526020016000205490508181146144a5576000600560008673ffffffffffffffffffffffffffffffffffffffff1673ffffffffffffffffffffffffffffffffffffffff168152602001908152602001600020838154811061442557fe5b9060005260206000200154905080600560008773ffffffffffffffffffffffffffffffffffffffff1673ffffffffffffffffffffffffffffffffffffffff168152602001908152602001600020838154811061447d57fe5b9060005260206000200181905550816006600083815260200190815260200160002081905550505b600560008573ffffffffffffffffffffffffffffffffffffffff1673ffffffffffffffffffffffffffffffffffffffff1681526020019081526020016000208054809190600190036144f79190615202565b5050505050565b6145088282614acb565b6000600c60008381526020019081526020016000208054600181600116156101000203166002900490501461455757600c60008281526020019081526020016000206000614556919061522e565b5b5050565b600061457c8473ffffffffffffffffffffffffffffffffffffffff16614b05565b614589576001905061488f565b600060608573ffffffffffffffffffffffffffffffffffffffff168673ffffffffffffffffffffffffffffffffffffffff1663150b7a02905060e01b6145cd613960565b898888604051602401808573ffffffffffffffffffffffffffffffffffffffff1673ffffffffffffffffffffffffffffffffffffffff1681526020018473ffffffffffffffffffffffffffffffffffffffff1673ffffffffffffffffffffffffffffffffffffffff16815260200183815260200180602001828103825283818151815260200191508051906020019080838360005b8381101561467d578082015181840152602081019050614662565b50505050905090810190601f1680156146aa5780820380516001836020036101000a031916815260200191505b5095505050505050604051602081830303815290604052907bffffffffffffffffffffffffffffffffffffffffffffffffffffffff19166020820180517bffffffffffffffffffffffffffffffffffffffffffffffffffffffff83818316178352505050506040518082805190602001908083835b60208310614742578051825260208201915060208101905060208303925061471f565b6001836020036101000a0380198251168184511680821785525050505050509050019150506000604051808303816000865af19150503d80600081146147a4576040519150601f19603f3d011682016040523d82523d6000602084013e6147a9565b606091505b509150915081614817576000815111156147c65780518082602001fd5b6040517f08c379a0000000000000000000000000000000000000000000000000000000008152600401808060200182810382526032815260200180615bc96032913960400191505060405180910390fd5b600081806020019051602081101561482e57600080fd5b8101908080519060200190929190505050905063150b7a0260e01b7bffffffffffffffffffffffffffffffffffffffffffffffffffffffff1916817bffffffffffffffffffffffffffffffffffffffffffffffffffffffff19161493505050505b949350505050565b600073eeeeeeeeeeeeeeeeeeeeeeeeeeeeeeeeeeeeeeee905090565b6148bb614897565b73ffffffffffffffffffffffffffffffffffffffff168273ffffffffffffffffffffffffffffffffffffffff161415614959578273ffffffffffffffffffffffffffffffffffffffff168160405180600001905060006040518083038185875af1925050503d806000811461494c576040519150601f19603f3d011682016040523d82523d6000602084013e614951565b606091505b505050614985565b61498483828473ffffffffffffffffffffffffffffffffffffffff16614b509092919063ffffffff16565b5b505050565b6001816000016000828254019250508190555050565b600073ffffffffffffffffffffffffffffffffffffffff166002600083815260200190815260200160002060009054906101000a900473ffffffffffffffffffffffffffffffffffffffff1673ffffffffffffffffffffffffffffffffffffffff1614614a5b5760006002600083815260200190815260200160002060006101000a81548173ffffffffffffffffffffffffffffffffffffffff021916908373ffffffffffffffffffffffffffffffffffffffff1602179055505b50565b614a7660018260000154614a8190919063ffffffff16565b816000018190555050565b6000614ac383836040518060400160405280601e81526020017f536166654d6174683a207375627472616374696f6e206f766572666c6f770000815250614c21565b905092915050565b614ad58282614ce1565b614adf8282614360565b60006006600083815260200190815260200160002081905550614b0181614e70565b5050565b60008060007fc5d2460186f7233c927e7db2dcc703c0e500b653ca82273b7bfad8045d85a47060001b9050833f9150808214158015614b4757506000801b8214155b92505050919050565b614c1c838473ffffffffffffffffffffffffffffffffffffffff1663a9059cbb905060e01b8484604051602401808373ffffffffffffffffffffffffffffffffffffffff1673ffffffffffffffffffffffffffffffffffffffff16815260200182815260200192505050604051602081830303815290604052907bffffffffffffffffffffffffffffffffffffffffffffffffffffffff19166020820180517bffffffffffffffffffffffffffffffffffffffffffffffffffffffff8381831617835250505050614f2a565b505050565b6000838311158290614cce576040517f08c379a00000000000000000000000000000000000000000000000000000000081526004018080602001828103825283818151815260200191508051906020019080838360005b83811015614c93578082015181840152602081019050614c78565b50505050905090810190601f168015614cc05780820380516001836020036101000a031916815260200191505b509250505060405180910390fd5b5060008385039050809150509392505050565b8173ffffffffffffffffffffffffffffffffffffffff16614d0182612701565b73ffffffffffffffffffffffffffffffffffffffff1614614d6d576040517f08c379a0000000000000000000000000000000000000000000000000000000008152600401808060200182810382526025815260200180615dd86025913960400191505060405180910390fd5b614d76816149a0565b614dbd600360008473ffffffffffffffffffffffffffffffffffffffff1673ffffffffffffffffffffffffffffffffffffffff168152602001908152602001600020614a5e565b60006001600083815260200190815260200160002060006101000a81548173ffffffffffffffffffffffffffffffffffffffff021916908373ffffffffffffffffffffffffffffffffffffffff16021790555080600073ffffffffffffffffffffffffffffffffffffffff168373ffffffffffffffffffffffffffffffffffffffff167fddf252ad1be2c89b69c2b068fc378daa952ba7f163c4a11628f55a4df523b3ef60405160405180910390a45050565b6000614e8b6001600780549050614a8190919063ffffffff16565b9050600060086000848152602001908152602001600020549050600060078381548110614eb457fe5b906000526020600020015490508060078381548110614ecf57fe5b90600052602060002001819055508160086000838152602001908152602001600020819055506007805480919060019003614f0a9190615202565b506000600860008681526020019081526020016000208190555050505050565b614f498273ffffffffffffffffffffffffffffffffffffffff16614b05565b614fbb576040517f08c379a000000000000000000000000000000000000000000000000000000000815260040180806020018281038252601f8152602001807f5361666545524332303a2063616c6c20746f206e6f6e2d636f6e74726163740081525060200191505060405180910390fd5b600060608373ffffffffffffffffffffffffffffffffffffffff16836040518082805190602001908083835b6020831061500a5780518252602082019150602081019050602083039250614fe7565b6001836020036101000a0380198251168184511680821785525050505050509050019150506000604051808303816000865af19150503d806000811461506c576040519150601f19603f3d011682016040523d82523d6000602084013e615071565b606091505b5091509150816150e9576040517f08c379a00000000000000000000000000000000000000000000000000000000081526004018080602001828103825260208152602001807f5361666545524332303a206c6f772d6c6576656c2063616c6c206661696c656481525060200191505060405180910390fd5b60008151111561516f5780806020019051602081101561510857600080fd5b810190808051906020019092919050505061516e576040517f08c379a000000000000000000000000000000000000000000000000000000000815260040180806020018281038252602a815260200180615dfd602a913960400191505060405180910390fd5b5b50505050565b6109028061529c83390190565b828054600181600116156101000203166002900490600052602060002090601f016020900481019282601f106151c357805160ff19168380011785556151f1565b828001600101855582156151f1579182015b828111156151f05782518255916020019190600101906151d5565b5b5090506151fe9190615276565b5090565b815481835581811115615229578183600052602060002091820191016152289190615276565b5b505050565b50805460018160011615610100020316600290046000825580601f106152545750615273565b601f0160209004906000526020600020908101906152729190615276565b5b50565b61529891905b8082111561529457600081600090555060010161527c565b5090565b9056fe608060405234801561001057600080fd5b50336000806101000a81548173ffffffffffffffffffffffffffffffffffffffff021916908373ffffffffffffffffffffffffffffffffffffffff1602179055506108a2806100606000396000f3fe608060405234801561001057600080fd5b50600436106100935760003560e01c80638da5cb5b116100665780638da5cb5b146101ba578063a26f4f7114610204578063a734f06e1461024e578063c5ebeaec14610298578063f78b0cd2146102c657610093565b8063040141e5146100985780632a4c0a1a146100e257806349df728c1461012c5780638b56046b14610170575b600080fd5b6100a0610310565b604051808273ffffffffffffffffffffffffffffffffffffffff1673ffffffffffffffffffffffffffffffffffffffff16815260200191505060405180910390f35b6100ea610328565b604051808273ffffffffffffffffffffffffffffffffffffffff1673ffffffffffffffffffffffffffffffffffffffff16815260200191505060405180910390f35b61016e6004803603602081101561014257600080fd5b81019080803573ffffffffffffffffffffffffffffffffffffffff169060200190929190505050610340565b005b610178610516565b604051808273ffffffffffffffffffffffffffffffffffffffff1673ffffffffffffffffffffffffffffffffffffffff16815260200191505060405180910390f35b6101c261052e565b604051808273ffffffffffffffffffffffffffffffffffffffff1673ffffffffffffffffffffffffffffffffffffffff16815260200191505060405180910390f35b61020c610553565b604051808273ffffffffffffffffffffffffffffffffffffffff1673ffffffffffffffffffffffffffffffffffffffff16815260200191505060405180910390f35b61025661056b565b604051808273ffffffffffffffffffffffffffffffffffffffff1673ffffffffffffffffffffffffffffffffffffffff16815260200191505060405180910390f35b6102c4600480360360208110156102ae57600080fd5b8101908080359060200190929190505050610583565b005b6102ce61085e565b604051808273ffffffffffffffffffffffffffffffffffffffff1673ffffffffffffffffffffffffffffffffffffffff16815260200191505060405180910390f35b73d0a1e359811322d97991e03f863a0c30c2cf029c81565b73ff795577d9ac8bd7d90ee22b6c1703490b6512fd81565b6000809054906101000a900473ffffffffffffffffffffffffffffffffffffffff1673ffffffffffffffffffffffffffffffffffffffff163373ffffffffffffffffffffffffffffffffffffffff161461039957600080fd5b8073ffffffffffffffffffffffffffffffffffffffff1663a9059cbb338373ffffffffffffffffffffffffffffffffffffffff166370a08231306040518263ffffffff1660e01b8152600401808273ffffffffffffffffffffffffffffffffffffffff1673ffffffffffffffffffffffffffffffffffffffff16815260200191505060206040518083038186803b15801561043357600080fd5b505afa158015610447573d6000803e3d6000fd5b505050506040513d602081101561045d57600080fd5b81019080805190602001909291905050506040518363ffffffff1660e01b8152600401808373ffffffffffffffffffffffffffffffffffffffff1673ffffffffffffffffffffffffffffffffffffffff16815260200182815260200192505050602060405180830381600087803b1580156104d757600080fd5b505af11580156104eb573d6000803e3d6000fd5b505050506040513d602081101561050157600080fd5b81019080805190602001909291905050505050565b73580d4fdc4bf8f9b5ae2fb9225d584fed4ad5375c81565b6000809054906101000a900473ffffffffffffffffffffffffffffffffffffffff1681565b73d483b49f2d55d2c53d32be6eff735cb001880f7981565b73eeeeeeeeeeeeeeeeeeeeeeeeeeeeeeeeeeeeeeee81565b6000809054906101000a900473ffffffffffffffffffffffffffffffffffffffff1673ffffffffffffffffffffffffffffffffffffffff163373ffffffffffffffffffffffffffffffffffffffff16146105dc57600080fd5b73580d4fdc4bf8f9b5ae2fb9225d584fed4ad5375c73ffffffffffffffffffffffffffffffffffffffff1663c858f5f973ff795577d9ac8bd7d90ee22b6c1703490b6512fd83600160006040518563ffffffff1660e01b8152600401808573ffffffffffffffffffffffffffffffffffffffff1673ffffffffffffffffffffffffffffffffffffffff1681526020018481526020018381526020018261ffff168152602001945050505050600060405180830381600087803b1580156106a157600080fd5b505af11580156106b5573d6000803e3d6000fd5b5050505073ff795577d9ac8bd7d90ee22b6c1703490b6512fd73ffffffffffffffffffffffffffffffffffffffff1663a9059cbb3373ff795577d9ac8bd7d90ee22b6c1703490b6512fd73ffffffffffffffffffffffffffffffffffffffff166370a08231306040518263ffffffff1660e01b8152600401808273ffffffffffffffffffffffffffffffffffffffff1673ffffffffffffffffffffffffffffffffffffffff16815260200191505060206040518083038186803b15801561077b57600080fd5b505afa15801561078f573d6000803e3d6000fd5b505050506040513d60208110156107a557600080fd5b81019080805190602001909291905050506040518363ffffffff1660e01b8152600401808373ffffffffffffffffffffffffffffffffffffffff1673ffffffffffffffffffffffffffffffffffffffff16815260200182815260200192505050602060405180830381600087803b15801561081f57600080fd5b505af1158015610833573d6000803e3d6000fd5b505050506040513d602081101561084957600080fd5b81019080805190602001909291905050505050565b7395d1189ed88b380e319df73ff00e479fcc4cfa458156fea165627a7a723058200663d19427682fe34a22adcf40b527c73da34344978236d43e3c9ad416a3c65a0029455243373231456e756d657261626c653a206f776e657220696e646578206f7574206f6620626f756e64734552433732313a207472616e7366657220746f206e6f6e20455243373231526563656976657220696d706c656d656e7465724552433732313a207472616e7366657220746f20746865207a65726f20616464726573734552433732313a206f70657261746f7220717565727920666f72206e6f6e6578697374656e7420746f6b656e4552433732313a20617070726f76652063616c6c6572206973206e6f74206f776e6572206e6f7220617070726f76656420666f7220616c6c4552433732313a2062616c616e636520717565727920666f7220746865207a65726f20616464726573734552433732313a206f776e657220717565727920666f72206e6f6e6578697374656e7420746f6b656e4552433732313a20617070726f76656420717565727920666f72206e6f6e6578697374656e7420746f6b656e4552433732313a207472616e73666572206f6620746f6b656e2074686174206973206e6f74206f776e4552433732314d657461646174613a2055524920717565727920666f72206e6f6e6578697374656e7420746f6b656e4552433732313a20617070726f76616c20746f2063757272656e74206f776e65724552433732313a207472616e736665722063616c6c6572206973206e6f74206f776e6572206e6f7220617070726f766564455243373231456e756d657261626c653a20676c6f62616c20696e646578206f7574206f6620626f756e64734552433732313a206275726e206f6620746f6b656e2074686174206973206e6f74206f776e5361666545524332303a204552433230206f7065726174696f6e20646964206e6f7420737563636565644552433732314275726e61626c653a2063616c6c6572206973206e6f74206f776e6572206e6f7220617070726f766564a165627a7a7230582031b51641e7409c9d20895801669ea59ee1b9450b728536872262e8ca5c8d8a650029",
  "source": "pragma solidity ^0.5.0;\n\nimport \"../DefiNFTInterface.sol\";\nimport \"./AaveLendingPoolInterface.sol\";\nimport \"./aTokenInterface.sol\";\nimport \"@openzeppelin/contracts/token/ERC721/ERC721Full.sol\";\nimport \"@openzeppelin/contracts/token/ERC20/IERC20.sol\";\nimport \"./FundsKeeper.sol\";\nimport \"./OasisWrapper.sol\";\nimport \"./FlashLoanReceiverBase.sol\";\n\ncontract ILendingPool {\n    function flashLoan( address payable _receiver, address _reserve, uint _amount, bytes calldata _params) external;\n}\n\ncontract bAnimal is ERC721Full, DefiNFTInterface, FlashLoanReceiverBase {\n    // mainnet\n    // address public constant DAI_ADDRESS = 0x6B175474E89094C44Da98b954EedeAC495271d0F;\n    // address public constant AAVE_LENDING_POOL = 0x398eC7346DcD622eDc5ae82352F02bE94C62d119;\n    // address public constant AAVE_LENDING_POOL_CORE = 0x3dfd23A6c5E8BbcFc9581d2E864a68feb6a076d3;\n\n    // kovan\n    address public constant DAI_ADDRESS = 0xFf795577d9AC8bD7D90Ee22b6C1703490b6512FD;\n    address public constant ETH_ADDRESS = 0xEeeeeEeeeEeEeeEeEeEeeEEEeeeeEeeeeeeeEEeE;\n    address public constant AETH_ADDRESS =  0xD483B49F2d55D2c53D32bE6efF735cB001880F79;\n    address public constant AAVE_LENDING_POOL = 0x580D4Fdc4BF8f9b5ae2fb9225D584fED4AD5375c;\n    address public constant AAVE_LENDING_POOL_CORE = 0x95D1189Ed88B380E319dF73fF00E479fcc4CFa45;\n    address public constant WETH_ADDRESS = 0xd0A1E359811322d97991E03f863a0C30C2cF029C;\n    ILendingPoolAddressesProvider public LENDING_POOL_ADDRESS_PROVIDER = ILendingPoolAddressesProvider(0x506B0B2CF20FAA8f38a4E2B524EE43e1f4458Cc5);\n\n\n    address public farm;\n    address payable public oasisWrapper;\n\n    mapping(uint => string) public names;\n    mapping(uint => address payable) public keeper;\n    mapping(uint => uint) public debt;\n\n    constructor (address _farm, address payable _oasisWrapper) public ERC721Full('aAnimal', 'AAN') FlashLoanReceiverBase(LENDING_POOL_ADDRESS_PROVIDER) { \n        farm = _farm;\n        oasisWrapper = _oasisWrapper;\n    }\n\n    function exists(uint256 tokenId) public view returns (bool) {\n        return _exists(tokenId);\n    }\n\n    function tokensOfOwner(address owner) public view returns (uint256[] memory) {\n        return _tokensOfOwner(owner);\n    }\n\n    function mintDefiNFT(address _user, uint _value, string calldata _name) external payable returns(bool) {\n        require(msg.sender == farm);\n        require(msg.value >= _value);\n        \n        uint tokenId = totalSupply();\n        \n        _mint(_user, tokenId);\n\n        uint tokensBefore = IERC20(AETH_ADDRESS).balanceOf(address(this));\n\n        uint daiAmountToExchange = OasisWrapper(oasisWrapper).getSellAmount(DAI_ADDRESS, WETH_ADDRESS, _value);\n\n        AaveLendingPoolInterface(AAVE_LENDING_POOL).setUserUseReserveAsCollateral(ETH_ADDRESS, true);\n\n        // flash loan that amount of DAI\n        bytes memory paramsData = abi.encode(tokenId, _value, _name, tokensBefore);\n        ILendingPool(AAVE_LENDING_POOL).flashLoan(address(this), ETH_ADDRESS, _value, paramsData);\n\n        return true;\n    }\n\n    function executeOperation(\n        address _reserve,\n        uint256 _amount,\n        uint256 _fee,\n        bytes calldata _params) \n    external {\n\n        //check the contract has the specified balance\n        require(_amount <= getBalanceInternal(address(this), _reserve), \n            \"Invalid balance for the contract\");\n\n        (\n            uint tokenId,\n            uint value,\n            string memory name,\n            uint tokensBefore\n        ) \n         = abi.decode(_params, (uint256,uint256,string,uint256));\n\n        IERC20(DAI_ADDRESS).transfer(oasisWrapper, _amount);\n        OasisWrapper(oasisWrapper).swapTokenToEther(DAI_ADDRESS, _amount);\n\n        AaveLendingPoolInterface(AAVE_LENDING_POOL).deposit.value(value*2)(ETH_ADDRESS, value*2, 0);\n\n        uint diff = IERC20(AETH_ADDRESS).balanceOf(address(this)) - tokensBefore;\n\n        FundsKeeper fundsKeeper = new FundsKeeper();\n        IERC20(AETH_ADDRESS).transfer(address(fundsKeeper), diff);\n\n        fundsKeeper.borrow(_amount.add(_fee));\n\n        address payable receiver = address(uint160(address(fundsKeeper)));\n        keeper[tokenId] = receiver;\n        names[tokenId] = name;\n        debt[tokenId] = _amount.add(_fee);\n\n        transferFundsBackToPoolInternal(_reserve, _amount.add(_fee));\n    }\n\n    function getName(uint _id) external view returns(string memory) {\n        return names[_id];\n    }\n\n    function burn(uint256 _tokenId) public {\n        require(_isApprovedOrOwner(_msgSender(), _tokenId), \"ERC721Burnable: caller is not owner nor approved\");\n\n        uint debtNeeded = debt[_tokenId];\n\n        require(IERC20(DAI_ADDRESS).transferFrom(msg.sender, address(this), debtNeeded));\n        IERC20(DAI_ADDRESS).approve(AAVE_LENDING_POOL_CORE, debtNeeded);\n\n        // Repay users debt\n        AaveLendingPoolInterface(AAVE_LENDING_POOL).repay(ETH_ADDRESS, debtNeeded, keeper[_tokenId]);\n\n        FundsKeeper(keeper[_tokenId]).withdrawTokens(AETH_ADDRESS);\n\n        uint balance = IERC20(AETH_ADDRESS).balanceOf(address(this));\n        aTokenInterface(AETH_ADDRESS).redeem(balance);\n\n        msg.sender.transfer(address(this).balance);\n\n        _burn(_tokenId);\n    }\n\n    function getBalance(uint _tokenId) public view returns(uint) {\n        return IERC20(AETH_ADDRESS).balanceOf(keeper[_tokenId]);\n    }\n\n    function getTokenData(uint _tokenId) public view returns(string memory, uint, uint) {\n        return (names[_tokenId], getBalance(_tokenId), debt[_tokenId]); \n    }\n\n    function () external payable {\n    }\n    \n}\n",
  "sourcePath": "/Users/nikolaklipa/Decenter/defi-farm/contracts/contracts/examples/bAnimal.sol",
  "compiler": {
    "name": "solc",
    "version": "0.5.7+commit.6da8b019.Emscripten.clang"
  },
  "schemaVersion": "3.0.23",
  "updatedAt": "2020-02-29T19:44:28.964Z",
  "networkType": "ethereum",
  "devdoc": {
    "methods": {
      "approve(address,uint256)": {
        "details": "Approves another address to transfer the given token ID The zero address indicates there is no approved address. There can only be one approved address per token at a given time. Can only be called by the token owner or an approved operator.",
        "params": {
          "to": "address to be approved for the given token ID",
          "tokenId": "uint256 ID of the token to be approved"
        }
      },
      "balanceOf(address)": {
        "details": "Gets the balance of the specified address.",
        "params": {
          "owner": "address to query the balance of"
        },
        "return": "uint256 representing the amount owned by the passed address"
      },
      "baseURI()": {
        "details": "Returns the base URI set via {_setBaseURI}. This will be automatically added as a preffix in {tokenURI} to each token's URI, when they are non-empty.    * _Available since v2.5.0._"
      },
      "getApproved(uint256)": {
        "details": "Gets the approved address for a token ID, or zero if no address set Reverts if the token ID does not exist.",
        "params": {
          "tokenId": "uint256 ID of the token to query the approval of"
        },
        "return": "address currently approved for the given token ID"
      },
      "isApprovedForAll(address,address)": {
        "details": "Tells whether an operator is approved by a given owner.",
        "params": {
          "operator": "operator address which you want to query the approval of",
          "owner": "owner address which you want to query the approval of"
        },
        "return": "bool whether the given operator is approved by the given owner"
      },
      "name()": {
        "details": "Gets the token name.",
        "return": "string representing the token name"
      },
      "ownerOf(uint256)": {
        "details": "Gets the owner of the specified token ID.",
        "params": {
          "tokenId": "uint256 ID of the token to query the owner of"
        },
        "return": "address currently marked as the owner of the given token ID"
      },
      "safeTransferFrom(address,address,uint256)": {
        "details": "Safely transfers the ownership of a given token ID to another address If the target address is a contract, it must implement {IERC721Receiver-onERC721Received}, which is called upon a safe transfer, and return the magic value `bytes4(keccak256(\"onERC721Received(address,address,uint256,bytes)\"))`; otherwise, the transfer is reverted. Requires the msg.sender to be the owner, approved, or operator",
        "params": {
          "from": "current owner of the token",
          "to": "address to receive the ownership of the given token ID",
          "tokenId": "uint256 ID of the token to be transferred"
        }
      },
      "safeTransferFrom(address,address,uint256,bytes)": {
        "details": "Safely transfers the ownership of a given token ID to another address If the target address is a contract, it must implement {IERC721Receiver-onERC721Received}, which is called upon a safe transfer, and return the magic value `bytes4(keccak256(\"onERC721Received(address,address,uint256,bytes)\"))`; otherwise, the transfer is reverted. Requires the _msgSender() to be the owner, approved, or operator",
        "params": {
          "_data": "bytes data to send along with a safe transfer check",
          "from": "current owner of the token",
          "to": "address to receive the ownership of the given token ID",
          "tokenId": "uint256 ID of the token to be transferred"
        }
      },
      "setApprovalForAll(address,bool)": {
        "details": "Sets or unsets the approval of a given operator An operator is allowed to transfer all tokens of the sender on their behalf.",
        "params": {
          "approved": "representing the status of the approval to be set",
          "to": "operator address to set the approval"
        }
      },
      "supportsInterface(bytes4)": {
        "details": "See {IERC165-supportsInterface}.     * Time complexity O(1), guaranteed to always use less than 30 000 gas."
      },
      "symbol()": {
        "details": "Gets the token symbol.",
        "return": "string representing the token symbol"
      },
      "tokenByIndex(uint256)": {
        "details": "Gets the token ID at a given index of all the tokens in this contract Reverts if the index is greater or equal to the total number of tokens.",
        "params": {
          "index": "uint256 representing the index to be accessed of the tokens list"
        },
        "return": "uint256 token ID at the given index of the tokens list"
      },
      "tokenOfOwnerByIndex(address,uint256)": {
        "details": "Gets the token ID at a given index of the tokens list of the requested owner.",
        "params": {
          "index": "uint256 representing the index to be accessed of the requested tokens list",
          "owner": "address owning the tokens list to be accessed"
        },
        "return": "uint256 token ID at the given index of the tokens list owned by the requested address"
      },
      "tokenURI(uint256)": {
        "details": "Returns the URI for a given token ID. May return an empty string.     * If the token's URI is non-empty and a base URI was set (via {_setBaseURI}), it will be added to the token ID's URI as a prefix.     * Reverts if the token ID does not exist."
      },
      "totalSupply()": {
        "details": "Gets the total amount of tokens stored by the contract.",
        "return": "uint256 representing the total amount of tokens"
      },
      "transferFrom(address,address,uint256)": {
        "details": "Transfers the ownership of a given token ID to another address. Usage of this method is discouraged, use {safeTransferFrom} whenever possible. Requires the msg.sender to be the owner, approved, or operator.",
        "params": {
          "from": "current owner of the token",
          "to": "address to receive the ownership of the given token ID",
          "tokenId": "uint256 ID of the token to be transferred"
        }
      }
    }
  },
  "userdoc": {
    "methods": {}
  }
}