{
  "contractName": "DefiFarm",
  "abi": [
    {
      "constant": true,
      "inputs": [],
      "name": "count",
      "outputs": [
        {
          "name": "",
          "type": "uint256"
        }
      ],
      "payable": false,
      "stateMutability": "view",
      "type": "function"
    },
    {
      "constant": true,
      "inputs": [
        {
          "name": "",
          "type": "uint256"
        }
      ],
      "name": "tokens",
      "outputs": [
        {
          "name": "tokenAddress",
          "type": "address"
        },
        {
          "name": "price",
          "type": "uint256"
        },
        {
          "name": "tokenMaker",
          "type": "address"
        },
        {
          "name": "exists",
          "type": "bool"
        }
      ],
      "payable": false,
      "stateMutability": "view",
      "type": "function"
    },
    {
      "constant": true,
      "inputs": [],
      "name": "USER_SHARE",
      "outputs": [
        {
          "name": "",
          "type": "uint256"
        }
      ],
      "payable": false,
      "stateMutability": "view",
      "type": "function"
    },
    {
      "constant": false,
      "inputs": [
        {
          "name": "_tokenAddress",
          "type": "address"
        },
        {
          "name": "_price",
          "type": "uint256"
        }
      ],
      "name": "addToken",
      "outputs": [],
      "payable": true,
      "stateMutability": "payable",
      "type": "function"
    },
    {
      "constant": false,
      "inputs": [
        {
          "name": "_tokenId",
          "type": "uint256"
        },
        {
          "name": "_value",
          "type": "uint256"
        }
      ],
      "name": "buyToken",
      "outputs": [],
      "payable": true,
      "stateMutability": "payable",
      "type": "function"
    },
    {
      "constant": false,
      "inputs": [
        {
          "name": "_id",
          "type": "uint256"
        }
      ],
      "name": "removeToken",
      "outputs": [],
      "payable": false,
      "stateMutability": "nonpayable",
      "type": "function"
    },
    {
      "constant": false,
      "inputs": [
        {
          "name": "_share",
          "type": "uint256"
        }
      ],
      "name": "changeMakerShare",
      "outputs": [],
      "payable": false,
      "stateMutability": "nonpayable",
      "type": "function"
    }
  ],
  "bytecode": "0x608060405234801561001057600080fd5b5061074b806100206000396000f3fe6080604052600436106100705760003560e01c806336c5d7241161004e57806336c5d724146101135780634f64b2be1461014e578063a10eaa891461020e578063af81c5b91461023957610070565b8063057466ea1461007557806306661abd146100ad57806327b1cff2146100d8575b600080fd5b6100ab6004803603604081101561008b57600080fd5b810190808035906020019092919080359060200190929190505050610287565b005b3480156100b957600080fd5b506100c26104c5565b6040518082815260200191505060405180910390f35b3480156100e457600080fd5b50610111600480360360208110156100fb57600080fd5b81019080803590602001909291905050506104cb565b005b34801561011f57600080fd5b5061014c6004803603602081101561013657600080fd5b81019080803590602001909291905050506104d5565b005b34801561015a57600080fd5b506101876004803603602081101561017157600080fd5b8101908080359060200190929190505050610507565b604051808573ffffffffffffffffffffffffffffffffffffffff1673ffffffffffffffffffffffffffffffffffffffff1681526020018481526020018373ffffffffffffffffffffffffffffffffffffffff1673ffffffffffffffffffffffffffffffffffffffff1681526020018215151515815260200194505050505060405180910390f35b34801561021a57600080fd5b50610223610584565b6040518082815260200191505060405180910390f35b6102856004803603604081101561024f57600080fd5b81019080803573ffffffffffffffffffffffffffffffffffffffff1690602001909291908035906020019092919050505061058a565b005b600060026000848152602001908152602001600020600101549050803410156102af57600080fd5b6002600084815260200190815260200160002060020160149054906101000a900460ff166102dc57600080fd5b8034111561032e573373ffffffffffffffffffffffffffffffffffffffff166108fc8234039081150290604051600060405180830381858888f1935050505015801561032c573d6000803e3d6000fd5b505b60006002600085815260200190815260200160002060020160009054906101000a900473ffffffffffffffffffffffffffffffffffffffff1690508073ffffffffffffffffffffffffffffffffffffffff166108fc606460005485028161039157fe5b049081150290604051600060405180830381858888f193505050501580156103bd573d6000803e3d6000fd5b506002600085815260200190815260200160002060000160009054906101000a900473ffffffffffffffffffffffffffffffffffffffff1673ffffffffffffffffffffffffffffffffffffffff1663f4471e1d33856040518363ffffffff1660e01b8152600401808373ffffffffffffffffffffffffffffffffffffffff1673ffffffffffffffffffffffffffffffffffffffff16815260200182815260200192505050602060405180830381600087803b15801561047b57600080fd5b505af115801561048f573d6000803e3d6000fd5b505050506040513d60208110156104a557600080fd5b81019080805190602001909291905050506104bf57600080fd5b50505050565b60015481565b8060008190555050565b60006002600083815260200190815260200160002060020160146101000a81548160ff02191690831515021790555050565b60026020528060005260406000206000915090508060000160009054906101000a900473ffffffffffffffffffffffffffffffffffffffff16908060010154908060020160009054906101000a900473ffffffffffffffffffffffffffffffffffffffff16908060020160149054906101000a900460ff16905084565b60005481565b8034101561059757600080fd5b803411156105e9573373ffffffffffffffffffffffffffffffffffffffff166108fc8234039081150290604051600060405180830381858888f193505050501580156105e7573d6000803e3d6000fd5b505b60405180608001604052808373ffffffffffffffffffffffffffffffffffffffff1681526020018281526020013373ffffffffffffffffffffffffffffffffffffffff1681526020016001151581525060026000600154815260200190815260200160002060008201518160000160006101000a81548173ffffffffffffffffffffffffffffffffffffffff021916908373ffffffffffffffffffffffffffffffffffffffff1602179055506020820151816001015560408201518160020160006101000a81548173ffffffffffffffffffffffffffffffffffffffff021916908373ffffffffffffffffffffffffffffffffffffffff16021790555060608201518160020160146101000a81548160ff021916908315150217905550905050600160008154809291906001019190505550505056fea165627a7a7230582084ba237278df250dd4a42771d457ba9fd272021fc2da4cb2c0a3235eb7430fa00029",
  "source": "pragma solidity >=0.4.21 <0.7.0;\n\nimport \"./DefiNFTInterface.sol\";\n\ncontract DefiFarm {\n    \n    struct DefiNFT {\n        address tokenAddress;\n        uint price;\n        address payable tokenMaker;\n        bool exists;\n    }\n\n    uint public USER_SHARE;\n\n    uint public count;\n\n    mapping(uint => DefiNFT) public tokens;\n\n    // TODO: add approval period\n    function addToken(address _tokenAddress, uint _price) public payable {\n        require(msg.value >= _price);\n\n        if (msg.value > _price) {\n            msg.sender.transfer(msg.value - _price);\n        }\n\n        tokens[count] = DefiNFT({\n            tokenAddress: _tokenAddress,\n            price: _price,\n            tokenMaker: msg.sender,\n            exists: true\n        });\n\n        count++;\n    }\n\n    function buyToken(uint _tokenId, uint _value) public payable {\n        uint tokenPrice = tokens[_tokenId].price;\n        require(msg.value >= tokenPrice);\n        require(tokens[_tokenId].exists);\n\n        if (msg.value > tokenPrice) {\n            msg.sender.transfer(msg.value - tokenPrice);\n        }\n\n        address payable tokenMaker = tokens[_tokenId].tokenMaker;\n        tokenMaker.transfer(tokenPrice * USER_SHARE / 100);\n\n        // TODO: mint token\n        require(DefiNFTInterface(tokens[_tokenId].tokenAddress).mintDefiNFT(msg.sender, _value));\n    }\n\n    // TODO: only dao\n    function removeToken(uint _id) public {\n        tokens[_id].exists = false;\n    }\n\n    // TODO: only dao\n    function changeMakerShare(uint _share) public {\n        USER_SHARE = _share;\n    }\n\n}\n",
  "sourcePath": "/Users/nikolaklipa/Decenter/defi-farm/contracts/contracts/DefiFarm.sol",
  "compiler": {
    "name": "solc",
    "version": "0.5.7+commit.6da8b019.Emscripten.clang"
  },
  "schemaVersion": "3.0.23",
  "updatedAt": "2020-02-28T21:27:52.918Z",
  "devdoc": {
    "methods": {}
  },
  "userdoc": {
    "methods": {}
  }
}