{
  "contractName": "DefiFarm",
  "abi": [
    {
      "constant": true,
      "inputs": [],
      "name": "count",
      "outputs": [
        {
          "name": "",
          "type": "uint256"
        }
      ],
      "payable": false,
      "stateMutability": "view",
      "type": "function"
    },
    {
      "constant": true,
      "inputs": [
        {
          "name": "",
          "type": "uint256"
        }
      ],
      "name": "tokens",
      "outputs": [
        {
          "name": "tokenAddress",
          "type": "address"
        },
        {
          "name": "price",
          "type": "uint256"
        },
        {
          "name": "tokenMaker",
          "type": "address"
        },
        {
          "name": "exists",
          "type": "bool"
        }
      ],
      "payable": false,
      "stateMutability": "view",
      "type": "function"
    },
    {
      "constant": false,
      "inputs": [
        {
          "name": "_tokenAddress",
          "type": "address"
        },
        {
          "name": "_price",
          "type": "uint256"
        }
      ],
      "name": "addToken",
      "outputs": [],
      "payable": true,
      "stateMutability": "payable",
      "type": "function"
    },
    {
      "constant": false,
      "inputs": [
        {
          "name": "_tokenId",
          "type": "uint256"
        }
      ],
      "name": "buyToken",
      "outputs": [],
      "payable": true,
      "stateMutability": "payable",
      "type": "function"
    },
    {
      "constant": false,
      "inputs": [
        {
          "name": "_id",
          "type": "uint256"
        }
      ],
      "name": "removeToken",
      "outputs": [],
      "payable": false,
      "stateMutability": "nonpayable",
      "type": "function"
    }
  ],
  "bytecode": "0x608060405234801561001057600080fd5b50610510806100206000396000f3fe60806040526004361061004a5760003560e01c806306661abd1461004f5780632d296bf11461007a57806336c5d724146100a85780634f64b2be146100e3578063af81c5b9146101a3575b600080fd5b34801561005b57600080fd5b506100646101f1565b6040518082815260200191505060405180910390f35b6100a66004803603602081101561009057600080fd5b81019080803590602001909291905050506101f7565b005b3480156100b457600080fd5b506100e1600480360360208110156100cb57600080fd5b81019080803590602001909291905050506102a2565b005b3480156100ef57600080fd5b5061011c6004803603602081101561010657600080fd5b81019080803590602001909291905050506102d4565b604051808573ffffffffffffffffffffffffffffffffffffffff1673ffffffffffffffffffffffffffffffffffffffff1681526020018481526020018373ffffffffffffffffffffffffffffffffffffffff1673ffffffffffffffffffffffffffffffffffffffff1681526020018215151515815260200194505050505060405180910390f35b6101ef600480360360408110156101b957600080fd5b81019080803573ffffffffffffffffffffffffffffffffffffffff16906020019092919080359060200190929190505050610351565b005b60005481565b6000600160008381526020019081526020016000206001015490508034101561021f57600080fd5b6001600083815260200190815260200160002060020160149054906101000a900460ff1661024c57600080fd5b8034111561029e573373ffffffffffffffffffffffffffffffffffffffff166108fc8234039081150290604051600060405180830381858888f1935050505015801561029c573d6000803e3d6000fd5b505b5050565b60006001600083815260200190815260200160002060020160146101000a81548160ff02191690831515021790555050565b60016020528060005260406000206000915090508060000160009054906101000a900473ffffffffffffffffffffffffffffffffffffffff16908060010154908060020160009054906101000a900473ffffffffffffffffffffffffffffffffffffffff16908060020160149054906101000a900460ff16905084565b8034101561035e57600080fd5b803411156103b0573373ffffffffffffffffffffffffffffffffffffffff166108fc8234039081150290604051600060405180830381858888f193505050501580156103ae573d6000803e3d6000fd5b505b60405180608001604052808373ffffffffffffffffffffffffffffffffffffffff1681526020018281526020013373ffffffffffffffffffffffffffffffffffffffff16815260200160011515815250600160008054815260200190815260200160002060008201518160000160006101000a81548173ffffffffffffffffffffffffffffffffffffffff021916908373ffffffffffffffffffffffffffffffffffffffff1602179055506020820151816001015560408201518160020160006101000a81548173ffffffffffffffffffffffffffffffffffffffff021916908373ffffffffffffffffffffffffffffffffffffffff16021790555060608201518160020160146101000a81548160ff0219169083151502179055509050506000808154809291906001019190505550505056fea165627a7a723058209331173eace25e85f3b9a4dadf924cc03f3f5bb8b1b6760a32e85966c3b880150029",
  "source": "pragma solidity >=0.4.21 <0.7.0;\n\ncontract DefiFarm {\n    \n    struct DefiNFT {\n        address tokenAddress;\n        uint price;\n        address tokenMaker;\n        bool exists;\n    }\n\n    uint public count;\n\n    mapping(uint => DefiNFT) public tokens;\n\n    // TODO: add approval period\n    function addToken(address _tokenAddress, uint _price) public payable {\n        require(msg.value >= _price);\n\n        if (msg.value > _price) {\n            msg.sender.transfer(msg.value - _price);\n        }\n\n        tokens[count] = DefiNFT({\n            tokenAddress: _tokenAddress,\n            price: _price,\n            tokenMaker: msg.sender,\n            exists: true\n        });\n\n        count++;\n    }\n\n    function buyToken(uint _tokenId) public payable {\n        uint tokenPrice = tokens[_tokenId].price;\n        require(msg.value >= tokenPrice);\n        require(tokens[_tokenId].exists);\n\n        if (msg.value > tokenPrice) {\n            msg.sender.transfer(msg.value - tokenPrice);\n        }\n\n        // TODO: mint token\n    }\n\n    // TODO: only dao\n    function removeToken(uint _id) public {\n        tokens[_id].exists = false;\n    }\n}\n",
  "sourcePath": "/Users/nikolaklipa/Decenter/defi-farm/contracts/contracts/DefiFarm.sol",
  "compiler": {
    "name": "solc",
    "version": "0.5.7+commit.6da8b019.Emscripten.clang"
  },
  "schemaVersion": "3.0.23",
  "updatedAt": "2020-02-28T21:11:52.834Z",
  "devdoc": {
    "methods": {}
  },
  "userdoc": {
    "methods": {}
  }
}