{
  "contractName": "DefiFarm",
  "abi": [
    {
      "constant": true,
      "inputs": [],
      "name": "count",
      "outputs": [
        {
          "name": "",
          "type": "uint256"
        }
      ],
      "payable": false,
      "stateMutability": "view",
      "type": "function"
    },
    {
      "constant": true,
      "inputs": [
        {
          "name": "",
          "type": "uint256"
        }
      ],
      "name": "tokens",
      "outputs": [
        {
          "name": "tokenAddress",
          "type": "address"
        },
        {
          "name": "price",
          "type": "uint256"
        },
        {
          "name": "tokenMaker",
          "type": "address"
        },
        {
          "name": "exists",
          "type": "bool"
        }
      ],
      "payable": false,
      "stateMutability": "view",
      "type": "function"
    },
    {
      "constant": true,
      "inputs": [],
      "name": "USER_SHARE",
      "outputs": [
        {
          "name": "",
          "type": "uint256"
        }
      ],
      "payable": false,
      "stateMutability": "view",
      "type": "function"
    },
    {
      "constant": false,
      "inputs": [
        {
          "name": "_tokenAddress",
          "type": "address"
        },
        {
          "name": "_price",
          "type": "uint256"
        }
      ],
      "name": "addToken",
      "outputs": [],
      "payable": true,
      "stateMutability": "payable",
      "type": "function"
    },
    {
      "constant": false,
      "inputs": [
        {
          "name": "_tokenId",
          "type": "uint256"
        },
        {
          "name": "_value",
          "type": "uint256"
        },
        {
          "name": "_name",
          "type": "string"
        }
      ],
      "name": "buyToken",
      "outputs": [],
      "payable": true,
      "stateMutability": "payable",
      "type": "function"
    },
    {
      "constant": false,
      "inputs": [
        {
          "name": "_id",
          "type": "uint256"
        }
      ],
      "name": "removeToken",
      "outputs": [],
      "payable": false,
      "stateMutability": "nonpayable",
      "type": "function"
    },
    {
      "constant": false,
      "inputs": [
        {
          "name": "_share",
          "type": "uint256"
        }
      ],
      "name": "changeMakerShare",
      "outputs": [],
      "payable": false,
      "stateMutability": "nonpayable",
      "type": "function"
    }
  ],
  "bytecode": "0x608060405234801561001057600080fd5b50610850806100206000396000f3fe6080604052600436106100705760003560e01c806336c5d7241161004e57806336c5d724146101aa5780634f64b2be146101e5578063a10eaa89146102a5578063af81c5b9146102d057610070565b806306661abd146100755780631df32ce7146100a057806327b1cff21461016f575b600080fd5b34801561008157600080fd5b5061008a61031e565b6040518082815260200191505060405180910390f35b61016d600480360360608110156100b657600080fd5b810190808035906020019092919080359060200190929190803590602001906401000000008111156100e757600080fd5b8201836020820111156100f957600080fd5b8035906020019184600183028401116401000000008311171561011b57600080fd5b91908080601f016020809104026020016040519081016040528093929190818152602001838380828437600081840152601f19601f820116905080830192505050505050509192919290505050610324565b005b34801561017b57600080fd5b506101a86004803603602081101561019257600080fd5b81019080803590602001909291905050506105d0565b005b3480156101b657600080fd5b506101e3600480360360208110156101cd57600080fd5b81019080803590602001909291905050506105da565b005b3480156101f157600080fd5b5061021e6004803603602081101561020857600080fd5b810190808035906020019092919050505061060c565b604051808573ffffffffffffffffffffffffffffffffffffffff1673ffffffffffffffffffffffffffffffffffffffff1681526020018481526020018373ffffffffffffffffffffffffffffffffffffffff1673ffffffffffffffffffffffffffffffffffffffff1681526020018215151515815260200194505050505060405180910390f35b3480156102b157600080fd5b506102ba610689565b6040518082815260200191505060405180910390f35b61031c600480360360408110156102e657600080fd5b81019080803573ffffffffffffffffffffffffffffffffffffffff1690602001909291908035906020019092919050505061068f565b005b60015481565b6000600260008581526020019081526020016000206001015490508034101561034c57600080fd5b6002600085815260200190815260200160002060020160149054906101000a900460ff1661037957600080fd5b803411156103cb573373ffffffffffffffffffffffffffffffffffffffff166108fc8234039081150290604051600060405180830381858888f193505050501580156103c9573d6000803e3d6000fd5b505b60006002600086815260200190815260200160002060020160009054906101000a900473ffffffffffffffffffffffffffffffffffffffff1690508073ffffffffffffffffffffffffffffffffffffffff166108fc606460005485028161042e57fe5b049081150290604051600060405180830381858888f1935050505015801561045a573d6000803e3d6000fd5b506002600086815260200190815260200160002060000160009054906101000a900473ffffffffffffffffffffffffffffffffffffffff1673ffffffffffffffffffffffffffffffffffffffff16630e3a48963386866040518463ffffffff1660e01b8152600401808473ffffffffffffffffffffffffffffffffffffffff1673ffffffffffffffffffffffffffffffffffffffff16815260200183815260200180602001828103825283818151815260200191508051906020019080838360005b8381101561053757808201518184015260208101905061051c565b50505050905090810190601f1680156105645780820380516001836020036101000a031916815260200191505b50945050505050602060405180830381600087803b15801561058557600080fd5b505af1158015610599573d6000803e3d6000fd5b505050506040513d60208110156105af57600080fd5b81019080805190602001909291905050506105c957600080fd5b5050505050565b8060008190555050565b60006002600083815260200190815260200160002060020160146101000a81548160ff02191690831515021790555050565b60026020528060005260406000206000915090508060000160009054906101000a900473ffffffffffffffffffffffffffffffffffffffff16908060010154908060020160009054906101000a900473ffffffffffffffffffffffffffffffffffffffff16908060020160149054906101000a900460ff16905084565b60005481565b8034101561069c57600080fd5b803411156106ee573373ffffffffffffffffffffffffffffffffffffffff166108fc8234039081150290604051600060405180830381858888f193505050501580156106ec573d6000803e3d6000fd5b505b60405180608001604052808373ffffffffffffffffffffffffffffffffffffffff1681526020018281526020013373ffffffffffffffffffffffffffffffffffffffff1681526020016001151581525060026000600154815260200190815260200160002060008201518160000160006101000a81548173ffffffffffffffffffffffffffffffffffffffff021916908373ffffffffffffffffffffffffffffffffffffffff1602179055506020820151816001015560408201518160020160006101000a81548173ffffffffffffffffffffffffffffffffffffffff021916908373ffffffffffffffffffffffffffffffffffffffff16021790555060608201518160020160146101000a81548160ff021916908315150217905550905050600160008154809291906001019190505550505056fea165627a7a72305820e65598fb22c5eb2ccdf19465d477086abd545c5b89f77bbb40b858bd9cbb5a650029",
  "source": "pragma solidity >=0.4.21 <0.7.0;\n\nimport \"./DefiNFTInterface.sol\";\n\ncontract DefiFarm {\n    \n    struct DefiNFT {\n        address tokenAddress;\n        uint price;\n        address payable tokenMaker;\n        bool exists;\n    }\n\n    uint public USER_SHARE;\n\n    uint public count;\n\n    mapping(uint => DefiNFT) public tokens;\n\n    // TODO: add approval period\n    function addToken(address _tokenAddress, uint _price) public payable {\n        require(msg.value >= _price);\n\n        if (msg.value > _price) {\n            msg.sender.transfer(msg.value - _price);\n        }\n\n        tokens[count] = DefiNFT({\n            tokenAddress: _tokenAddress,\n            price: _price,\n            tokenMaker: msg.sender,\n            exists: true\n        });\n\n        count++;\n    }\n\n    function buyToken(uint _tokenId, uint _value, string memory _name) public payable {\n        uint tokenPrice = tokens[_tokenId].price;\n        require(msg.value >= tokenPrice);\n        require(tokens[_tokenId].exists);\n\n        if (msg.value > tokenPrice) {\n            msg.sender.transfer(msg.value - tokenPrice);\n        }\n\n        address payable tokenMaker = tokens[_tokenId].tokenMaker;\n        tokenMaker.transfer(tokenPrice * USER_SHARE / 100);\n\n        // TODO: mint token\n        require(DefiNFTInterface(tokens[_tokenId].tokenAddress).mintDefiNFT(msg.sender, _value, _name));\n    }\n\n    // TODO: only dao\n    function removeToken(uint _id) public {\n        tokens[_id].exists = false;\n    }\n\n    // TODO: only dao\n    function changeMakerShare(uint _share) public {\n        USER_SHARE = _share;\n    }\n\n}\n",
  "sourcePath": "/Users/nikolaklipa/Decenter/defi-farm/contracts/contracts/DefiFarm.sol",
  "compiler": {
    "name": "solc",
    "version": "0.5.7+commit.6da8b019.Emscripten.clang"
  },
  "schemaVersion": "3.0.23",
  "updatedAt": "2020-02-28T21:43:06.535Z",
  "devdoc": {
    "methods": {}
  },
  "userdoc": {
    "methods": {}
  }
}