{
  "contractName": "DefiFarm",
  "abi": [
    {
      "constant": true,
      "inputs": [],
      "name": "count",
      "outputs": [
        {
          "name": "",
          "type": "uint256"
        }
      ],
      "payable": false,
      "stateMutability": "view",
      "type": "function"
    },
    {
      "constant": true,
      "inputs": [],
      "name": "DAI_ADDRESS",
      "outputs": [
        {
          "name": "",
          "type": "address"
        }
      ],
      "payable": false,
      "stateMutability": "view",
      "type": "function"
    },
    {
      "constant": true,
      "inputs": [
        {
          "name": "",
          "type": "uint256"
        }
      ],
      "name": "tokens",
      "outputs": [
        {
          "name": "tokenAddress",
          "type": "address"
        },
        {
          "name": "price",
          "type": "uint256"
        },
        {
          "name": "tokenMaker",
          "type": "address"
        },
        {
          "name": "exists",
          "type": "bool"
        }
      ],
      "payable": false,
      "stateMutability": "view",
      "type": "function"
    },
    {
      "constant": true,
      "inputs": [],
      "name": "owner",
      "outputs": [
        {
          "name": "",
          "type": "address"
        }
      ],
      "payable": false,
      "stateMutability": "view",
      "type": "function"
    },
    {
      "constant": true,
      "inputs": [],
      "name": "USER_SHARE",
      "outputs": [
        {
          "name": "",
          "type": "uint256"
        }
      ],
      "payable": false,
      "stateMutability": "view",
      "type": "function"
    },
    {
      "inputs": [],
      "payable": false,
      "stateMutability": "nonpayable",
      "type": "constructor"
    },
    {
      "constant": false,
      "inputs": [
        {
          "name": "_tokenAddress",
          "type": "address"
        },
        {
          "name": "_price",
          "type": "uint256"
        }
      ],
      "name": "addToken",
      "outputs": [],
      "payable": true,
      "stateMutability": "payable",
      "type": "function"
    },
    {
      "constant": false,
      "inputs": [
        {
          "name": "_tokenId",
          "type": "uint256"
        },
        {
          "name": "_value",
          "type": "uint256"
        },
        {
          "name": "_name",
          "type": "string"
        }
      ],
      "name": "buyToken",
      "outputs": [],
      "payable": true,
      "stateMutability": "payable",
      "type": "function"
    },
    {
      "constant": false,
      "inputs": [
        {
          "name": "_id",
          "type": "uint256"
        }
      ],
      "name": "removeToken",
      "outputs": [],
      "payable": false,
      "stateMutability": "nonpayable",
      "type": "function"
    },
    {
      "constant": false,
      "inputs": [
        {
          "name": "_share",
          "type": "uint256"
        }
      ],
      "name": "changeMakerShare",
      "outputs": [],
      "payable": false,
      "stateMutability": "nonpayable",
      "type": "function"
    },
    {
      "constant": true,
      "inputs": [],
      "name": "getTokens",
      "outputs": [
        {
          "components": [
            {
              "name": "tokenAddress",
              "type": "address"
            },
            {
              "name": "price",
              "type": "uint256"
            },
            {
              "name": "tokenMaker",
              "type": "address"
            },
            {
              "name": "exists",
              "type": "bool"
            }
          ],
          "name": "",
          "type": "tuple[]"
        }
      ],
      "payable": false,
      "stateMutability": "view",
      "type": "function"
    },
    {
      "constant": false,
      "inputs": [
        {
          "name": "_amount",
          "type": "uint256"
        }
      ],
      "name": "withdraw",
      "outputs": [],
      "payable": false,
      "stateMutability": "nonpayable",
      "type": "function"
    }
  ],
  "bytecode": "0x6080604052600560005534801561001557600080fd5b5033600360006101000a81548173ffffffffffffffffffffffffffffffffffffffff021916908373ffffffffffffffffffffffffffffffffffffffff16021790555061103f806100666000396000f3fe60806040526004361061009c5760003560e01c806336c5d7241161006457806336c5d724146101655780634f64b2be1461018e5780638da5cb5b146101ce578063a10eaa89146101f9578063aa6ca80814610224578063af81c5b91461024f5761009c565b806306661abd146100a15780631df32ce7146100cc57806327b1cff2146100e85780632a4c0a1a146101115780632e1a7d4d1461013c575b600080fd5b3480156100ad57600080fd5b506100b661026b565b6040516100c39190610e14565b60405180910390f35b6100e660048036036100e19190810190610aeb565b610271565b005b3480156100f457600080fd5b5061010f600480360361010a9190810190610ac2565b6105e3565b005b34801561011d57600080fd5b506101266105ed565b6040516101339190610cd9565b60405180910390f35b34801561014857600080fd5b50610163600480360361015e9190810190610ac2565b610605565b005b34801561017157600080fd5b5061018c60048036036101879190810190610ac2565b610671565b005b34801561019a57600080fd5b506101b560048036036101b09190810190610ac2565b6106ab565b6040516101c59493929190610dad565b60405180910390f35b3480156101da57600080fd5b506101e3610735565b6040516101f09190610cf4565b60405180910390f35b34801561020557600080fd5b5061020e61075b565b60405161021b9190610e14565b60405180910390f35b34801561023057600080fd5b50610239610761565b6040516102469190610df2565b60405180910390f35b61026960048036036102649190810190610a5d565b610891565b005b60015481565b60006002848154811061028057fe5b9060005260206000209060030201600101549050803410156102a157600080fd5b600284815481106102ae57fe5b906000526020600020906003020160020160149054906101000a900460ff166102d657600080fd5b6000600285815481106102e557fe5b906000526020600020906003020160020160009054906101000a900473ffffffffffffffffffffffffffffffffffffffff1690508073ffffffffffffffffffffffffffffffffffffffff166108fc606460005485028161034157fe5b049081150290604051600060405180830381858888f1935050505015801561036d573d6000803e3d6000fd5b50813414156105035773ff795577d9ac8bd7d90ee22b6c1703490b6512fd73ffffffffffffffffffffffffffffffffffffffff166323b872dd3330876040518463ffffffff1660e01b81526004016103c793929190610d0f565b602060405180830381600087803b1580156103e157600080fd5b505af11580156103f5573d6000803e3d6000fd5b505050506040513d601f19601f820116820180604052506104199190810190610a99565b61042257600080fd5b73ff795577d9ac8bd7d90ee22b6c1703490b6512fd73ffffffffffffffffffffffffffffffffffffffff1663095ea7b36002878154811061045f57fe5b906000526020600020906003020160000160009054906101000a900473ffffffffffffffffffffffffffffffffffffffff16866040518363ffffffff1660e01b81526004016104af929190610d84565b602060405180830381600087803b1580156104c957600080fd5b505af11580156104dd573d6000803e3d6000fd5b505050506040513d601f19601f820116820180604052506105019190810190610a99565b505b6002858154811061051057fe5b906000526020600020906003020160000160009054906101000a900473ffffffffffffffffffffffffffffffffffffffff1673ffffffffffffffffffffffffffffffffffffffff16630e3a48968334033387876040518563ffffffff1660e01b815260040161058193929190610d46565b6020604051808303818588803b15801561059a57600080fd5b505af11580156105ae573d6000803e3d6000fd5b50505050506040513d601f19601f820116820180604052506105d39190810190610a99565b6105dc57600080fd5b5050505050565b8060008190555050565b73ff795577d9ac8bd7d90ee22b6c1703490b6512fd81565b600360009054906101000a900473ffffffffffffffffffffffffffffffffffffffff1673ffffffffffffffffffffffffffffffffffffffff166108fc829081150290604051600060405180830381858888f1935050505015801561066d573d6000803e3d6000fd5b5050565b60006002828154811061068057fe5b906000526020600020906003020160020160146101000a81548160ff02191690831515021790555050565b600281815481106106b857fe5b90600052602060002090600302016000915090508060000160009054906101000a900473ffffffffffffffffffffffffffffffffffffffff16908060010154908060020160009054906101000a900473ffffffffffffffffffffffffffffffffffffffff16908060020160149054906101000a900460ff16905084565b600360009054906101000a900473ffffffffffffffffffffffffffffffffffffffff1681565b60005481565b60606002805480602002602001604051908101604052809291908181526020016000905b8282101561088857838290600052602060002090600302016040518060800160405290816000820160009054906101000a900473ffffffffffffffffffffffffffffffffffffffff1673ffffffffffffffffffffffffffffffffffffffff1673ffffffffffffffffffffffffffffffffffffffff168152602001600182015481526020016002820160009054906101000a900473ffffffffffffffffffffffffffffffffffffffff1673ffffffffffffffffffffffffffffffffffffffff1673ffffffffffffffffffffffffffffffffffffffff1681526020016002820160149054906101000a900460ff16151515158152505081526020019060010190610785565b50505050905090565b600260405180608001604052808473ffffffffffffffffffffffffffffffffffffffff1681526020018381526020013373ffffffffffffffffffffffffffffffffffffffff168152602001600115158152509080600181540180825580915050906001820390600052602060002090600302016000909192909190915060008201518160000160006101000a81548173ffffffffffffffffffffffffffffffffffffffff021916908373ffffffffffffffffffffffffffffffffffffffff1602179055506020820151816001015560408201518160020160006101000a81548173ffffffffffffffffffffffffffffffffffffffff021916908373ffffffffffffffffffffffffffffffffffffffff16021790555060608201518160020160146101000a81548160ff0219169083151502179055505050505050565b60006109d98235610f34565b905092915050565b60006109ed8251610f46565b905092915050565b600082601f830112610a0657600080fd5b8135610a19610a1482610e5c565b610e2f565b91508082526020830160208301858383011115610a3557600080fd5b610a40838284610fb2565b50505092915050565b6000610a558235610f72565b905092915050565b60008060408385031215610a7057600080fd5b6000610a7e858286016109cd565b9250506020610a8f85828601610a49565b9150509250929050565b600060208284031215610aab57600080fd5b6000610ab9848285016109e1565b91505092915050565b600060208284031215610ad457600080fd5b6000610ae284828501610a49565b91505092915050565b600080600060608486031215610b0057600080fd5b6000610b0e86828701610a49565b9350506020610b1f86828701610a49565b925050604084013567ffffffffffffffff811115610b3c57600080fd5b610b48868287016109f5565b9150509250925092565b6000610b5e8383610c66565b60808301905092915050565b610b7381610f7c565b82525050565b610b8281610eec565b82525050565b610b9181610eec565b82525050565b610ba081610eda565b82525050565b610baf81610eda565b82525050565b6000610bc082610e95565b610bca8185610eb8565b9350610bd583610e88565b60005b82811015610c0357610beb868351610b52565b9550610bf682610eab565b9150600181019050610bd8565b50849250505092915050565b610c1881610efe565b82525050565b610c2781610efe565b82525050565b6000610c3882610ea0565b610c428185610ec9565b9350610c52818560208601610fc1565b610c5b81610ff4565b840191505092915050565b608082016000820151610c7c6000850182610b97565b506020820151610c8f6020850182610cbb565b506040820151610ca26040850182610b79565b506060820151610cb56060850182610c0f565b50505050565b610cc481610f2a565b82525050565b610cd381610f2a565b82525050565b6000602082019050610cee6000830184610ba6565b92915050565b6000602082019050610d096000830184610b88565b92915050565b6000606082019050610d246000830186610b6a565b610d316020830185610ba6565b610d3e6040830184610cca565b949350505050565b6000606082019050610d5b6000830186610b6a565b610d686020830185610cca565b8181036040830152610d7a8184610c2d565b9050949350505050565b6000604082019050610d996000830185610ba6565b610da66020830184610cca565b9392505050565b6000608082019050610dc26000830187610ba6565b610dcf6020830186610cca565b610ddc6040830185610b88565b610de96060830184610c1e565b95945050505050565b60006020820190508181036000830152610e0c8184610bb5565b905092915050565b6000602082019050610e296000830184610cca565b92915050565b6000604051905081810181811067ffffffffffffffff82111715610e5257600080fd5b8060405250919050565b600067ffffffffffffffff821115610e7357600080fd5b601f19601f8301169050602081019050919050565b6000602082019050919050565b600081519050919050565b600081519050919050565b6000602082019050919050565b600082825260208201905092915050565b600082825260208201905092915050565b6000610ee582610f0a565b9050919050565b6000610ef782610f0a565b9050919050565b60008115159050919050565b600073ffffffffffffffffffffffffffffffffffffffff82169050919050565b6000819050919050565b6000610f3f82610f52565b9050919050565b60008115159050919050565b600073ffffffffffffffffffffffffffffffffffffffff82169050919050565b6000819050919050565b6000610f8782610f8e565b9050919050565b6000610f9982610fa0565b9050919050565b6000610fab82610f0a565b9050919050565b82818337600083830152505050565b60005b83811015610fdf578082015181840152602081019050610fc4565b83811115610fee576000848401525b50505050565b6000601f19601f830116905091905056fea265627a7a7230582018b9de682500662b478e3cc9a98052da5e36251d811622e2906f0b8a23efae736c6578706572696d656e74616cf50037",
  "source": "pragma solidity >=0.4.21 <0.7.0;\npragma experimental ABIEncoderV2;\n\nimport \"./DefiNFTInterface.sol\";\nimport \"@openzeppelin/contracts/token/ERC20/IERC20.sol\";\n\ncontract DefiFarm {\n\n    // address public constant DAI_ADDRESS = 0x6B175474E89094C44Da98b954EedeAC495271d0F;\n    // address public constant ADAI_ADDRESS = 0xfC1E690f61EFd961294b3e1Ce3313fBD8aa4f85d;\n    // address public constant AAVE_LENDING_POOL = 0x398eC7346DcD622eDc5ae82352F02bE94C62d119;\n\n    // kovan\n    address public constant DAI_ADDRESS = 0xFf795577d9AC8bD7D90Ee22b6C1703490b6512FD;\n    \n    struct DefiNFT {\n        address tokenAddress;\n        uint price;\n        address payable tokenMaker;\n        bool exists;\n    }\n\n    uint public USER_SHARE = 5;\n\n    uint public count;\n\n    DefiNFT[] public tokens;\n\n    address payable public owner;\n\n    constructor() public {\n        owner = msg.sender;\n    }\n\n    // TODO: add approval period\n    function addToken(address _tokenAddress, uint _price) public payable {\n        tokens.push(\n            DefiNFT({\n                tokenAddress: _tokenAddress,\n                price: _price,\n                tokenMaker: msg.sender,\n                exists: true\n            })\n        );\n    }\n\n    function buyToken(uint _tokenId, uint _value, string memory _name) public payable {\n        uint tokenPrice = tokens[_tokenId].price;\n        require(msg.value >= tokenPrice);\n        require(tokens[_tokenId].exists);\n\n        address payable tokenMaker = tokens[_tokenId].tokenMaker;\n        tokenMaker.transfer(tokenPrice * USER_SHARE / 100);\n\n        if (msg.value == tokenPrice) {\n            require(IERC20(DAI_ADDRESS).transferFrom(msg.sender, address(this), _value));\n            IERC20(DAI_ADDRESS).approve(tokens[_tokenId].tokenAddress, _value);\n        }\n        \n        // TODO: mint token\n        require(DefiNFTInterface(tokens[_tokenId].tokenAddress).mintDefiNFT.value(msg.value-tokenPrice)(msg.sender, _value, _name));\n    }\n\n    // TODO: only dao\n    function removeToken(uint _id) public {\n        tokens[_id].exists = false;\n    }\n\n    // TODO: only dao\n    function changeMakerShare(uint _share) public {\n        USER_SHARE = _share;\n    }\n\n    function getTokens() public view returns(DefiNFT[] memory) {\n        return tokens;\n    }\n\n    function withdraw(uint _amount) public {\n        owner.transfer(_amount);\n    }\n}\n",
  "sourcePath": "/Users/nikolaklipa/Decenter/defi-farm/contracts/contracts/DefiFarm.sol",
  "compiler": {
    "name": "solc",
    "version": "0.5.7+commit.6da8b019.Emscripten.clang"
  },
  "schemaVersion": "3.0.23",
  "updatedAt": "2020-02-29T21:43:48.966Z",
  "networkType": "ethereum",
  "devdoc": {
    "methods": {}
  },
  "userdoc": {
    "methods": {}
  }
}