{
  "contractName": "DefiFarm",
  "abi": [
    {
      "constant": true,
      "inputs": [],
      "name": "count",
      "outputs": [
        {
          "name": "",
          "type": "uint256"
        }
      ],
      "payable": false,
      "stateMutability": "view",
      "type": "function"
    },
    {
      "constant": true,
      "inputs": [],
      "name": "DAI_ADDRESS",
      "outputs": [
        {
          "name": "",
          "type": "address"
        }
      ],
      "payable": false,
      "stateMutability": "view",
      "type": "function"
    },
    {
      "constant": true,
      "inputs": [
        {
          "name": "",
          "type": "uint256"
        }
      ],
      "name": "tokens",
      "outputs": [
        {
          "name": "tokenAddress",
          "type": "address"
        },
        {
          "name": "price",
          "type": "uint256"
        },
        {
          "name": "tokenMaker",
          "type": "address"
        },
        {
          "name": "exists",
          "type": "bool"
        }
      ],
      "payable": false,
      "stateMutability": "view",
      "type": "function"
    },
    {
      "constant": true,
      "inputs": [],
      "name": "owner",
      "outputs": [
        {
          "name": "",
          "type": "address"
        }
      ],
      "payable": false,
      "stateMutability": "view",
      "type": "function"
    },
    {
      "constant": true,
      "inputs": [],
      "name": "USER_SHARE",
      "outputs": [
        {
          "name": "",
          "type": "uint256"
        }
      ],
      "payable": false,
      "stateMutability": "view",
      "type": "function"
    },
    {
      "inputs": [],
      "payable": false,
      "stateMutability": "nonpayable",
      "type": "constructor"
    },
    {
      "constant": false,
      "inputs": [
        {
          "name": "_tokenAddress",
          "type": "address"
        },
        {
          "name": "_price",
          "type": "uint256"
        }
      ],
      "name": "addToken",
      "outputs": [],
      "payable": true,
      "stateMutability": "payable",
      "type": "function"
    },
    {
      "constant": false,
      "inputs": [
        {
          "name": "_tokenId",
          "type": "uint256"
        },
        {
          "name": "_value",
          "type": "uint256"
        },
        {
          "name": "_name",
          "type": "string"
        }
      ],
      "name": "buyToken",
      "outputs": [],
      "payable": true,
      "stateMutability": "payable",
      "type": "function"
    },
    {
      "constant": false,
      "inputs": [
        {
          "name": "_id",
          "type": "uint256"
        }
      ],
      "name": "removeToken",
      "outputs": [],
      "payable": false,
      "stateMutability": "nonpayable",
      "type": "function"
    },
    {
      "constant": false,
      "inputs": [
        {
          "name": "_share",
          "type": "uint256"
        }
      ],
      "name": "changeMakerShare",
      "outputs": [],
      "payable": false,
      "stateMutability": "nonpayable",
      "type": "function"
    },
    {
      "constant": true,
      "inputs": [],
      "name": "getTokens",
      "outputs": [
        {
          "components": [
            {
              "name": "tokenAddress",
              "type": "address"
            },
            {
              "name": "price",
              "type": "uint256"
            },
            {
              "name": "tokenMaker",
              "type": "address"
            },
            {
              "name": "exists",
              "type": "bool"
            }
          ],
          "name": "",
          "type": "tuple[]"
        }
      ],
      "payable": false,
      "stateMutability": "view",
      "type": "function"
    },
    {
      "constant": false,
      "inputs": [
        {
          "name": "_amount",
          "type": "uint256"
        }
      ],
      "name": "withdraw",
      "outputs": [],
      "payable": false,
      "stateMutability": "nonpayable",
      "type": "function"
    }
  ],
  "bytecode": "0x6080604052600560005534801561001557600080fd5b5033600360006101000a81548173ffffffffffffffffffffffffffffffffffffffff021916908373ffffffffffffffffffffffffffffffffffffffff160217905550611085806100666000396000f3fe60806040526004361061009c5760003560e01c806336c5d7241161006457806336c5d724146101655780634f64b2be1461018e5780638da5cb5b146101ce578063a10eaa89146101f9578063aa6ca80814610224578063af81c5b91461024f5761009c565b806306661abd146100a15780631df32ce7146100cc57806327b1cff2146100e85780632a4c0a1a146101115780632e1a7d4d1461013c575b600080fd5b3480156100ad57600080fd5b506100b661026b565b6040516100c39190610e5a565b60405180910390f35b6100e660048036036100e19190810190610b31565b610271565b005b3480156100f457600080fd5b5061010f600480360361010a9190810190610b08565b610629565b005b34801561011d57600080fd5b50610126610633565b6040516101339190610d1f565b60405180910390f35b34801561014857600080fd5b50610163600480360361015e9190810190610b08565b61064b565b005b34801561017157600080fd5b5061018c60048036036101879190810190610b08565b6106b7565b005b34801561019a57600080fd5b506101b560048036036101b09190810190610b08565b6106f1565b6040516101c59493929190610df3565b60405180910390f35b3480156101da57600080fd5b506101e361077b565b6040516101f09190610d3a565b60405180910390f35b34801561020557600080fd5b5061020e6107a1565b60405161021b9190610e5a565b60405180910390f35b34801561023057600080fd5b506102396107a7565b6040516102469190610e38565b60405180910390f35b61026960048036036102649190810190610aa3565b6108d7565b005b60015481565b60006002848154811061028057fe5b9060005260206000209060030201600101549050803410156102a157600080fd5b600284815481106102ae57fe5b906000526020600020906003020160020160149054906101000a900460ff166102d657600080fd5b80341115610328573373ffffffffffffffffffffffffffffffffffffffff166108fc8234039081150290604051600060405180830381858888f19350505050158015610326573d6000803e3d6000fd5b505b60006002858154811061033757fe5b906000526020600020906003020160020160009054906101000a900473ffffffffffffffffffffffffffffffffffffffff1690508073ffffffffffffffffffffffffffffffffffffffff166108fc606460005485028161039357fe5b049081150290604051600060405180830381858888f193505050501580156103bf573d6000803e3d6000fd5b5073ff795577d9ac8bd7d90ee22b6c1703490b6512fd73ffffffffffffffffffffffffffffffffffffffff166323b872dd3330876040518463ffffffff1660e01b815260040161041193929190610d55565b602060405180830381600087803b15801561042b57600080fd5b505af115801561043f573d6000803e3d6000fd5b505050506040513d601f19601f820116820180604052506104639190810190610adf565b61046c57600080fd5b73ff795577d9ac8bd7d90ee22b6c1703490b6512fd73ffffffffffffffffffffffffffffffffffffffff1663095ea7b3600287815481106104a957fe5b906000526020600020906003020160000160009054906101000a900473ffffffffffffffffffffffffffffffffffffffff16866040518363ffffffff1660e01b81526004016104f9929190610dca565b602060405180830381600087803b15801561051357600080fd5b505af1158015610527573d6000803e3d6000fd5b505050506040513d601f19601f8201168201806040525061054b9190810190610adf565b506002858154811061055957fe5b906000526020600020906003020160000160009054906101000a900473ffffffffffffffffffffffffffffffffffffffff1673ffffffffffffffffffffffffffffffffffffffff16630e3a48963386866040518463ffffffff1660e01b81526004016105c793929190610d8c565b602060405180830381600087803b1580156105e157600080fd5b505af11580156105f5573d6000803e3d6000fd5b505050506040513d601f19601f820116820180604052506106199190810190610adf565b61062257600080fd5b5050505050565b8060008190555050565b73ff795577d9ac8bd7d90ee22b6c1703490b6512fd81565b600360009054906101000a900473ffffffffffffffffffffffffffffffffffffffff1673ffffffffffffffffffffffffffffffffffffffff166108fc829081150290604051600060405180830381858888f193505050501580156106b3573d6000803e3d6000fd5b5050565b6000600282815481106106c657fe5b906000526020600020906003020160020160146101000a81548160ff02191690831515021790555050565b600281815481106106fe57fe5b90600052602060002090600302016000915090508060000160009054906101000a900473ffffffffffffffffffffffffffffffffffffffff16908060010154908060020160009054906101000a900473ffffffffffffffffffffffffffffffffffffffff16908060020160149054906101000a900460ff16905084565b600360009054906101000a900473ffffffffffffffffffffffffffffffffffffffff1681565b60005481565b60606002805480602002602001604051908101604052809291908181526020016000905b828210156108ce57838290600052602060002090600302016040518060800160405290816000820160009054906101000a900473ffffffffffffffffffffffffffffffffffffffff1673ffffffffffffffffffffffffffffffffffffffff1673ffffffffffffffffffffffffffffffffffffffff168152602001600182015481526020016002820160009054906101000a900473ffffffffffffffffffffffffffffffffffffffff1673ffffffffffffffffffffffffffffffffffffffff1673ffffffffffffffffffffffffffffffffffffffff1681526020016002820160149054906101000a900460ff161515151581525050815260200190600101906107cb565b50505050905090565b600260405180608001604052808473ffffffffffffffffffffffffffffffffffffffff1681526020018381526020013373ffffffffffffffffffffffffffffffffffffffff168152602001600115158152509080600181540180825580915050906001820390600052602060002090600302016000909192909190915060008201518160000160006101000a81548173ffffffffffffffffffffffffffffffffffffffff021916908373ffffffffffffffffffffffffffffffffffffffff1602179055506020820151816001015560408201518160020160006101000a81548173ffffffffffffffffffffffffffffffffffffffff021916908373ffffffffffffffffffffffffffffffffffffffff16021790555060608201518160020160146101000a81548160ff0219169083151502179055505050505050565b6000610a1f8235610f7a565b905092915050565b6000610a338251610f8c565b905092915050565b600082601f830112610a4c57600080fd5b8135610a5f610a5a82610ea2565b610e75565b91508082526020830160208301858383011115610a7b57600080fd5b610a86838284610ff8565b50505092915050565b6000610a9b8235610fb8565b905092915050565b60008060408385031215610ab657600080fd5b6000610ac485828601610a13565b9250506020610ad585828601610a8f565b9150509250929050565b600060208284031215610af157600080fd5b6000610aff84828501610a27565b91505092915050565b600060208284031215610b1a57600080fd5b6000610b2884828501610a8f565b91505092915050565b600080600060608486031215610b4657600080fd5b6000610b5486828701610a8f565b9350506020610b6586828701610a8f565b925050604084013567ffffffffffffffff811115610b8257600080fd5b610b8e86828701610a3b565b9150509250925092565b6000610ba48383610cac565b60808301905092915050565b610bb981610fc2565b82525050565b610bc881610f32565b82525050565b610bd781610f32565b82525050565b610be681610f20565b82525050565b610bf581610f20565b82525050565b6000610c0682610edb565b610c108185610efe565b9350610c1b83610ece565b60005b82811015610c4957610c31868351610b98565b9550610c3c82610ef1565b9150600181019050610c1e565b50849250505092915050565b610c5e81610f44565b82525050565b610c6d81610f44565b82525050565b6000610c7e82610ee6565b610c888185610f0f565b9350610c98818560208601611007565b610ca18161103a565b840191505092915050565b608082016000820151610cc26000850182610bdd565b506020820151610cd56020850182610d01565b506040820151610ce86040850182610bbf565b506060820151610cfb6060850182610c55565b50505050565b610d0a81610f70565b82525050565b610d1981610f70565b82525050565b6000602082019050610d346000830184610bec565b92915050565b6000602082019050610d4f6000830184610bce565b92915050565b6000606082019050610d6a6000830186610bb0565b610d776020830185610bec565b610d846040830184610d10565b949350505050565b6000606082019050610da16000830186610bb0565b610dae6020830185610d10565b8181036040830152610dc08184610c73565b9050949350505050565b6000604082019050610ddf6000830185610bec565b610dec6020830184610d10565b9392505050565b6000608082019050610e086000830187610bec565b610e156020830186610d10565b610e226040830185610bce565b610e2f6060830184610c64565b95945050505050565b60006020820190508181036000830152610e528184610bfb565b905092915050565b6000602082019050610e6f6000830184610d10565b92915050565b6000604051905081810181811067ffffffffffffffff82111715610e9857600080fd5b8060405250919050565b600067ffffffffffffffff821115610eb957600080fd5b601f19601f8301169050602081019050919050565b6000602082019050919050565b600081519050919050565b600081519050919050565b6000602082019050919050565b600082825260208201905092915050565b600082825260208201905092915050565b6000610f2b82610f50565b9050919050565b6000610f3d82610f50565b9050919050565b60008115159050919050565b600073ffffffffffffffffffffffffffffffffffffffff82169050919050565b6000819050919050565b6000610f8582610f98565b9050919050565b60008115159050919050565b600073ffffffffffffffffffffffffffffffffffffffff82169050919050565b6000819050919050565b6000610fcd82610fd4565b9050919050565b6000610fdf82610fe6565b9050919050565b6000610ff182610f50565b9050919050565b82818337600083830152505050565b60005b8381101561102557808201518184015260208101905061100a565b83811115611034576000848401525b50505050565b6000601f19601f830116905091905056fea265627a7a72305820cab6125432c520e5241e7aec9307e64e99cf3cca9a52d1578aa011741281c7976c6578706572696d656e74616cf50037",
  "source": "pragma solidity >=0.4.21 <0.7.0;\npragma experimental ABIEncoderV2;\n\nimport \"./DefiNFTInterface.sol\";\nimport \"@openzeppelin/contracts/token/ERC20/IERC20.sol\";\n\ncontract DefiFarm {\n\n    // address public constant DAI_ADDRESS = 0x6B175474E89094C44Da98b954EedeAC495271d0F;\n    // address public constant ADAI_ADDRESS = 0xfC1E690f61EFd961294b3e1Ce3313fBD8aa4f85d;\n    // address public constant AAVE_LENDING_POOL = 0x398eC7346DcD622eDc5ae82352F02bE94C62d119;\n\n    // kovan\n    address public constant DAI_ADDRESS = 0xFf795577d9AC8bD7D90Ee22b6C1703490b6512FD;\n    \n    struct DefiNFT {\n        address tokenAddress;\n        uint price;\n        address payable tokenMaker;\n        bool exists;\n    }\n\n    uint public USER_SHARE = 5;\n\n    uint public count;\n\n    DefiNFT[] public tokens;\n\n    address payable public owner;\n\n    constructor() public {\n        owner = msg.sender;\n    }\n\n    // TODO: add approval period\n    function addToken(address _tokenAddress, uint _price) public payable {\n        tokens.push(\n            DefiNFT({\n                tokenAddress: _tokenAddress,\n                price: _price,\n                tokenMaker: msg.sender,\n                exists: true\n            })\n        );\n    }\n\n    function buyToken(uint _tokenId, uint _value, string memory _name) public payable {\n        uint tokenPrice = tokens[_tokenId].price;\n        require(msg.value >= tokenPrice);\n        require(tokens[_tokenId].exists);\n\n        if (msg.value > tokenPrice) {\n            msg.sender.transfer(msg.value - tokenPrice);\n        }\n\n        address payable tokenMaker = tokens[_tokenId].tokenMaker;\n        tokenMaker.transfer(tokenPrice * USER_SHARE / 100);\n\n        require(IERC20(DAI_ADDRESS).transferFrom(msg.sender, address(this), _value));\n        IERC20(DAI_ADDRESS).approve(tokens[_tokenId].tokenAddress, _value);\n\n        // TODO: mint token\n        require(DefiNFTInterface(tokens[_tokenId].tokenAddress).mintDefiNFT(msg.sender, _value, _name));\n    }\n\n    // TODO: only dao\n    function removeToken(uint _id) public {\n        tokens[_id].exists = false;\n    }\n\n    // TODO: only dao\n    function changeMakerShare(uint _share) public {\n        USER_SHARE = _share;\n    }\n\n    function getTokens() public view returns(DefiNFT[] memory) {\n        return tokens;\n    }\n\n    function withdraw(uint _amount) public {\n        owner.transfer(_amount);\n    }\n}\n",
  "sourcePath": "/Users/nikolaklipa/Decenter/defi-farm/contracts/contracts/DefiFarm.sol",
  "compiler": {
    "name": "solc",
    "version": "0.5.7+commit.6da8b019.Emscripten.clang"
  },
  "schemaVersion": "3.0.23",
  "updatedAt": "2020-02-29T14:02:53.180Z",
  "networkType": "ethereum",
  "devdoc": {
    "methods": {}
  },
  "userdoc": {
    "methods": {}
  }
}