{
  "contractName": "OasisWrapper",
  "abi": [
    {
      "constant": true,
      "inputs": [],
      "name": "WETH_ADDRESS",
      "outputs": [
        {
          "name": "",
          "type": "address"
        }
      ],
      "payable": false,
      "stateMutability": "view",
      "type": "function"
    },
    {
      "constant": true,
      "inputs": [],
      "name": "OTC_ADDRESS",
      "outputs": [
        {
          "name": "",
          "type": "address"
        }
      ],
      "payable": false,
      "stateMutability": "view",
      "type": "function"
    },
    {
      "payable": true,
      "stateMutability": "payable",
      "type": "fallback"
    },
    {
      "constant": false,
      "inputs": [
        {
          "name": "_tokenAddress",
          "type": "address"
        },
        {
          "name": "_amount",
          "type": "uint256"
        }
      ],
      "name": "swapTokenToEther",
      "outputs": [
        {
          "name": "",
          "type": "uint256"
        }
      ],
      "payable": false,
      "stateMutability": "nonpayable",
      "type": "function"
    },
    {
      "constant": true,
      "inputs": [
        {
          "name": "_src",
          "type": "address"
        },
        {
          "name": "_dest",
          "type": "address"
        },
        {
          "name": "_buyQty",
          "type": "uint256"
        }
      ],
      "name": "getSellAmount",
      "outputs": [
        {
          "name": "",
          "type": "uint256"
        }
      ],
      "payable": false,
      "stateMutability": "view",
      "type": "function"
    }
  ],
  "bytecode": "0x608060405234801561001057600080fd5b50610638806100206000396000f3fe60806040526004361061003f5760003560e01c8063040141e51461004157806326680ef8146100985780632a441f051461010757806397a278891461015e575b005b34801561004d57600080fd5b506100566101ed565b604051808273ffffffffffffffffffffffffffffffffffffffff1673ffffffffffffffffffffffffffffffffffffffff16815260200191505060405180910390f35b3480156100a457600080fd5b506100f1600480360360408110156100bb57600080fd5b81019080803573ffffffffffffffffffffffffffffffffffffffff16906020019092919080359060200190929190505050610205565b6040518082815260200191505060405180910390f35b34801561011357600080fd5b5061011c6104e1565b604051808273ffffffffffffffffffffffffffffffffffffffff1673ffffffffffffffffffffffffffffffffffffffff16815260200191505060405180910390f35b34801561016a57600080fd5b506101d76004803603606081101561018157600080fd5b81019080803573ffffffffffffffffffffffffffffffffffffffff169060200190929190803573ffffffffffffffffffffffffffffffffffffffff169060200190929190803590602001909291905050506104f9565b6040518082815260200191505060405180910390f35b73d0a1e359811322d97991e03f863a0c30c2cf029c81565b60008273ffffffffffffffffffffffffffffffffffffffff1663095ea7b3734a6bc4e803c62081ffebcc8d227b5a87a58f1f8f846040518363ffffffff1660e01b8152600401808373ffffffffffffffffffffffffffffffffffffffff1673ffffffffffffffffffffffffffffffffffffffff16815260200182815260200192505050602060405180830381600087803b1580156102a257600080fd5b505af11580156102b6573d6000803e3d6000fd5b505050506040513d60208110156102cc57600080fd5b81019080805190602001909291905050506102e657600080fd5b6000734a6bc4e803c62081ffebcc8d227b5a87a58f1f8f73ffffffffffffffffffffffffffffffffffffffff16630621b4f6858573d0a1e359811322d97991e03f863a0c30c2cf029c60006040518563ffffffff1660e01b8152600401808573ffffffffffffffffffffffffffffffffffffffff1673ffffffffffffffffffffffffffffffffffffffff1681526020018481526020018373ffffffffffffffffffffffffffffffffffffffff1673ffffffffffffffffffffffffffffffffffffffff168152602001828152602001945050505050602060405180830381600087803b1580156103d457600080fd5b505af11580156103e8573d6000803e3d6000fd5b505050506040513d60208110156103fe57600080fd5b8101908080519060200190929190505050905073d0a1e359811322d97991e03f863a0c30c2cf029c73ffffffffffffffffffffffffffffffffffffffff16632e1a7d4d826040518263ffffffff1660e01b815260040180828152602001915050600060405180830381600087803b15801561047857600080fd5b505af115801561048c573d6000803e3d6000fd5b505050503373ffffffffffffffffffffffffffffffffffffffff166108fc829081150290604051600060405180830381858888f193505050501580156104d6573d6000803e3d6000fd5b508091505092915050565b734a6bc4e803c62081ffebcc8d227b5a87a58f1f8f81565b6000734a6bc4e803c62081ffebcc8d227b5a87a58f1f8f73ffffffffffffffffffffffffffffffffffffffff1663ff1fd9748585856040518463ffffffff1660e01b8152600401808473ffffffffffffffffffffffffffffffffffffffff1673ffffffffffffffffffffffffffffffffffffffff1681526020018373ffffffffffffffffffffffffffffffffffffffff1673ffffffffffffffffffffffffffffffffffffffff168152602001828152602001935050505060206040518083038186803b1580156105c857600080fd5b505afa1580156105dc573d6000803e3d6000fd5b505050506040513d60208110156105f257600080fd5b81019080805190602001909291905050509050939250505056fea165627a7a72305820a7316002b7d496b195792dba6c20d0fc3ee33b6f27b6ce34ff636bb2d93497000029",
  "source": "pragma solidity ^0.5.0;\n\nimport \"./DSMath.sol\";\nimport \"@openzeppelin/contracts/token/ERC20/IERC20.sol\";\n\n\ncontract TokenInterface {\n    function allowance(address, address) public returns (uint256);\n\n    function balanceOf(address) public returns (uint256);\n\n    function approve(address, uint256) public;\n\n    function transfer(address, uint256) public returns (bool);\n\n    function transferFrom(address, address, uint256) public returns (bool);\n\n    function deposit() public payable;\n\n    function withdraw(uint256) public;\n}\n\n\ncontract Eth2DaiInterface {\n    function getBuyAmount(IERC20 tokenToBuy, IERC20 tokenToPay, uint256 amountToPay)\n        external\n        view\n        returns (uint256 amountBought);\n\n    function getPayAmount(IERC20 tokenToPay, IERC20 tokenToBuy, uint256 amountToBuy)\n        public\n        view\n        returns (uint256 amountPaid);\n\n    function sellAllAmount(IERC20 pay_gem, uint256 pay_amt, IERC20 buy_gem, uint256 min_fill_amount)\n        public\n        returns (uint256 fill_amt);\n\n    function buyAllAmount(IERC20 buy_gem, uint256 buy_amt, IERC20 pay_gem, uint256 max_fill_amount)\n        public\n        returns (uint256 fill_amt);\n}\n\n\n\ncontract OasisWrapper is DSMath {\n    address public constant OTC_ADDRESS = 0x4A6bC4e803c62081ffEbCc8d227B5a87a58f1F8F;\n    address public constant WETH_ADDRESS = 0xd0A1E359811322d97991E03f863a0C30C2cF029C;\n\n    function swapTokenToEther(address _tokenAddress, uint _amount) external returns(uint) {\n        require(IERC20(_tokenAddress).approve(OTC_ADDRESS, _amount));\n\n        uint ethBought = Eth2DaiInterface(OTC_ADDRESS).sellAllAmount(IERC20(_tokenAddress), _amount,\n         IERC20(WETH_ADDRESS), 0);\n\n        TokenInterface(WETH_ADDRESS).withdraw(ethBought);\n\n        msg.sender.transfer(ethBought);\n\n        return ethBought;\n    }\n\n    function getSellAmount(address _src, address _dest, uint _buyQty) public view returns (uint) {\n        return Eth2DaiInterface(OTC_ADDRESS).getPayAmount(IERC20(_src), IERC20(_dest), _buyQty);\n    }\n\n    function() payable external {}\n}\n",
  "sourcePath": "/Users/nikolaklipa/Decenter/defi-farm/contracts/contracts/examples/OasisWrapper.sol",
  "compiler": {
    "name": "solc",
    "version": "0.5.7+commit.6da8b019.Emscripten.clang"
  },
  "schemaVersion": "3.0.23",
  "updatedAt": "2020-02-29T21:43:48.969Z",
  "networkType": "ethereum",
  "devdoc": {
    "methods": {}
  },
  "userdoc": {
    "methods": {}
  }
}